:020000040800F2
:1000000000000520F5B30008C1B00008CFB000081B
:10001000D5B00008DBB00008E1B000080000000027
:10002000000000000000000000000000E7B0000831
:10003000F5B000080000000003B1000811B100088D
:1000400045B4000845B4000845B4000845B40008AC
:1000500045B4000845B4000845B4000845B400089C
:1000600045B4000845B4000845B4000845B400088C
:1000700045B4000845B4000845B4000845B400087C
:100080001DB1000831B1000845B4000845B40008AE
:1000900045B4000845B4000845B4000845B400085C
:1000A00045B4000845B4000845B4000845B400084C
:1000B00045B4000845B4000845B4000845B400083C
:1000C00045B4000845B4000845B4000845B400082C
:1000D00045B4000845B4000845B1000845B400081F
:1000E00045B400085DB1000845B4000845B40008F7
:1000F00045B4000845B4000845B4000845B40008FC
:1001000045B4000845B4000845B4000845B40008EB
:1001100045B4000845B4000871B1000845B40008B2
:1001200045B4000885B1000845B4000845B400088E
:1001300045B4000845B4000845B4000845B40008BB
:1001400045B4000845B4000845B4000845B40008AB
:1001500045B4000899B1000845B40008ADB10008E5
:1001600045B4000845B4000845B4000845B400088B
:1001700045B4000845B4000800000000000000007D
:1001800045B4000845B4000845B4000845B400086B
:1001900045B4000845B400080000000045B400085C
:1001A00045B4000845B4000800000000000000004D
:1001B00045B40008000000000000000045B400083D
:1001C00045B4000845B4000845B4000845B400082B
:0801D00045B4000845B4000825
:1001E00010B5054C237833B9044B13B10448AFF371
:1001F00000800123237010BD600600200000000075
:10020000D8E1000808B5034B1BB103490348AFF31D
:10021000008008BD0000000064060020D8E100084E
:10022000034613F8012B002AFBD1181A0138704736
:1002300001F0FF01102A2BDB10F0070F08D010F897
:10024000013B013A8B422DD010F0070F42B3F6D19B
:10025000F0B441EA012141EA014122F007047FF0B4
:1002600000070023F0E80256083C85EA010586EA0B
:10027000010685FA47F5A3FA87F586FA47F6A5FA47
:1002800087F68EB9EED1F0BC01F0FF0102F0070253
:1002900032B110F8013B013A83EA010313B1F8D1FE
:1002A0000020704701387047002D06BF35460338DF
:1002B000073815F0010F07D1013015F4807F02BF18
:1002C000013015F4C03F0130F0BC0138704700BF69
:1002D00081F0004102E000BF83F0004330B54FEAF7
:1002E00041044FEA430594EA050F08BF90EA020F64
:1002F0001FBF54EA000C55EA020C7FEA645C7FEAF7
:10030000655C00F0E2804FEA5454D4EB5555B8BF19
:100310006D420CDD2C4480EA020281EA030382EA8A
:10032000000083EA010180EA020281EA0303362D1C
:1003300088BF30BD11F0004F4FEA01314FF4801CEF
:100340004CEA113102D0404261EB410113F0004F01
:100350004FEA03334CEA133302D0524263EB4303B8
:1003600094EA050F00F0A780A4F10104D5F1200E56
:100370000DDB02FA0EFC22FA05F2801841F10001B1
:1003800003FA0EF2801843FA05F359410EE0A5F185
:1003900020050EF1200E012A03FA0EFC28BF4CF0B6
:1003A000020C43FA05F3C01851EBE37101F000456C
:1003B00007D54FF0000EDCF1000C7EEB00006EEB79
:1003C0000101B1F5801F1BD3B1F5001F0CD3490803
:1003D0005FEA30004FEA3C0C04F101044FEA44525A
:1003E00012F5800F80F09A80BCF1004F08BF5FEAE1
:1003F000500C50F1000041EB045141EA050130BDC1
:100400005FEA4C0C404141EB0101013C28BFB1F5D2
:10041000801FE9D291F0000F04BF01460020B1FA1D
:1004200081F308BF2033A3F10B03B3F120020CDAF0
:100430000C3208DD02F1140CC2F10C0201FA0CF0CE
:1004400021FA02F10CE002F11402D8BFC2F1200C33
:1004500001FA02F120FA0CFCDCBF41EA0C019040E9
:10046000E41AA2BF01EB0451294330BD6FEA040432
:100470001F3C1CDA0C340EDC04F11404C4F120021D
:1004800020FA04F001FA02F340EA030021FA04F32F
:1004900045EA030130BDC4F10C04C4F1200220FA86
:1004A00002F001FA04F340EA0300294630BD21FAC4
:1004B00004F0294630BD94F0000F83F4801306BF8A
:1004C00081F480110134013D4EE77FEA645C18BF7E
:1004D0007FEA655C29D094EA050F08BF90EA020F15
:1004E00005D054EA000C04BF1946104630BD91EA0D
:1004F000030F1EBF0021002030BD5FEA545C05D110
:100500004000494128BF41F0004130BD14F580044E
:100510003CBF01F5801130BD01F0004545F0FE41C2
:1005200041F470014FF0000030BD7FEA645C1ABFF7
:10053000194610467FEA655C1CBF0B46024650EA2E
:10054000013406BF52EA033591EA030F41F400215A
:1005500030BD00BF90F0000F04BF0021704730B5E0
:100560004FF4806404F132044FF000054FF00001B5
:1005700050E700BF90F0000F04BF0021704730B576
:100580004FF4806404F1320410F0004548BF40424B
:100590004FF000013EE700BF42004FEAE2014FEAA0
:1005A00031014FEA02701FBF12F07F4393F07F4F7B
:1005B00081F06051704732F07F4208BF704793F07E
:1005C0007F4F04BF41F40021704730B54FF4607491
:1005D00001F0004521F000411CE700BF50EA010294
:1005E00008BF704730B54FF000050AE050EA01023D
:1005F00008BF704730B511F0004502D5404261EBAD
:1006000041014FF4806404F132045FEA915C3FF4ED
:10061000D8AE4FF003025FEADC0C18BF03325FEA8A
:10062000DC0C18BF033202EBDC02C2F1200300FA3B
:1006300003FC20FA02F001FA03FE40EA0E0021FA60
:1006400002F11444BDE600BF70B54FF0FF0C4CF44E
:10065000E06C1CEA11541DBF1CEA135594EA0C0F00
:1006600095EA0C0F00F0DEF82C4481EA030621EA3B
:100670004C5123EA4C5350EA013518BF52EA033576
:1006800041F4801143F4801338D0A0FB02CE4FF028
:100690000005E1FB02E506F00042E0FB03E54FF058
:1006A0000006E1FB03569CF0000F18BF4EF0010E50
:1006B000A4F1FF04B6F5007F64F5407404D25FEA4C
:1006C0004E0E6D4146EB060642EAC62141EA5551FF
:1006D0004FEAC52040EA5E504FEACE2EB4F1FD0C41
:1006E00088BFBCF5E06F1ED8BEF1004F08BF5FEABF
:1006F000500E50F1000041EB045170BD06F0004671
:1007000046EA010140EA020081EA0301B4EB5C041D
:10071000C2BFD4EB0C0541EA045170BD41F4801115
:100720004FF0000E013C00F3AB8014F1360FDEBF3A
:10073000002001F0004170BDC4F10004203C35DA16
:100740000C341BDC04F11404C4F1200500FA05F399
:1007500020FA04F001FA05F240EA020001F000423A
:1007600021F0004110EBD37021FA04F642EB0601B0
:100770005EEA430E08BF20EAD37070BDC4F10C04DA
:10078000C4F1200500FA04F320FA05F001FA04F29E
:1007900040EA020001F0004110EBD37041F100018A
:1007A0005EEA430E08BF20EAD37070BDC4F1200595
:1007B00000FA05F24EEA020E20FA04F301FA05F2FD
:1007C00043EA020321FA04F001F0004121FA04F2A5
:1007D00020EA020000EBD3705EEA430E08BF20EA75
:1007E000D37070BD94F0000F0FD101F000464000AF
:1007F00041EB010111F4801F08BF013CF7D041EA31
:10080000060195F0000F18BF704703F00046520034
:1008100043EB030313F4801F08BF013DF7D043EA05
:100820000603704794EA0C0F0CEA135518BF95EABB
:100830000C0F0CD050EA410618BF52EA4306D1D142
:1008400081EA030101F000414FF0000070BD50EA61
:10085000410606BF1046194652EA430619D094EAEB
:100860000C0F02D150EA013613D195EA0C0F05D1D5
:1008700052EA03361CBF104619460AD181EA030129
:1008800001F0004141F0FE4141F470014FF00000E1
:1008900070BD41F0FE4141F4780170BD70B54FF07C
:1008A000FF0C4CF4E06C1CEA11541DBF1CEA1355FC
:1008B00094EA0C0F95EA0C0F00F0A7F8A4EB0504DE
:1008C00081EA030E52EA03354FEA013100F08880D5
:1008D0004FEA03334FF0805545EA131343EA12639E
:1008E0004FEA022245EA111545EA10654FEA002653
:1008F0000EF000419D4208BF964244F1FD0404F50C
:10090000407402D25B084FEA3202B61A65EB030567
:100910005B084FEA32024FF480104FF4002CB6EB24
:10092000020E75EB030E22BFB61A754640EA0C00A4
:100930005B084FEA3202B6EB020E75EB030E22BFE4
:10094000B61A754640EA5C005B084FEA3202B6EB25
:10095000020E75EB030E22BFB61A754640EA9C00E4
:100960005B084FEA3202B6EB020E75EB030E22BFB4
:10097000B61A754640EADC0055EA060E18D04FEA72
:10098000051545EA16754FEA06164FEAC30343EA12
:1009900052734FEAC2025FEA1C1CC0D111F4801FDF
:1009A0000BD141EA00014FF000004FF0004CB6E7D8
:1009B00011F4801F04BF01430020B4F1FD0C88BF77
:1009C000BCF5E06F3FF6AFAEB5EB030C04BFB6EB82
:1009D000020C5FEA500C50F1000041EB045170BD75
:1009E0000EF0004E4EEA113114EB5C04C2BFD4EBA2
:1009F0000C0541EA045170BD41F480114FF0000E26
:100A0000013C90E645EA060E8DE60CEA135594EAA1
:100A10000C0F08BF95EA0C0F3FF43BAF94EA0C0FA4
:100A20000AD150EA01347FF434AF95EA0C0F7FF419
:100A300025AF104619462CE795EA0C0F06D152EA6D
:100A400003353FF4FDAE1046194622E750EA410651
:100A500018BF52EA43067FF4C5AE50EA41047FF462
:100A60000DAF52EA43057FF4EBAE12E74FF0FF3CC7
:100A700006E000BF4FF0010C02E000BF4FF0010C98
:100A80004DF804CD4FEA410C7FEA6C5C4FEA430C11
:100A900018BF7FEA6C5C1BD001B050EA410C0CBF60
:100AA00052EA430C91EA030F02BF90EA020F0020C2
:100AB000704710F1000F91EA030F58BF994208BF29
:100AC00090422CBFD8176FEAE37040F001007047E6
:100AD0004FEA410C7FEA6C5C02D150EA013C07D13D
:100AE0004FEA430C7FEA6C5CD6D152EA033CD3D088
:100AF0005DF8040B704700BF8446104662468C4682
:100B00001946634600E000BF01B5FFF7B7FF0028B4
:100B100048BF10F1000F01BD4DF808EDFFF7F4FFDD
:100B20000CBF012000205DF808FB00BF4DF808ED68
:100B3000FFF7EAFF34BF012000205DF808FB00BF8B
:100B40004DF808EDFFF7E0FF94BF012000205DF8AD
:100B500008FB00BF4DF808EDFFF7CEFF94BF012062
:100B600000205DF808FB00BF4DF808EDFFF7C4FF5B
:100B700034BF012000205DF808FB00BF4FEA410CA4
:100B80007FEA6C5C02D150EA013C0AD14FEA430C87
:100B90007FEA6C5C02D152EA033C02D14FF00000C4
:100BA00070474FF0010070474FEA410212F5001202
:100BB00015D211D56FF47873B3EB625212D94FEAA4
:100BC000C12343F0004343EA505311F0004F23FA8E
:100BD00002F018BF404270474FF00000704750EAE3
:100BE000013005D111F0004008BF6FF000407047A0
:100BF0004FF00000704700BF53B94AB9002908BF41
:100C000000281CBF4FF0FF314FF0FF3000F06EB9ED
:100C1000ADF1080C6DE904CE00F006F8DDF804E053
:100C2000DDE9022304B070472DE9F047089D044632
:100C30008C46002B40F083808A42174647D9B2FA8F
:100C400082F242B1C2F1200024FA00F091409740B4
:100C500040EA010C94404FEA1748230CBCFBF8F61D
:100C60001FFA87FE08FB16C143EA014306FB0EF19B
:100C7000994209D9FB1806F1FF3080F01981994299
:100C800040F21681023E3B445B1AA4B2B3FBF8F07B
:100C900008FB103344EA034400FB0EFEA64509D9C5
:100CA0003C1900F1FF3380F00581A64540F2028136
:100CB00002383C4440EA0640A4EB0E0400261DB175
:100CC000D4400023C5E900433146BDE8F08702B9AE
:100CD000FFDEB2FA82F2002A50D1CB1B4FEA174E48
:100CE0001FFA87F80126B3FBFEFC210C0EFB1C3318
:100CF00041EA034108FB0CF38B4207D979180CF148
:100D0000FF3002D28B4200F2E9808446C91AA3B2B6
:100D1000B1FBFEF00EFB101143EA014408FB00F8A2
:100D2000A04507D93C1900F1FF3302D2A04500F2DB
:100D3000D9801846A4EB080440EA0C40BFE78B4278
:100D400009D9002D00F0B1800026C5E90001304628
:100D50003146BDE8F087B3FA83F6002E4AD18B42C4
:100D600002D3824200F2B880841A61EB03010120B1
:100D70008C46002DA8D0C5E9004CA5E7C2F12003A0
:100D800020FA03F6974001FA02F04FEA174ED940D5
:100D90003043030CB1FBFEF61FFA87F80EFB161169
:100DA00043EA014306FB08F1994204FA02F409D927
:100DB000FB1806F1FF3C80F08D80994240F28A805A
:100DC000023E3B445B1A81B2B3FBFEF00EFB1033D4
:100DD00041EA034100FB08F38B4207D9791800F17F
:100DE000FF3C73D28B4271D902383944CB1A40EAA6
:100DF000064678E7C6F1200C03FA06F422FA0CF353
:100E00001C4320FA0CF701FA06F34FEA144E21FABC
:100E10000CF11F433B0CB1FBFEF91FFA84F80EFBEB
:100E2000191143EA014109FB08FA8A4502FA06F260
:100E300000FA06F308D9611809F1FF3048D28A4553
:100E400046D9A9F102092144A1EB0A01BFB2B1FBC5
:100E5000FEF00EFB101147EA014700FB08F8B84509
:100E600007D9E71900F1FF312ED2B8452CD9023845
:100E7000274440EA0940A7EB0807A0FB02894F4539
:100E8000C64649461AD317D05DB1B3EB0E0267EBE5
:100E9000010707FA0CFCF2404CEA0202F740C5E9F0
:100EA000002700263146BDE8F0872E4628460BE78E
:100EB0000646E9E61846FDE64345E5D2B8EB020EE4
:100EC00069EB04010138DFE70846D2E760468DE7A9
:100ED0008146B9E7664675E730464AE7ACF1020C51
:100EE000394413E702383C4424E700BF704700BF91
:100EF00080B500AF0E4B1B680D4A43F400731360BE
:100F00000B4B1B680A4A43F480631360084B1B6851
:100F1000074A43F480731360032000F04FF9002068
:100F200000F008F809F08AFE0023184680BD00BFD3
:100F3000003C024080B582B000AF7860124B1A6866
:100F4000124B1B7819464FF47A73B3FBF1F3B2FBE3
:100F5000F3F3184600F067F90346002B01D0012394
:100F60000EE07B680F2B0AD8002279684FF0FF3023
:100F700000F02FF9064A7B681360002300E001238C
:100F800018460837BD4680BD8C04002004000020B0
:100F90000000002080B400AF064B1B781A46064BB9
:100FA0001B681344044A136000BFBD465DF8047B10
:100FB000704700BF04000020C006002080B400AFCE
:100FC000034B1B681846BD465DF8047B704700BFA5
:100FD000C006002080B584B000AF7860FFF7EEFF58
:100FE000B8607B68FB60FB68B3F1FF3F05D00A4B3C
:100FF0001B781A46FB681344FB6000BFFFF7DEFF57
:101000000246BB68D31AFA689A42F7D800BF00BFFD
:101010001037BD4680BD00BF0400002080B485B0FD
:1010200000AF78607B6803F00703FB600C4BDB6864
:10103000BB60BA684FF6FF031340BB60FB681A023F
:10104000BB68134343F0BF6343F40033BB60044AFF
:10105000BB68D36000BF1437BD465DF8047B7047A2
:1010600000ED00E080B400AF044BDB681B0A03F026
:1010700007031846BD465DF8047B704700ED00E0AD
:1010800080B483B000AF0346FB7197F90730002BA3
:101090000BDBFB7903F01F02074997F907305B0967
:1010A000012000FA02F241F8232000BF0C37BD46B0
:1010B0005DF8047B704700BF00E100E080B483B0BE
:1010C00000AF03463960FB7197F90730002B0ADB4C
:1010D0003B68DAB20C4997F907301201D2B20B44DF
:1010E00083F800230AE03B68DAB20849FB7903F091
:1010F0000F03043B1201D2B20B441A7600BF0C3727
:10110000BD465DF8047B704700E100E000ED00E0C3
:1011100080B489B000AFF860B9607A60FB6803F012
:101120000703FB61FB69C3F10703042B28BF0423FA
:10113000BB61FB690433062B02D9FB69033B00E06A
:1011400000237B614FF0FF32BB6902FA03F3DA43FD
:10115000BB681A407B699A404FF0FF317B6901FA06
:1011600003F3D9437B680B40134318462437BD462D
:101170005DF8047B7047000080B582B000AF7860F6
:101180007B68013BB3F1807F01D301230FE00A4A62
:101190007B68013B53600F214FF0FF30FFF78EFF5C
:1011A000054B00229A60044B07221A600023184660
:1011B0000837BD4680BD00BF10E000E080B582B0BA
:1011C00000AF78607868FFF729FF00BF0837BD4699
:1011D00080BD80B586B000AF0346B9607A60FB730E
:1011E00000237B61FFF73EFF78617A68B968786910
:1011F000FFF78EFF024697F90F3011461846FFF7AA
:101200005DFF00BF1837BD4680BD80B582B000AF1E
:101210000346FB7197F907301846FFF731FF00BF0F
:101220000837BD4680BD80B582B000AF7860786871
:10123000FFF7A2FF034618460837BD4680BD0000F1
:1012400080B586B000AF786000237B61FFF7B6FE03
:1012500038617B68002B01D1012399E07B68002273
:1012600083F834207B68022283F835207B681B6872
:101270001A687B681B6822F001021A600FE0FFF712
:101280009DFE02463B69D31A052B08D97B682022B4
:101290005A657B68032283F83520032378E07B6856
:1012A0001B681B6803F00103002BE8D17B681B68F7
:1012B0001B687B617A69384B13407B617B685A6895
:1012C0007B689B681A437B68DB681A437B681B69F1
:1012D0001A437B685B691A437B689B691A437B6886
:1012E000DB691A437B681B6A13437A6913437B618A
:1012F0007B685B6A042B07D17B68DA6A7B681B6BAF
:1013000013437A6913437B617B681B687A691A60AF
:101310007B681B685B697B617B6923F007037B61EA
:101320007B685B6A7A6913437B617B685B6A042B29
:1013300017D17B689B6A7A6913437B617B68DB6AA0
:10134000002B0ED0786800F001FB0346002B08D07C
:101350007B6840225A657B68012283F8352001238F
:1013600016E07B681B687A695A61786800F0B8FA01
:101370000346FB607B68DB6D3F229A40FB689A6006
:101380007B6800225A657B68012283F835200023A0
:1013900018461837BD4680BD3F8010E080B586B046
:1013A00000AFF860B9607A603B600023FB75FB68B2
:1013B0009B6D3B61FB6893F83430012B01D1022314
:1013C00040E0FB68012283F83420FB6893F8353055
:1013D000DBB2012B2FD1FB68022283F83520FB689A
:1013E00000225A653B687A68B968F86800F04AFAE2
:1013F000FB68DB6D3F229A403B699A60FB681B6883
:101400001A68FB681B6842F016021A60FB681B6CC6
:10141000002B07D0FB681B681A68FB681B6842F04A
:1014200008021A60FB681B681A68FB681B6842F0B8
:1014300001021A6005E0FB68002283F834200223D1
:10144000FB75FB7D18461837BD4680BD80B584B05E
:1014500000AF78607B689B6DFB60FFF7AFFDB86005
:101460007B6893F83530DBB2022B08D07B68802292
:101470005A657B68002283F83420012352E07B68A0
:101480001B681A687B681B6822F016021A607B686A
:101490001B685A697B681B6822F080025A617B686E
:1014A0001B6C002B03D17B689B6C002B07D07B68E7
:1014B0001B681A687B681B6822F008021A607B6848
:1014C0001B681A687B681B6822F001021A6013E02F
:1014D000FFF774FD0246BB68D31A052B0CD97B6855
:1014E00020225A657B68002283F834207B6803221F
:1014F00083F83520032315E07B681B681B6803F025
:101500000103002BE4D17B68DB6D3F229A40FB682E
:101510009A607B68002283F834207B68012283F87C
:101520003520002318461037BD4680BD80B483B0F7
:1015300000AF78607B6893F83530DBB2022B04D0C3
:101540007B6880225A6501230CE07B68052283F8C2
:1015500035207B681B681A687B681B6822F00102D3
:101560001A60002318460C37BD465DF8047B7047AF
:1015700080B586B000AF78600023BB60924B1B68DB
:10158000924AA2FB03239B0A7B617B689B6D3B61B4
:101590003B691B68FB607B68DB6D08229A40FB6837
:1015A0001340002B1AD07B681B681B6803F00403F0
:1015B000002B13D07B681B681A687B681B6822F0BD
:1015C00004021A607B68DB6D08229A403B699A60CE
:1015D0007B685B6D43F001027B685A657B68DB6D5D
:1015E00001229A40FB681340002B12D07B681B68D5
:1015F0005B6903F08003002B0BD07B68DB6D01225D
:101600009A403B699A607B685B6D43F002027B689D
:101610005A657B68DB6D04229A40FB681340002BFF
:1016200012D07B681B681B6803F00203002B0BD0F1
:101630007B68DB6D04229A403B699A607B685B6D36
:1016400043F004027B685A657B68DB6D10229A4088
:10165000FB681340002B43D07B681B681B6803F0BA
:101660000803002B3CD07B68DB6D10229A403B695D
:101670009A607B681B681B6803F48023002B18D0DA
:101680007B681B681B6803F40023002B08D17B6870
:101690001B6C002B24D07B681B6C786898471FE07C
:1016A0007B689B6C002B1BD07B689B6C7868984791
:1016B00016E07B681B681B6803F48073002B07D15E
:1016C0007B681B681A687B681B6822F008021A6036
:1016D0007B681B6C002B03D07B681B6C7868984779
:1016E0007B68DB6D20229A40FB681340002B00F0E2
:1016F0008E807B681B681B6803F01003002B00F0D2
:1017000086807B68DB6D20229A403B699A607B680B
:1017100093F83530DBB2052B36D17B681B681A682D
:101720007B681B6822F016021A607B681B685A6986
:101730007B681B6822F080025A617B681B6C002B5F
:1017400003D17B689B6C002B07D07B681B681A68F1
:101750007B681B6822F008021A607B68DB6D3F2201
:101760009A403B699A607B68002283F834207B684A
:10177000012283F835207B681B6D002B7DD07B68B0
:101780001B6D7868984778E07B681B681B6803F4DA
:101790008023002B1CD07B681B681B6803F400238C
:1017A000002B08D17B685B6C002B30D07B685B6CB6
:1017B000786898472BE07B68DB6B002B27D07B6831
:1017C000DB6B7868984722E08C040020B5814E1BC3
:1017D0007B681B681B6803F48073002B0FD17B6848
:1017E0001B681A687B681B6822F010021A607B680D
:1017F000002283F834207B68012283F835207B683F
:10180000DB6B002B03D07B68DB6B786898477B68C9
:101810005B6D002B32D07B685B6D03F00103002B06
:1018200022D07B68052283F835207B681B681A6804
:101830007B681B6822F001021A60BB680133BB6041
:101840007A699A4207D37B681B681B6803F001031F
:10185000002BF2D100E000BF7B68002283F8342027
:101860007B68012283F835207B68DB6C002B05D078
:101870007B68DB6C7868984700E000BF1837BD468E
:1018800080BD00BF80B485B000AFF860B9607A60F9
:101890003B60FB681B681A68FB681B6822F48022A7
:1018A0001A60FB681B683A685A60FB689B68402BAB
:1018B00008D1FB681B687A689A60FB681B68BA6885
:1018C000DA6007E0FB681B68BA689A60FB681B680F
:1018D0007A68DA6000BF1437BD465DF8047B704754
:1018E00080B485B000AF78607B681B68DBB2103BCA
:1018F000144AA2FB03231B09FB60134AFB68134431
:101900001B781A467B68DA65FB68032B09D97B686C
:101910001B6823F47F7323F003031A1D7B689A6509
:1019200007E07B681B6823F47F7323F003037A6866
:1019300093657B689B6D18461437BD465DF8047B44
:10194000704700BFABAAAAAAF0E1000880B485B036
:1019500000AF78600023FB737B689B6ABB607B6889
:101960009B69002B1FD1BB68032B56D801A252F8EC
:1019700023F000BF85190008971900088519000891
:101980001B1A00087B68DB6A03F08073002B46D0CB
:101990000123FB7343E07B68DB6AB3F1C07F40D176
:1019A0000123FB733DE07B689B69B3F5005F21D1A8
:1019B000BB68032B37D801A252F823F0CD190008D9
:1019C000D3190008CD190008E51900080123FB739D
:1019D00030E07B68DB6A03F08073002B25D00123A5
:1019E000FB7322E07B68DB6AB3F1C07F1FD1012368
:1019F000FB731CE0BB68022B03D9BB68032B03D02D
:101A000018E00123FB7315E07B68DB6A03F0807349
:101A1000002B0ED00123FB730BE000BF0AE000BFD8
:101A200008E000BF06E000BF04E000BF02E000BF26
:101A300000E000BFFB7B18461437BD465DF8047B11
:101A4000704700BF80B489B000AF78603960002370
:101A50007B6100233B610023BB610023FB6165E1E7
:101A60000122FB6902FA03F37B613B681B687A6918
:101A700013403B613A697B699A4240F054813B686C
:101A80005B68012B0BD03B685B68022B07D03B687F
:101A90005B68112B03D03B685B68122B30D17B68ED
:101AA0009B68BB61FB695B00032202FA03F3DB4323
:101AB000BA691340BB613B68DA68FB695B0002FAF4
:101AC00003F3BA691343BB617B68BA699A607B68A8
:101AD0005B68BB610122FB6902FA03F3DB43BA696D
:101AE0001340BB613B685B681B0903F00102FB69A3
:101AF00002FA03F3BA691343BB617B68BA695A609F
:101B00007B68DB68BB61FB695B00032202FA03F3BD
:101B1000DB43BA691340BB613B689A68FB695B00B1
:101B200002FA03F3BA691343BB617B68BA69DA60EE
:101B30003B685B68022B03D03B685B68122B23D1A8
:101B4000FB69DA087B68083253F82230BB61FB6915
:101B500003F007039B000F2202FA03F3DB43BA6989
:101B60001340BB613B681A69FB6903F007039B00E4
:101B700002FA03F3BA691343BB61FB69DA087B68B5
:101B80000832B96943F822107B681B68BB61FB69A6
:101B90005B00032202FA03F3DB43BA691340BB6123
:101BA0003B685B6803F00302FB695B0002FA03F326
:101BB000BA691343BB617B68BA691A603B685B68AA
:101BC00003F08053002B00F0AE800023FB605D4BE0
:101BD0005B6C5C4A43F4804353645A4B5B6C03F484
:101BE0008043FB60FB68584AFB699B08023352F84C
:101BF0002330BB61FB6903F003039B000F2202FA51
:101C000003F3DB43BA691340BB617B684F4A9342DD
:101C100025D07B684E4A93421FD07B684D4A934241
:101C200019D07B684C4A934213D07B684B4A93424D
:101C30000DD07B684A4A934207D07B68494A934259
:101C400001D106230CE007230AE0052308E0042362
:101C500006E0032304E0022302E0012300E0002366
:101C6000FA6902F0030292009340BA691343BB6120
:101C70003549FB699B080233BA6941F823203A4B86
:101C80001B68BB613B69DB43BA691340BB613B68BE
:101C90005B6803F48033002B03D0BA693B691343BC
:101CA000BB61314ABB6913602F4B5B68BB613B6909
:101CB000DB43BA691340BB613B685B6803F40033E4
:101CC000002B03D0BA693B691343BB61264ABB6949
:101CD0005360254B9B68BB613B69DB43BA6913408A
:101CE000BB613B685B6803F48013002B03D0BA69C7
:101CF0003B691343BB611C4ABB6993601A4BDB68A9
:101D0000BB613B69DB43BA691340BB613B685B68FD
:101D100003F40013002B03D0BA693B691343BB6182
:101D2000114ABB69D360FB690133FB61FB690F2B6F
:101D30007FF696AE00BF00BF2437BD465DF8047B3A
:101D4000704700BF003802400038014000000240E8
:101D50000004024000080240000C02400010024053
:101D60000014024000180240003C014080B483B0DF
:101D700000AF78600B467B8013467B707B78002B2E
:101D800003D07A887B689A6103E07B881A047B68B9
:101D90009A6100BF0C37BD465DF8047B70470000B8
:101DA00080B584B000AF786039607B68002B01D1CA
:101DB0000123CCE0684B1B6803F00F033A689A429A
:101DC0000CD9654B3A68D2B21A70634B1B6803F0AA
:101DD0000F033A689A4201D00123B8E07B681B6880
:101DE00003F00203002B20D07B681B6803F0040380
:101DF000002B05D0594B9B68584A43F4E05393603D
:101E00007B681B6803F00803002B05D0534B9B68CD
:101E1000524A43F460439360504B9B6823F0F002B6
:101E20007B689B684D4913438B607B681B6803F09C
:101E30000103002B44D07B685B68012B07D1474B23
:101E40001B6803F40033002B19D101237FE07B686A
:101E50005B68022B03D07B685B68032B07D13F4B89
:101E60001B6803F00073002B09D101236FE03B4B8B
:101E70001B6803F00203002B01D1012367E0374BFD
:101E80009B6823F003027B685B68344913438B60D3
:101E9000FFF794F8F8600AE0FFF790F80246FB6855
:101EA000D31A41F28832934201D903234FE02B4BDE
:101EB0009B6803F00C027B685B689B009A42EBD145
:101EC000254B1B6803F00F033A689A420CD2224B51
:101ED0003A68D2B21A70204B1B6803F00F033A68BD
:101EE0009A4201D0012332E07B681B6803F00403AF
:101EF000002B08D0194B9B6823F4E0527B68DB6809
:101F0000164913438B607B681B6803F00803002BA2
:101F100009D0124B9B6823F460427B681B69DB008D
:101F20000E4913438B6000F021F802460B4B9B686F
:101F30001B0903F00F030A49CB5C22FA03F3094A99
:101F40001360094B1B681846FEF7F4FF0023184680
:101F50001037BD4680BD00BF003C02400038024043
:101F6000783601088C04002000000020B0B584B051
:101F700000AF002179600021F96000213960002163
:101F8000B9605249896801F00C0108290DD008296F
:101F900000F29480002902D0042903D08EE04C4B3B
:101FA000BB608EE04B4BBB608BE04849496801F059
:101FB0003F0179604549496801F48001002924D036
:101FC00042494968890908464FF0000140F2FF1470
:101FD0004FF0000500EA040201EA05033D4901FB58
:101FE00003F0002101FB02F144183A49A2FB010170
:101FF000631819467B681A464FF00003FEF7FCFD94
:1020000002460B461346FB604AE0304B5B689B0977
:102010001A464FF0000340F2FF104FF0000102EAB1
:10202000000403EA0105204629464FF000024FF064
:1020300000034B0143EAD063420110461946001BDE
:1020400061EB05014FF000024FF000038B0143EA02
:1020500090638201121A63EB01034FF000004FF00E
:102060000001D90041EA5271D00002460B46121914
:1020700045EB03034FF000004FF00001990241EAE5
:102080009251900202460B46104619467B681A464A
:102090004FF00003FEF7B0FD02460B461346FB600F
:1020A0000A4B5B681B0C03F0030301335B003B60CE
:1020B000FA683B68B2FBF3F3BB6002E0044BBB6021
:1020C00000BFBB6818461037BD46B0BD003802409F
:1020D0000024F400001BB70080B400AF034B1B6862
:1020E0001846BD465DF8047B704700BF8C04002095
:1020F00080B500AFFFF7F0FF0246054B9B689B0AD7
:1021000003F007030349CB5C22FA03F3184680BDB2
:10211000003802408836010880B500AFFFF7DCFFC9
:102120000246054B9B685B0B03F007030349CB5C3E
:1021300022FA03F3184680BD0038024088360108B1
:1021400080B588B000AF78600023BB6100237B615D
:1021500000233B610023FB617B681B6803F00103E4
:10216000002B10D07A4BD3F88C3023F0C0627B6800
:10217000DB6977491343C1F88C307B68DB69002B3E
:1021800001D10123FB617B681B6803F00203002B74
:1021900010D06F4BD3F88C3023F0C0527B681B6A91
:1021A0006B491343C1F88C307B681B6A002B01D14B
:1021B0000123FB617B681B6803F40053002B22D0D2
:1021C000634BD3F88C3023F440127B689B6C6049DE
:1021D0001343C1F88C307B689B6C002B01D1012329
:1021E000FB617B689B6CB3F5001F0CD1584BD3F897
:1021F0008C3023F4F8527B685B69013B1B02544925
:102200001343C1F88C307B681B6803F48043002BB8
:1022100022D04F4BD3F88C3023F440027B68DB6C28
:102220004B491343C1F88C307B68DB6C002B01D128
:102230000123FB617B68DB6CB3F5000F0CD1444BD1
:10224000D3F88C3023F4F8527B685B69013B1B02A6
:102250003F491343C1F88C307B681B6803F00803C7
:10226000002B00F08A800023FB60394B1B6C384A3E
:1022700043F080531364364B1B6C03F08053FB60B8
:10228000FB68344B1B68334A43F480731360FEF7DA
:1022900095FEB86108E0FEF791FE0246BB69D31ACD
:1022A000022B01D90323D1E12A4B1B6803F480736D
:1022B000002BF0D0264B1B6F03F440737B617B69CE
:1022C000002B2FD07B685B6A03F440737A699A42D3
:1022D00028D01F4B1B6F23F440737B611E4B0122E0
:1022E0001A601D4B00221A60194A7B691367184B4C
:1022F0001B6F03F00103012B14D1FEF75FFEB861E1
:102300000AE0FEF75BFE0246BB69D31A41F288324F
:10231000934201D9032399E10D4B1B6F03F0020394
:10232000002BEED07B685B6A03F44073B3F5407F0B
:1023300014D1074B9B6823F4F8127B685B6A23F087
:10234000704323F44073024913438B600CE000BFD9
:102350000038024000700040400E4742894B9B68A5
:10236000884A23F4F8139360864B1A6F7B685B6A84
:10237000C3F30B03834913430B677B681B6803F0AC
:102380000403002B04D07B6893F854207E4B1A6022
:102390007B681B6803F01003002B0AD0794BD3F83D
:1023A000943023F440027B68DB6A76491343C1F81A
:1023B00094307B681B6803F02003002B11D0714B15
:1023C000D3F8943023F000627B681B6B6D49134394
:1023D000C1F894307B681B6BB3F1006F01D101230E
:1023E000FB617B681B6803F04003002B0AD0654B40
:1023F000D3F8943023F080527B689B6A6149134381
:10240000C1F89430FB69012B04D07B681B68802BDA
:1024100040F0C6805D4B00221A60FEF7CFFDB86128
:1024200008E0FEF7CBFD0246BB69D31A022B01D9A7
:1024300003230BE1534B1B6803F00063002BF0D127
:10244000534A7B681B6D13607B681B6803F00103B4
:10245000002B03D07B68DB69002B23D07B681B68D3
:1024600003F00203002B03D07B681B6A002B19D0FA
:102470007B681B6803F02003002B04D07B681B6B78
:10248000B3F1006F0ED07B681B6803F04003002B94
:1024900019D07B689B6A002B15D17B681B6BB3F14D
:1024A000006F10D17B685A687B689B689B011A4358
:1024B0007B68DB681B061A437B681B691B07314975
:1024C0001343C1F884307B681B6803F40053002B6E
:1024D00003D07B689B6C002B09D07B681B6803F4DE
:1024E0008043002B26D07B68DB6C002B22D1254B50
:1024F000D3F884301B0E03F00F033B617B685A68EE
:102500007B689B689B011A433B691B061A437B68E7
:102510001B691B071B491343C1F88430194BD3F8BF
:102520008C3023F01F027B689B69013B15491343E4
:10253000C1F88C307B681B6803F08003002B10D03F
:102540007B685A687B689B689B011A437B68DB68E1
:102550001B061A437B681B691B070A491343C1F812
:1025600084300A4B01221A60FEF728FDB86111E0A1
:10257000FEF724FD0246BB69D31A022B0AD90323B6
:1025800064E000BF00380240E01147426800474263
:10259000D81047422F4B1B6803F00063002BE7D095
:1025A0007B681B6803F48073002B0AD0294BD3F897
:1025B0008C3023F000427B685B6B26491343C1F8E3
:1025C0008C307B681B6803F40073002B0AD0214B0E
:1025D000D3F88C3023F400427B689B6B1D49134376
:1025E000C1F88C307B681B6803F48063002B0AD031
:1025F000184BD3F88C3023F000427B68DB6B154915
:102600001343C1F88C307B681B6803F40063002B14
:102610000AD0104BD3F88C3023F480427B681B6CBB
:102620000C491343C1F88C307B681B6803F480535A
:10263000002B0AD0074BD3F8943023F040427B683C
:102640005B6C04491343C1F89430002318462037CB
:10265000BD4680BD0038024080B586B000AF7860CE
:1026600000233B617B681B6803F00103002B75D0DE
:10267000A24B9B6803F00C03042B0CD09F4B9B6870
:1026800003F00C03082B12D19C4B5B6803F480030E
:10269000B3F5800F0BD1994B1B6803F40033002B6B
:1026A0005BD07B685B68002B57D101230BE27B6812
:1026B0005B68B3F5803F06D1904B1B688F4A43F4AB
:1026C000803313601DE07B685B68B3F5A02F0CD1ED
:1026D0008A4B1B68894A43F480231360874B1B682D
:1026E000864A43F4803313600BE0844B1B68834AB3
:1026F00023F480331360814B1B68804A23F48023CA
:1027000013607B685B68002B13D0FEF757FC3861C1
:1027100008E0FEF753FC02463B69D31A642B01D94B
:102720000323D0E1754B1B6803F40033002BF0D07A
:1027300014E0FEF743FC386108E0FEF73FFC024678
:102740003B69D31A642B01D90323BCE16B4B1B6893
:1027500003F40033002BF0D100E000BF7B681B685E
:1027600003F00203002B63D0644B9B6803F00C035F
:10277000002B0BD0614B9B6803F00C03082B1CD182
:102780005E4B5B6803F48003002B16D15B4B1B6828
:1027900003F00203002B05D07B68DB68012B01D01E
:1027A000012390E1554B1B6823F0F8027B681B69FD
:1027B000DB00524913430B603AE07B68DB68002B77
:1027C00020D04F4B01221A60FEF7F8FB386108E079
:1027D000FEF7F4FB02463B69D31A022B01D903230F
:1027E00071E1464B1B6803F00203002BF0D0434B12
:1027F0001B6823F0F8027B681B69DB003F49134329
:102800000B6015E03E4B00221A60FEF7D7FB3861E3
:1028100008E0FEF7D3FB02463B69D31A022B01D92D
:10282000032350E1354B1B6803F00203002BF0D16A
:102830007B681B6803F00803002B30D07B685B6962
:10284000002B16D02F4B01221A60FEF7B7FB386120
:1028500008E0FEF7B3FB02463B69D31A022B01D90D
:10286000032330E1254B5B6F03F00203002BF0D014
:1028700015E0244B00221A60FEF7A0FB386108E047
:10288000FEF79CFB02463B69D31A022B01D90323B6
:1028900019E11A4B5B6F03F00203002BF0D17B6848
:1028A0001B6803F00403002B00F09F800023FB75DE
:1028B000124B1B6C03F08053002B0FD10023FB60E5
:1028C0000E4B1B6C0D4A43F0805313640B4B1B6C77
:1028D00003F08053FB60FB680123FB750A4B1B6808
:1028E00003F48073002B20D1074B1B68064A43F486
:1028F00080731360FEF762FB386110E0003802401D
:1029000000004742800E474200700040FEF756FB31
:1029100002463B69D31A022B01D90323D3E06C4B47
:102920001B6803F48073002BF0D07B689B68012B3D
:1029300006D1684B1B6F674A43F0010313671CE025
:102940007B689B68052B0CD1624B1B6F614A43F07F
:10295000040313675F4B1B6F5E4A43F00103136769
:102960000BE05C4B1B6F5B4A23F001031367594B71
:102970001B6F584A23F0040313677B689B68002B86
:1029800015D0FEF71BFB38610AE0FEF717FB024685
:102990003B69D31A41F28832934201D9032392E072
:1029A0004C4B1B6F03F00203002BEED014E0FEF73C
:1029B00005FB38610AE0FEF701FB02463B69D31ACA
:1029C00041F28832934201D903237CE0414B1B6FD3
:1029D00003F00203002BEED1FB7D012B05D13D4B13
:1029E0001B6C3C4A23F0805313647B689B69002B6B
:1029F00068D0384B9B6803F00C03082B60D07B68D1
:102A00009B69022B45D1344B00221A60FEF7D6FA9F
:102A1000386108E0FEF7D2FA02463B69D31A022B6E
:102A200001D903234FE02B4B1B6803F00073002BED
:102A3000F0D17B68DA697B681B6A1A437B685B6A42
:102A40009B011A437B689B6A5B08013B1B041A438A
:102A50007B68DB6A1B061A437B681B6B1B071D49DF
:102A600013434B601C4B01221A60FEF7A7FA386132
:102A700008E0FEF7A3FA02463B69D31A022B01D9FC
:102A8000032320E0134B1B6803F00073002BF0D0EE
:102A900018E0114B00221A60FEF790FA386108E046
:102AA000FEF78CFA02463B69D31A022B01D90323A5
:102AB00009E0084B1B6803F00073002BF0D101E024
:102AC000012300E0002318461837BD4680BD00BF33
:102AD00000700040003802406000474280B582B07C
:102AE00000AF78607B68002B01D1012383E07B6815
:102AF0005B7FDBB2002B05D17B6800221A777868F8
:102B000008F0C4F87B6802225A777B681B68CA22E7
:102B10005A627B681B6853225A62786800F026FC70
:102B20000346002B08D07B681B68FF225A627B6833
:102B300004225A7701235EE07B681B689B687A68F1
:102B4000126823F4E00323F0400393607B681B6862
:102B500099687B685A687B681B691A437B685B6964
:102B60001A437B681B680A439A607B681B687A6813
:102B7000D2681A617B681B6819697B689B681A04B4
:102B80007B681B680A431A617B681B68DA687B688C
:102B90001B6822F08002DA607B681B689B6803F088
:102BA0002003002B0ED1786800F0B8FB0346002B01
:102BB00008D07B681B68FF225A627B6804225A7720
:102BC000012318E07B681B681A6C7B681B6822F481
:102BD00080221A647B681B68196C7B689A697B6821
:102BE0001B680A431A647B681B68FF225A627B6871
:102BF00001225A77002318460837BD4680BD90B59C
:102C000087B000AFF860B9607A6000237B61FB6831
:102C10001B7F012B01D10223AAE0FB6801221A7756
:102C2000FB6802225A777B68002B26D1FB681B6861
:102C30009B6803F04003002B02D1BB680022DA70CE
:102C4000BB681B78184600F0BDFB03461C04BB683C
:102C50005B78184600F0B6FB03461B021C43BB68BA
:102C60009B78184600F0AEFB034644EA0302BB68BB
:102C7000DB781B0413437B6118E0FB681B689B68CF
:102C800003F04003002B02D1BB680022DA70BB685E
:102C90001B781A04BB685B781B021343BA689278EE
:102CA0001A43BB68DB781B0413437B61FB681B681A
:102CB000CA225A62FB681B6853225A62F86800F005
:102CC00055FB0346002B0BD0FB681B68FF225A62A2
:102CD000FB6804225A77FB6800221A77012347E039
:102CE000FB681A687B6903F07F3323F0FE431360AF
:102CF000FB681B689A68FB681B6822F480229A6054
:102D0000FB681B689968BB68DA68BB681B691A4373
:102D1000FB681B680A439A60FB681B68DA68FB68FB
:102D20001B6822F08002DA60FB681B689B6803F076
:102D30002003002B11D1F86800F0F0FA0346002BB5
:102D40000BD0FB681B68FF225A62FB6804225A778B
:102D5000FB6800221A7701230AE0FB681B68FF2248
:102D60005A62FB6801225A77FB6800221A77002317
:102D700018461C37BD4690BD80B586B000AFF860E0
:102D8000B9607A6000237B61FB681B689A6ABB6844
:102D90005A60FB681B681B69C3F30E02BB689A602C
:102DA000FB681B681B6803F07F3323F0FE437B61E5
:102DB0007B691B0CDBB203F03F03DAB2BB681A700D
:102DC0007B691B0ADBB203F07F03DAB2BB685A707F
:102DD0007B69DBB203F07F03DAB2BB689A707B6970
:102DE0001B0CDBB203F04003DAB2BB68DA707B681D
:102DF000002B1AD1BB681B78184600F001FB034674
:102E00001A46BB681A70BB685B78184600F0F8FA7F
:102E100003461A46BB685A70BB689B78184600F098
:102E2000EFFA03461A46BB689A7000231846183713
:102E3000BD4680BD90B587B000AFF860B9607A60DC
:102E400000237B61FB681B7F012B01D1022394E0EF
:102E5000FB6801221A77FB6802225A777B68002BF5
:102E60000ED1BB685B7803F01003002B08D0BB6861
:102E70005B7823F01003DBB20A33DAB2BB685A7016
:102E80007B68002B1CD1BB68DB78184600F09AFAEF
:102E900003461C04BB685B78184600F093FA0346AF
:102EA0001B021C43BB689B78184600F08BFA034654
:102EB00044EA0302BB681B785B0313437B610EE0AB
:102EC000BB68DB781A04BB685B781B021343BA68E3
:102ED00092781A43BB681B785B0313437B61FB68E2
:102EE0001B68CA225A62FB681B6853225A62F86840
:102EF00000F03CFA0346002B0BD0FB681B68FF2256
:102F00005A62FB6804225A77FB6800221A77012371
:102F100033E0FB681A687B6923F07F4323F0C0032A
:102F20005360FB681B68DA68FB681B6822F080024C
:102F3000DA60FB681B689B6803F02003002B11D14B
:102F4000F86800F0EBF90346002B0BD0FB681B6818
:102F5000FF225A62FB6804225A77FB6800221A7724
:102F600001230AE0FB681B68FF225A62FB6801220A
:102F70005A77FB6800221A77002318461C37BD4693
:102F800090BD80B586B000AFF860B9607A6000236C
:102F90007B61FB681B685B6823F07F4323F0C00301
:102FA0007B617B691B0CDAB2BB68DA707B691B0A38
:102FB000DBB203F01F03DAB2BB685A707B69DBB285
:102FC00003F03F03DAB2BB689A707B695B0BDBB23C
:102FD00003F00703DAB2BB681A707B68002B1AD1C2
:102FE000BB68DB78184600F00BFA03461A46BB684C
:102FF000DA70BB685B78184600F002FA03461A469E
:10300000BB685A70BB689B78184600F0F9F9034614
:103010001A46BB689A70002318461837BD4680BD13
:1030200090B589B000AFF860B9607A600023FB61A9
:103030000023BB61934B1B68934AA2FB0323DB0A6B
:103040004FF47A7202FB03F37B61FB681B7F012B59
:1030500001D1022311E1FB6801221A77FB680222E9
:103060005A777B68002B37D1FB681B689B6803F09D
:103070004003002B02D1BB680022DA70BB681B78CA
:10308000184600F09FF903461C04BB685B7818469D
:1030900000F098F903461B021C43BB689B78184656
:1030A00000F090F9034644EA0302BB68DB781B0496
:1030B00042EA0304BB6893F82030184600F082F916
:1030C00003461B0644EA0302BB68DB691A43BB687C
:1030D0005B691343FB6123E0FB681B689B6803F09B
:1030E0004003002B02D1BB680022DA70BB681B785A
:1030F0001A04BB685B781B021343BA6892781A43C0
:10310000BB68DB781B041A43BB6893F820301B06AE
:103110001A43BB68DB691A43BB685B691343FB61F5
:10312000BB685A68BB689B691343BB61FB681B683B
:10313000CA225A62FB681B6853225A62BB685B6AE8
:10314000B3F5807F41D1FB681B689A68FB681B68F8
:1031500022F480729A60FB681B68DB68DAB2FB6855
:103160001B6862F4C072DA607B695A1E7A61002BB8
:103170000BD1FB681B68FF225A62FB6803225A7757
:10318000FB6800221A77032377E0FB681B68DB6883
:1031900003F00103002BE7D0FB681B68FA69DA61D2
:1031A000FB681B68BA695A64FB681B689A68FB680D
:1031B0001B6842F480729A60FB681B689A68FB681F
:1031C0001B6842F480529A6040E0FB681B689A6872
:1031D000FB681B6822F400729A60FB681B68DB685E
:1031E000DAB2FB681B6862F42072DA607B695A1EEF
:1031F0007A61002B0BD1FB681B68FF225A62FB68C7
:1032000003225A77FB6800221A77032335E0FB6814
:103210001B68DB6803F00203002BE7D0FB681B6828
:10322000FA691A62FB681B68BA699A64FB681B68D2
:103230009A68FB681B6842F400729A60FB681B681E
:103240009A68FB681B6842F400529A600F4B1B6837
:103250000E4A43F4003313600C4B9B680B4A43F453
:1032600000339360FB681B68FF225A62FB680122EF
:103270005A77FB6800221A77002318462437BD4688
:1032800090BD00BF8C040020D34D6210003C014073
:1032900080B582B000AF78607B681B689B6803F4E0
:1032A0008053002B12D07B681B68DB6803F48073AB
:1032B000002B0BD0786807F01BFC7B681B68DB6871
:1032C000DAB27B681B6862F4C072DA607B681B68E4
:1032D0009B6803F40053002B12D07B681B68DB68EB
:1032E00003F40073002B0BD0786800F0A7F87B681C
:1032F0001B68DB68DAB27B681B6862F42072DA60F4
:10330000054B4FF400325A617B6801225A7700BFA7
:103310000837BD4680BD00BF003C014080B584B089
:1033200000AF78600023FB607B681B68DA687B680D
:103330001B6822F0A002DA60FDF740FEF86009E0A9
:10334000FDF73CFE0246FB68D31AB3F57A7F01D93C
:10335000032307E07B681B68DB6803F02003002B76
:10336000EED0002318461037BD4680BD80B584B02E
:1033700000AF78600023FB607B681B68DB6803F0AC
:103380004003002B19D17B681B684FF0FF32DA60D5
:10339000FDF714FEF86009E0FDF710FE0246FB6839
:1033A000D31AB3F57A7F01D9032307E07B681B6842
:1033B000DB6803F04003002BEED0002318461037E3
:1033C000BD4680BD80B485B000AF0346FB710023CD
:1033D000FB6005E0FB680133FB60FB790A3BFB7196
:1033E000FB79092BF6D8FB68DBB21B01DAB2FB795B
:1033F0001343DBB218461437BD465DF8047B7047B3
:1034000080B485B000AF0346FB710023FB60FB79FD
:103410001B09DBB21A4613469B0013445B00FB609A
:10342000FB7903F00F03DAB2FB68DBB21344DBB2C3
:1034300018461437BD465DF8047B704780B483B0EE
:1034400000AF786000BF0C37BD465DF8047B704765
:1034500080B582B000AF78607B68002B01D101237A
:1034600056E07B6800229A627B6893F85130DBB2A9
:10347000002B06D17B68002283F85020786807F083
:1034800021FC7B68022283F851207B681B681A6844
:103490007B681B6822F040021A607B685A687B6870
:1034A0009B681A437B68DB681A437B681B691A4375
:1034B0007B685B691A437B689B6903F400731A435A
:1034C0007B68DB691A437B681B6A42EA03017B68FD
:1034D0009A6A7B681B680A431A607B689B691B0CAD
:1034E00003F004017B685A6A7B681B680A435A60D0
:1034F0007B681B68DA697B681B6822F40062DA610A
:103500007B6800225A657B68012283F851200023E2
:1035100018460837BD4680BD80B588B000AFF8605A
:10352000B9603B601346FB800023FB77FB6893F890
:103530005030012B01D102231EE1FB68012283F8E8
:103540005020FDF73BFDB861FB88FB82FB6893F8D8
:103550005130DBB2012B02D00223FB7703E1BB68C1
:10356000002B02D0FB88002B02D10123FB77FAE06D
:10357000FB68032283F85120FB6800225A65FB6830
:10358000BA681A63FB68FA889A86FB68FA88DA8652
:10359000FB6800229A63FB6800229A87FB6800227E
:1035A000DA87FB6800225A64FB6800221A64FB6811
:1035B0009B68B3F5004F07D1FB681B681A68FB686E
:1035C0001B6842F480421A60FB681B681B6803F0AA
:1035D0004003402B07D0FB681B681A68FB681B6818
:1035E00042F040021A60FB68DB68B3F5006F4BD114
:1035F000FB685B68002B02D0FB8A012B3ED1FB6885
:103600001B6B1A88FB681B68DA60FB681B6B9A1CD3
:10361000FB681A63FB68DB8E9BB2013B9AB2FB68C6
:10362000DA862BE0FB681B689B6803F00203022B21
:1036300012D1FB681B6B1A88FB681B68DA60FB6899
:103640001B6B9A1CFB681A63FB68DB8E9BB2013B09
:103650009AB2FB68DA8611E0FDF7B0FC0246BB695E
:10366000D31A3A689A4203D83B68B3F1FF3F02D1BC
:103670003B68002B02D10323FB7774E0FB68DB8EF1
:103680009BB2002BCED14CE0FB685B68002B02D0D4
:10369000FB8A012B40D1FB681A6BFB681B680C335B
:1036A00012781A70FB681B6B5A1CFB681A63FB6864
:1036B000DB8E9BB2013B9AB2FB68DA862CE0FB689A
:1036C0001B689B6803F00203022B13D1FB681A6B83
:1036D000FB681B680C3312781A70FB681B6B5A1C52
:1036E000FB681A63FB68DB8E9BB2013B9AB2FB68F6
:1036F000DA8611E0FDF762FC0246BB69D31A3A682C
:103700009A4203D83B68B3F1FF3F02D13B68002BDC
:1037100002D10323FB7726E0FB68DB8E9BB2002BF4
:10372000CDD1BA693968F86800F0A4FB0346002BD4
:1037300002D0FB6820225A65FB689B68002B0AD1E7
:1037400000233B61FB681B68DB683B61FB681B680F
:103750009B683B613B69FB685B6D002B02D00123DA
:10376000FB7700E000BFFB68012283F85120FB6873
:10377000002283F85020FB7F18462037BD4680BDCD
:1037800080B588B002AFF860B9603B601346FB803B
:103790000023FB75FB685B68B3F5827F12D1FB6881
:1037A0009B68002B0ED1FB68042283F85120FA8815
:1037B0003B6800931346BA68B968F86800F0E9F806
:1037C0000346E2E0FB6893F85030012B01D102235D
:1037D000DBE0FB68012283F85020FDF7EFFB386146
:1037E000FB6893F85130DBB2012B02D00223FB754A
:1037F000C2E0BB68002B02D0FB88002B02D1012362
:10380000FB75B9E0FB68042283F85120FB680022B5
:103810005A65FB68BA689A63FB68FA889A87FB68FE
:10382000FA88DA87FB6800221A63FB6800229A860E
:10383000FB680022DA86FB6800221A64FB6800221B
:103840005A64FB689B68B3F5004F07D1FB681B689F
:103850001A68FB681B6822F480421A60FB681B68C8
:103860001B6803F04003402B07D0FB681B681A68F5
:10387000FB681B6842F040021A60FB68DB68002BA3
:1038800062D12EE0FB681B689B6803F00103012BEB
:1038900015D1FB681B6803F10C02FB689B6B127867
:1038A000D2B21A70FB689B6B5A1CFB689A63FB6868
:1038B000DB8F9BB2013B9AB2FB68DA8711E0FDF720
:1038C0007DFB02463B69D31A3A689A4203D83B68AB
:1038D000B3F1FF3F02D13B68002B02D10323FB75FC
:1038E0004AE0FB68DB8F9BB2002BCBD131E0FB6859
:1038F0001B689B6803F00103012B13D1FB681B6855
:10390000DA68FB689B6B92B21A80FB689B6B9A1C0F
:10391000FB689A63FB68DB8F9BB2013B9AB2FB6842
:10392000DA8711E0FDF74AFB02463B69D31A3A6891
:103930009A4203D83B68B3F1FF3F02D13B68002BAA
:1039400002D10323FB7517E0FB68DB8F9BB2002BD2
:10395000CDD13A693968F86800F027FA0346002BA0
:1039600002D0FB6820225A65FB685B6D002B02D0F9
:103970000123FB7500E000BFFB68012283F85120A2
:10398000FB68002283F85020FB7D18461837BD469F
:1039900080BD80B58CB000AFF860B9607A607B8084
:1039A0000123FB62002387F82B30FB6893F850302B
:1039B000012B01D102238AE1FB68012283F8502008
:1039C000FDF7FCFA7862FB6893F8513087F82330F2
:1039D000FB685B68FB617B887B8397F82330012B56
:1039E0000FD0FB69B3F5827F07D1FB689B68002B82
:1039F00003D197F82330042B03D0022387F82B3010
:103A00005BE1BB68002B05D07B68002B02D07B8874
:103A1000002B03D1012387F82B304EE1FB6893F88C
:103A20005130DBB2042B03D0FB68052283F8512010
:103A3000FB6800225A65FB687A689A63FB687A889B
:103A4000DA87FB687A889A87FB68BA681A63FB682A
:103A50007A88DA86FB687A889A86FB6800221A647C
:103A6000FB6800225A64FB681B681B6803F0400374
:103A7000402B07D0FB681B681A68FB681B6842F084
:103A800040021A60FB68DB68B3F5006F78D1FB6811
:103A90005B68002B02D07B8B012B66D1FB681B6B14
:103AA0001A88FB681B68DA60FB681B6B9A1CFB6852
:103AB0001A63FB68DB8E9BB2013B9AB2FB68DA8625
:103AC00053E0FB681B689B6803F00203022B1BD1C9
:103AD000FB68DB8E9BB2002B16D0FB6A012B13D147
:103AE000FB681B6B1A88FB681B68DA60FB681B6B42
:103AF0009A1CFB681A63FB68DB8E9BB2013B9AB28F
:103B0000FB68DA860023FB62FB681B689B6803F096
:103B10000103012B19D1FB68DB8F9BB2002B14D062
:103B2000FB681B68DA68FB689B6B92B21A80FB68C3
:103B30009B6B9A1CFB689A63FB68DB8F9BB2013B13
:103B40009AB2FB68DA870123FB62FDF737FA024677
:103B50007B6AD31ABA6B9A4207D8BB6BB3F1FF3FAB
:103B600003D0032387F82B30A7E0FB68DB8E9BB2E2
:103B7000002BA6D1FB68DB8F9BB2002BA1D17CE090
:103B8000FB685B68002B02D07B8B012B6BD1FB6841
:103B90001A6BFB681B680C3312781A70FB681B6B7E
:103BA0005A1CFB681A63FB68DB8E9BB2013B9AB21E
:103BB000FB68DA8657E0FB681B689B6803F002032A
:103BC000022B1CD1FB68DB8E9BB2002B17D0FB6A4B
:103BD000012B14D1FB681A6BFB681B680C3312783D
:103BE0001A70FB681B6B5A1CFB681A63FB68DB8E40
:103BF0009BB2013B9AB2FB68DA860023FB62FB684A
:103C00001B689B6803F00103012B19D1FB68DB8F54
:103C10009BB2002B14D0FB681B68DA68FB689B6BB7
:103C2000D2B21A70FB689B6B5A1CFB689A63FB68E4
:103C3000DB8F9BB2013B9AB2FB68DA870123FB6200
:103C4000FDF7BCF902467B6AD31ABA6B9A4203D8D5
:103C5000BB6BB3F1FF3F02D1BB6B002B03D103233E
:103C600087F82B3029E0FB68DB8E9BB2002BA2D1BA
:103C7000FB68DB8F9BB2002B9DD17A6AB96BF86829
:103C800000F0F8F80346002B06D0012387F82B300C
:103C9000FB6820225A6510E0FB689B68002B0BD163
:103CA00000237B61FB681B68DB687B61FB681B682A
:103CB0009B687B617B6900E000BFFB68012283F8A1
:103CC0005120FB68002283F8502097F82B301846CB
:103CD0003037BD4680BD80B584B000AFF860B960B4
:103CE0003B601346FB714CE03B68B3F1FF3F48D0AB
:103CF000FDF764F90246BB69D31A3A689A4202D9C1
:103D00003B68002B3DD1FB681B685A68FB681B6849
:103D100022F0E0025A60FB685B68B3F5827F11D144
:103D2000FB689B68B3F5004F04D0FB689B68B3F554
:103D3000806F07D1FB681B681A68FB681B6822F05C
:103D400040021A60FB689B6AB3F5005F0FD1FB6805
:103D50001B681A68FB681B6822F400521A60FB6833
:103D60001B681A68FB681B6842F400521A60FB6803
:103D7000012283F85120FB68002283F8502003239E
:103D80000FE0FB681B689A68BB681340BA689A42E8
:103D90000CBF01230023DBB21A46FB799A42A3D160
:103DA000002318461037BD4680BD80B586B002AFEF
:103DB000F860B9607A60FB685B68B3F5827F11D107
:103DC000FB689B68B3F5004F04D0FB689B68B3F5B4
:103DD000806F07D1FB681B681A68FB681B6822F0BC
:103DE00040021A60FB685B68B3F5827F2AD1FB68EA
:103DF0009B68B3F5806F12D07B680093BB6800228C
:103E00008021F868FFF767FF0346002B2DD0FB6881
:103E10005B6D43F02002FB685A65032326E07B6854
:103E20000093BB6800220121F868FFF754FF0346A6
:103E3000002B1AD0FB685B6D43F02002FB685A65CB
:103E4000032313E07B680093BB6800220121F8681C
:103E5000FFF741FF0346002B07D0FB685B6D43F083
:103E60002002FB685A65032300E000231846103740
:103E7000BD4680BD80B588B002AFF860B9607A6099
:103E80001B4B1B681B4AA2FB03235B0D4FF47A728A
:103E900002FB03F37B61FB685B68B3F5827F12D1A1
:103EA0007B680093BB6800228021F868FFF713FF4E
:103EB0000346002B16D0FB685B6D43F02002FB68C5
:103EC0005A6503230FE07B69002B0AD07B69013B15
:103ED0007B61FB681B689B6803F08003802BF2D03A
:103EE00000E000BF002318461837BD4680BD00BF64
:103EF0008C040020819F5E1680B582B000AF786090
:103F00007B68002B01D101231DE07B6893F83D30D5
:103F1000DBB2002B06D17B68002283F83C20786856
:103F200006F04EFF7B68022283F83D207B681A680A
:103F30007B6804331946104600F05EF97B68012265
:103F400083F83D20002318460837BD4680BD80B465
:103F500085B000AF78607B681B68DA687B681B6897
:103F600042F00102DA607B681B689B6803F007037C
:103F7000FB60FB68062B07D07B681B681A687B68B0
:103F80001B6842F001021A60002318461437BD4630
:103F90005DF8047B704780B582B000AF78607B68C5
:103FA0001B681B6903F00203022B22D17B681B688C
:103FB000DB6803F00203022B1BD17B681B686FF0E8
:103FC00002021A617B6801221A777B681B689B6971
:103FD00003F00303002B03D0786800F0EEF805E04F
:103FE000786800F0E0F8786800F0F1F87B6800226B
:103FF0001A777B681B681B6903F00403042B22D12A
:104000007B681B68DB6803F00403042B1BD17B680F
:104010001B686FF004021A617B6802221A777B68C2
:104020001B689B6903F44073002B03D0786800F091
:10403000C4F805E0786800F0B6F8786800F0C7F8D2
:104040007B6800221A777B681B681B6903F00803F2
:10405000082B22D17B681B68DB6803F00803082B60
:104060001BD17B681B686FF008021A617B68042211
:104070001A777B681B68DB6903F00303002B03D00E
:10408000786800F09AF805E0786800F08CF87868B5
:1040900000F09DF87B6800221A777B681B681B691B
:1040A00003F01003102B22D17B681B68DB6803F040
:1040B0001003102B1BD17B681B686FF010021A6174
:1040C0007B6808221A777B681B68DB6903F44073FE
:1040D000002B03D0786800F070F805E0786800F0F5
:1040E00062F8786800F073F87B6800221A777B68C2
:1040F0001B681B6903F00103012B0ED17B681B6851
:10410000DB6803F00103012B07D17B681B686FF0AC
:1041100001021A61786806F0A9FC7B681B681B69BC
:1041200003F08003802B0ED17B681B68DB6803F0F3
:104130008003802B07D17B681B686FF080021A61B7
:10414000786800F07FF97B681B681B6903F0400307
:10415000402B0ED17B681B68DB6803F04003402BCB
:1041600007D17B681B686FF040021A61786800F025
:1041700038F87B681B681B6903F02003202B0ED1E5
:104180007B681B68DB6803F02003202B07D17B686A
:104190001B686FF020021A61786800F049F900BFCF
:1041A0000837BD4680BD80B483B000AF786000BFE3
:1041B0000C37BD465DF8047B704780B483B000AF18
:1041C000786000BF0C37BD465DF8047B704780B453
:1041D00083B000AF786000BF0C37BD465DF8047B4C
:1041E000704780B483B000AF786000BF0C37BD4625
:1041F0005DF8047B7047000080B485B000AF786044
:1042000039607B681B68FB607B68404A934213D02F
:104210007B68B3F1804F0FD07B683D4A93420BD04F
:104220007B683C4A934207D07B683B4A934203D069
:104230007B683A4A934208D1FB6823F07003FB6025
:104240003B685B68FA681343FB607B682F4A9342C4
:104250002BD07B68B3F1804F27D07B682C4A9342E8
:1042600023D07B682B4A93421FD07B682A4A934213
:104270001BD07B68294A934217D07B68284A934217
:1042800013D07B68274A93420FD07B68264A93421B
:104290000BD07B68254A934207D07B68244A93421F
:1042A00003D07B68234A934208D1FB6823F4407310
:1042B000FB603B68DB68FA681343FB60FB6823F034
:1042C00080023B685B691343FB607B68FA681A6095
:1042D0003B689A687B68DA623B681A687B689A6216
:1042E0007B680A4A934203D07B680C4A934203D10D
:1042F0003B681A697B681A637B6801225A6100BFB8
:104300001437BD465DF8047B704700BF00000140D4
:104310000004004000080040000C00400004014080
:1043200000400140004401400048014000180040A6
:10433000001C00400020004080B485B000AF7860D1
:1043400039607B6893F83C30012B01D102235AE09D
:104350007B68012283F83C207B68022283F83D20A1
:104360007B681B685B68FB607B681B689B68BB6045
:10437000FB6823F07003FB603B681B68FA6813431B
:10438000FB607B681B68FA685A607B681B68214A7F
:10439000934222D07B681B68B3F1804F1DD07B68AD
:1043A0001B681D4A934218D07B681B681B4A9342C6
:1043B00013D07B681B681A4A93420ED07B681B6837
:1043C000184A934209D07B681B68174A934204D06D
:1043D0007B681B68154A93420CD1BB6823F08003AD
:1043E000BB603B685B68BA681343BB607B681B6853
:1043F000BA689A607B68012283F83D207B680022BE
:1044000083F83C20002318461437BD465DF8047B32
:10441000704700BF00000140000400400008004059
:10442000000C004000040140004001400018004022
:1044300080B483B000AF786000BF0C37BD465DF834
:10444000047B704780B483B000AF786000BF0C3746
:10445000BD465DF8047B704780B582B000AF7860E0
:104460007B68002B01D101233FE07B6893F8393052
:10447000DBB2002B06D17B68002283F838207868F5
:1044800006F0C6FC7B68242283F839207B681B6811
:10449000DA687B681B6822F40052DA60786800F002
:1044A0009DFC7B681B681A697B681B6822F490423C
:1044B0001A617B681B685A697B681B6822F02A02B4
:1044C0005A617B681B68DA687B681B6842F400529B
:1044D000DA607B680022DA637B68202283F8392067
:1044E0007B68202283F83A20002318460837BD460F
:1044F00080BD000080B586B000AFF860B96013469B
:10450000FB80FB6893F83930DBB2202B53D1BB68BA
:10451000002B02D0FB88002B01D101234CE0FB686B
:1045200093F83830012B01D1022345E0FB680122CA
:1045300083F83820BA68FB681A62FB68FA889A84A4
:10454000FB68FA88DA84FB680022DA63FB682122C0
:1045500083F83920FB681B6B194ADA63FB681B6B15
:10456000184A1A64FB681B6B174ADA64FB681B6BFA
:1045700000221A6507F108037B61FB68186B7B69F1
:104580001968FB681B6804331A46FB88FCF706FFB2
:10459000FB681B686FF040021A60FB68002283F81A
:1045A0003820FB681B685A69FB681B6842F0800270
:1045B0005A61002300E0022318461837BD4680BD2B
:1045C000E94900083B4A0008DB4A000880B586B08C
:1045D00000AFF860B9601346FB80FB6893F83A308F
:1045E000DBB2202B66D1BB68002B02D0FB88002BEE
:1045F00001D101235FE0FB6893F83830012B01D132
:10460000022358E0FB68012283F83820BA68FB686F
:104610009A62FB68FA889A85FB680022DA63FB6875
:10462000222283F83A20FB685B6B254ADA63FB6839
:104630005B6B244A1A64FB685B6B234ADA64FB6891
:104640005B6B00221A6507F108037B61FB68586BFE
:10465000FB681B68043319467B691A68FB88FCF702
:104660009DFE00233B61FB681B681B683B61FB6888
:104670001B685B683B613B69FB68002283F838205C
:10468000FB681B68DA68FB681B6842F48072DA60BA
:10469000FB681B685A69FB681B6842F001025A619B
:1046A000FB681B685A69FB681B6842F040025A614C
:1046B000002300E0022318461837BD4680BD00BF26
:1046C000574A0008BF4A0008DB4A000880B584B09A
:1046D00000AF78600023FB607B681B685B6903F0B8
:1046E0008003802B0CBF01230023DBB2FB607B68BF
:1046F00093F83930DBB2212B16D1FB68002B13D095
:104700007B681B685A697B681B6822F080025A61CB
:104710007B681B6B002B04D07B681B6B1846FCF777
:1047200095FE786800F023FA7B681B685B6903F0EC
:104730004003402B0CBF01230023DBB2FB607B68EE
:1047400093F83A30DBB2222B16D1FB68002B13D042
:104750007B681B685A697B681B6822F040025A61BB
:104760007B685B6B002B04D07B685B6B1846FCF7A7
:104770006DFE786800F011FA002318461037BD4628
:1047800080BD000080B588B000AF78607B681B6892
:104790001B68FB617B681B68DB68BB617B681B680F
:1047A0005B697B6100233B610023FB60FB6903F0D5
:1047B0000F033B613B69002B0DD1FB6903F0200324
:1047C000002B08D0BB6903F02003002B03D07868CE
:1047D00000F083FAD0E03B69002B00F0B0807B69E9
:1047E00003F00103002B05D1BB6903F49073002B88
:1047F00000F0A580FB6903F00103002B0AD0BB6920
:1048000003F48073002B05D07B68DB6B43F001025F
:104810007B68DA63FB6903F00403002B0AD07B6931
:1048200003F00103002B05D07B68DB6B43F0020231
:104830007B68DA63FB6903F00203002B0AD07B6913
:1048400003F00103002B05D07B68DB6B43F004020F
:104850007B68DA63FB6903F00803002B0FD0BB69A8
:1048600003F02003002B04D17B6903F00103002B2C
:1048700005D07B68DB6B43F008027B68DA637B68FA
:10488000DB6B002B77D0FB6903F02003002B07D0F4
:10489000BB6903F02003002B02D0786800F01DFAFA
:1048A0007B681B685B6903F04003402B0CBF01234E
:1048B0000023DBB2FB607B68DB6B03F00803002B9B
:1048C00002D1FB68002B31D0786800F066F97B6874
:1048D0001B685B6903F04003402B23D17B681B6896
:1048E0005A697B681B6822F040025A617B685B6BE7
:1048F000002B13D07B685B6B214A1A657B685B6B6E
:104900001846FCF713FE0346002B16D07B685B6B42
:104910001B6D7A68526B104698470EE0786800F07D
:1049200059F80AE0786800F055F806E0786800F079
:1049300051F87B680022DA631DE000BF1BE0FB69D1
:1049400003F08003002B08D0BB6903F08003002B29
:1049500003D0786800F053F90EE0FB6903F04003E0
:10496000002B09D0BB6903F04003002B04D078680A
:1049700000F09BF900E000BF2037BD4680BD00BFBE
:10498000D74B000880B483B000AF786000BF0C370D
:10499000BD465DF8047B704780B483B000AF78609B
:1049A00000BF0C37BD465DF8047B704780B483B010
:1049B00000AF786000BF0C37BD465DF8047B7047E0
:1049C00080B483B000AF786000BF0C37BD465DF89F
:1049D000047B704780B483B000AF786000BF0C37B1
:1049E000BD465DF8047B704780B584B000AF786049
:1049F0007B689B6BFB607B681B681B6803F48073A0
:104A0000002B13D1FB680022DA84FB681B685A690B
:104A1000FB681B6822F080025A61FB681B68DA6839
:104A2000FB681B6842F04002DA6002E0F868FFF7BA
:104A3000A9FF00BF1037BD4680BD80B584B000AF70
:104A400078607B689B6BFB60F868FFF7A5FF00BF91
:104A50001037BD4680BD80B584B000AF78607B68FC
:104A60009B6BFB607B681B681B6803F48073002BE7
:104A70001ED1FB680022DA85FB681B68DA68FB68D8
:104A80001B6822F48072DA60FB681B685A69FB6855
:104A90001B6822F001025A61FB681B685A69FB68B7
:104AA0001B6822F040025A61FB68202283F83A20FA
:104AB000F868FFF77BFF00BF1037BD4680BD80B5AB
:104AC00084B000AF78607B689B6BFB60F868FFF791
:104AD00077FF00BF1037BD4680BD80B584B000AF02
:104AE00078600023FB607B689B6BBB60BB681B68C6
:104AF0005B6903F08003802B0CBF01230023DBB232
:104B0000FB60BB6893F83930DBB2212B08D1FB681E
:104B1000002B05D0BB680022DA84B86800F027F8C3
:104B2000BB681B685B6903F04003402B0CBF01238B
:104B30000023DBB2FB60BB6893F83A30DBB2222B78
:104B400008D1FB68002B05D0BB680022DA85B86865
:104B500000F023F8BB68DB6B43F01002BB68DA633C
:104B6000B868FFF737FF00BF1037BD4680BD80B47F
:104B700083B000AF78607B681B68DA687B681B686D
:104B800022F0C002DA607B68202283F8392000BF5F
:104B90000C37BD465DF8047B704780B483B000AF2E
:104BA00078607B681B68DA687B681B6822F4907207
:104BB000DA607B681B685A697B681B6822F0010217
:104BC0005A617B68202283F83A2000BF0C37BD462B
:104BD0005DF8047B704780B584B000AF78607B6877
:104BE0009B6BFB60FB680022DA85FB680022DA849D
:104BF000F868FFF7EFFE00BF1037BD4680BD80B4F8
:104C000085B000AF78607B6893F83930DBB2212B38
:104C100044D17B689B68B3F5805F1AD17B681B6ABF
:104C2000FB60FB681B881A467B681B68C2F308029E
:104C30005A607B681B69002B05D17B681B6A9A1C34
:104C40007B681A620EE07B681B6A5A1C7B681A62DA
:104C500008E07B681B6A591C7A6811621A787B68C5
:104C60001B685A607B68DB8C9BB2013B9BB27A6805
:104C70001946D184002B0FD17B681B68DA687B68EA
:104C80001B6822F08002DA607B681B68DA687B6848
:104C90001B6842F04002DA60002300E0022318465D
:104CA0001437BD465DF8047B704780B582B000AF15
:104CB00078607B681B68DA687B681B6822F04002BA
:104CC000DA607B68202283F839207868FFF75AFE83
:104CD000002318460837BD4680BD80B584B000AFBC
:104CE00078607B6893F83A30DBB2222B71D17B6815
:104CF0009B68B3F5805F23D17B689B6AFB607B6810
:104D00001B69002B0ED17B681B685B689BB2C3F3E9
:104D100008039AB2FB681A807B689B6A9A1C7B68BE
:104D20009A6229E07B681B685B689BB2DBB29AB22F
:104D3000FB681A807B689B6A5A1C7B689A621BE03E
:104D40007B681B69002B0AD17B681B6858687B68ED
:104D50009B6A591C7A689162C2B21A700CE07B6837
:104D60001B685B68DAB27B689B6A581C796888624A
:104D700002F07F02D2B21A707B68DB8D9BB2013BDE
:104D80009BB27A681946D185002B20D17B681B68BD
:104D9000DA687B681B6822F02002DA607B681B6897
:104DA000DA687B681B6822F48072DA607B681B68B3
:104DB0005A697B681B6822F001025A617B682022D5
:104DC00083F83A207868FFF7F1FD002302E0002322
:104DD00000E0022318461037BD4680BD2DE9F04F94
:104DE000BDB000AFC7F8E400D7F8E4301B681B691A
:104DF00023F44050D7F8E430D968D7F8E4301A6883
:104E000040EA01031361D7F8E4309A68D7F8E43038
:104E10001B691A43D7F8E4305B691A43D7F8E430CA
:104E2000DB691343C7F8EC30D7F8E4301B68DB6864
:104E300023F4164121F00C01D7F8E4301A68D7F8B2
:104E4000EC300B43D360D7F8E4301B685B6923F484
:104E50004070D7F8E4309969D7F8E4301A6840EA2E
:104E600001035361D7F8E430DB69B3F5004F40F03C
:104E7000B681D7F8E4301A68704B9A4212D0D7F84E
:104E8000E4301A686E4B9A420CD0D7F8E4301A68B6
:104E90006C4B9A4206D0D7F8E4301A686A4B9A42B3
:104EA00040F0D680FDF738F9C7F8E800D7F8E830C9
:104EB0001C464FF0000522462B469118C7F8881073
:104EC0005B41C7F88C30D7E92223121945EB030365
:104ED0004FF000004FF00001D90041EA5271D000BC
:104EE00002460B461119C7F8D8106B41C7F8DC30E1
:104EF000D7F8E4305B681A464FF000039118C7F802
:104F000080105B41C7F88430D7E92023D7E9360108
:104F1000FBF772FE02460B464C4BA3FB02235B09D8
:104F20001E01D7F8E8301C464FF0000522462B46FC
:104F30009118B9675B41FB67D7E91E23121945EB4E
:104F400003034FF000004FF00001D90041EA527115
:104F5000D00002460B461119C7F8D0106B41C7F8B4
:104F6000D430D7F8E4305B681A464FF0000391184C
:104F700039675B417B67D7E91C23D7E93401FBF72D
:104F80003BFE02460B46314BA3FB02135B09642137
:104F900001FB03F3D31ADB0032332C4AA2FB0323B9
:104FA0005B095B0003F4F8731E44D7F8E830184639
:104FB0004FF0000102460B469418BC665B41FB664D
:104FC000D7E91A23121841EB03034FF000044FF006
:104FD0000005DD0045EA5275D40022462B46141820
:104FE000C7F8C8404B41C7F8CC30D7F8E4305B680D
:104FF0001A464FF00003911839665B417B66D7E98A
:105000001823D7E93201FBF7F7FD02460B460F4B99
:10501000A3FB02135B09642101FB03F3D31ADB003A
:1050200032330A4AA2FB03235B0903F00702D7F8D5
:10503000E4301B6832449A6088E200BF00100140EF
:105040000014014000180140001C01401F85EB5175
:10505000FDF74EF8C7F8E800D7F8E8301C464FF0E7
:10506000000522462B469118B9655B41FB65D7E9DF
:105070001623121945EB03034FF000004FF0000117
:10508000D90041EA5271D00002460B461119C7F807
:10509000C0106B41C7F8C430D7F8E4305B681A46DB
:1050A0004FF00003911839655B417B65D7E9142304
:1050B000D7E93001FBF7A0FD02460B46B94BA3FB35
:1050C00002235B091E01D7F8E8301C464FF00005AB
:1050D00022462B469118B9645B41FB64D7E9122341
:1050E000121945EB03034FF000004FF00001D90007
:1050F00041EA5271D00002460B461119C7F8B810A8
:105100006B41C7F8BC30D7F8E4305B681A464FF003
:105110000003911839645B417B64D7E91023D7E918
:105120002E01FBF769FD02460B469E4BA3FB0213C3
:105130005B09642101FB03F3D31ADB003233994A84
:10514000A2FB03235B095B0003F4F8731E44D7F84A
:10515000E83018464FF0000102460B469418BC6335
:105160005B41FB63D7E90E23121841EB03034FF0B9
:1051700000044FF00005DD0045EA5275D4002246D8
:105180002B461418C7F8B0404B41C7F8B430D7F8D5
:10519000E4305B681A464FF00003911839635B41B5
:1051A0007B63D7E90C23D7E92C01FBF725FD0246E9
:1051B0000B467C4BA3FB02135B09642101FB03F349
:1051C000D31ADB003233774AA2FB03235B0903F0D7
:1051D0000702D7F8E4301B6832449A60B6E1D7F88A
:1051E000E4301A68704B9A4212D0D7F8E4301A684B
:1051F0006E4B9A420CD0D7F8E4301A686C4B9A4246
:1052000006D0D7F8E4301A686A4B9A4240F0D4804E
:10521000FCF782FFC7F8E800D7F8E8301C464FF0EB
:10522000000522462B469118B9625B41FB62D7E923
:105230000A23121945EB03034FF000004FF0000161
:10524000D90041EA5271D00002460B4612EB040A23
:1052500043EB050BD7F8E4305B6818464FF00001CC
:105260004FF000024FF000038B0043EA907382007E
:1052700050465946FBF7C0FC02460B46494BA3FB80
:1052800002235B091E01D7F8E83018464FF00001F1
:1052900002460B4694183C625B417B62D7E90823C7
:1052A000121841EB03034FF000044FF00005DD003E
:1052B00045EA5275D40022462B461418C7F8A84078
:1052C0004B41C7F8AC30D7F8E4305B6818464FF074
:1052D00000014FF000024FF000038B0043EA90738F
:1052E0008200D7E92A01FBF787FC02460B462D4BCB
:1052F000A3FB02135B09642101FB03F3D31A1B0117
:105300003233284AA2FB03235B0903F0F0031E4457
:10531000D7F8E83018464FF0000102460B469418C3
:10532000BC615B41FB61D7E90623121841EB030323
:105330004FF000044FF00005DD0045EA5275D4003F
:1053400022462B461418C7F8A0404B41C7F8A4309A
:10535000D7F8E4305B6818464FF000014FF00002C8
:105360004FF000038B0043EA90738200D7E92801D5
:10537000FBF742FC02460B460A4BA3FB02135B09F8
:10538000642101FB03F3D31A1B013233054AA2FB4C
:1053900003235B0903F00F02D7F8E4301B683244A3
:1053A0009A60D3E01F85EB510010014000140140CA
:1053B00000180140001C0140FCF79AFEC7F8E80005
:1053C000D7F8E8301C464FF0000522462B469118CE
:1053D00039615B417B61D7E90423121945EB030373
:1053E0004FF000004FF00001D90041EA5271D000A7
:1053F00002460B4612EB040843EB0509D7F8E430EC
:105400005B6818464FF000014FF000024FF00003B8
:105410008B0043EA9073820040464946FBF7ECFB61
:1054200002460B464C4BA3FB02235B091E01D7F837
:10543000E83018464FF0000102460B469418BC6055
:105440005B41FB60D7E90223121841EB03034FF0E5
:1054500000044FF00005DD0045EA5275D4002246F5
:105460002B461418C7F898404B41C7F89C30D7F822
:10547000E4305B6818464FF000014FF000024FF037
:1054800000038B0043EA90738200D7E92601FBF703
:10549000B3FB02460B46304BA3FB02135B096421AE
:1054A00001FB03F3D31A1B0132332B4AA2FB032364
:1054B0005B0903F0F0031E44D7F8E83018464FF0BC
:1054C000000102460B4694183C605B417B60D7E9C3
:1054D0000023121841EB03034FF000044FF00005C6
:1054E000DD0045EA5275D40022462B461418C7F851
:1054F00090404B41C7F89430D7F8E4305B681846C9
:105500004FF000014FF000024FF000038B0043EA20
:1055100090738200D7E92401FBF76EFB02460B462D
:105520000D4BA3FB02135B09642101FB03F3D31AA8
:105530001B013233084AA2FB03235B0903F00F026D
:10554000D7F8E4301B6832449A60FFE700BFF437B5
:10555000BD46BDE8F08F00BF1F85EB5180B586B01A
:1055600002AF0346FB7107F10F02F91D41F28833C8
:10557000009301230348FEF70CFAFB7B1846103713
:10558000BD4680BDB007002080B584B000AF0346A3
:10559000FB8000224FF480511048FCF7E7FB03200A
:1055A000FFF7DCFFFB881B0A9BB2DBB21846FFF754
:1055B000D5FFFB88DBB21846FFF7D0FF0020FFF7CE
:1055C000CDFF0346FB7301224FF480510348FCF7E3
:1055D000CDFBFB7B18461037BD4680BD0004024062
:1055E00080B582B000AF03463960FB8013467B7103
:1055F00000224FF480511248FCF7B8FB0320FFF75C
:10560000ADFFFB881B0A9BB2DBB21846FFF7A6FF73
:10561000FB88DBB21846FFF7A1FF7B799AB241F213
:10562000883339680748FEF7ABF801224FF4805100
:105630000348FCF79BFB00BF0837BD4680BD00BF99
:1056400000040240B007002080B582B000AF0346DE
:105650003960FB8000224FF480511948FCF786FB2B
:105660000620FFF77BFF01224FF480511448FCF71E
:105670007DFB00224FF480511148FCF777FB02209C
:10568000FFF76CFFFB881B0A9BB2DBB21846FFF7E3
:1056900065FFFB88DBB21846FFF760FF3B681B78AD
:1056A0001846FFF75BFF01224FF480510448FCF7D6
:1056B0005DFB0620FBF78EFC00BF0837BD4680BDB2
:1056C0000004024080B582B000AF03463960FB8021
:1056D00013467B7100224FF480511B48FCF746FBB8
:1056E0000620FFF73BFF01224FF480511648FCF7DC
:1056F0003DFB00224FF480511348FCF737FB02209A
:10570000FFF72CFFFB881B0A9BB2DBB21846FFF7A2
:1057100025FFFB88DBB21846FFF720FF7B799AB2A2
:1057200041F2883339680948FDF7F6FE01224FF44B
:1057300080510548FCF71AFB0A20FBF74BFC00BF21
:105740000837BD4680BD00BF00040240B0070020FE
:1057500080B584B000AF78600B46FB700720FFF780
:1057600013FF03461A46554BDA710820FFF70CFF6A
:1057700003461A46514B1A72504B1B7AFA2B0AD128
:105780004E4BDB799AB2FB789BB212FB03F39BB2D0
:105790008033FB8109E0494B1B7A9AB2FB789BB2BC
:1057A00012FB03F39BB28033FB8101237B73FA89E5
:1057B0007B7B0133DB019A4203DB7B7B01337B7311
:1057C000F5E700BF7B7B0133DBB2DB01DAB2FB899B
:1057D000DBB2D31A3B733B7B1B2B35D900224FF432
:1057E00080513748FCF7C2FA0620FFF7B7FE0122C6
:1057F0004FF480513248FCF7B9FA00224FF480513F
:105800002F48FCF7B3FA0220FFF7A8FEFB891B0A1A
:105810009BB2DBB21846FFF7A1FEFB89DBB218464C
:10582000FFF79CFEFB789AB241F2883379682548ED
:10583000FDF772FE01224FF480512148FCF796FAE1
:105840000A20FBF7C7FB14E03A7BFB89796818460E
:10585000FFF738FF7B7B01339BB2DB0198B23B7BC8
:105860007A68D118FA783B7BD31ADBB21A46FFF775
:1058700029FF124B1B7AF92B0AD8104B1B7A0133E4
:10588000DAB20E4B1A7210490820FFF7DDFE11E064
:105890000A4BDB79F82B06D8084BDB790133DAB2F7
:1058A000064BDA7102E0054B0022DA710749072046
:1058B000FFF7CAFE00BF1037BD4680BDC4060020FA
:1058C00000040240B0070020CC060020CB060020D8
:1058D00090B585B000AF03463960FB711346BB71CC
:1058E0000720FFF751FE03461A46324BDA710820B3
:1058F000FFF74AFE03461A462E4B1A722D4B1B7AAF
:10590000FA799A4206D33B68FF221A703B68FF225D
:105910005A704AE0FB79274AD2791344F92B0DDDFE
:10592000FB79244AD2791344FA3B9AB2BB799BB2F1
:1059300012FB03F39BB28033FB811FE01D4BDB792D
:10594000F92B0DD1FB79002B0AD0FB79013B9AB2E0
:10595000BB799BB212FB03F39BB28033FB810DE05A
:10596000FB799AB2134BDB799BB213449AB2BB79A1
:105970009BB212FB03F39BB28033FB8100237B734A
:105980000FE07B7B9AB2FB89134499B27B7B3A6828
:10599000D4180846FFF7F8FD034623707B7B0133DC
:1059A0007B737A7BBB799A42EBD300BF1437BD4639
:1059B00090BD00BFC406002080B5A2B000AFFF2399
:1059C0007B6007F108037C220021184605F074FD76
:1059D00041F65833A7F88630B7F8863003F07F03D6
:1059E0009BB2002B05D1B7F88630DB09A7F88630CB
:1059F00009E0B7F88630DB09A7F88630B7F88630BB
:105A00000133A7F886300023A7F884300FE0B7F8F9
:105A1000843001339BB2DB019BB2391D80221846D2
:105A2000FFF750FEB7F884300133A7F88430B7F899
:105A30008420B7F886309A42E9D31C2200210A4814
:105A400005F03AFD094B0022DA71084B00221A7268
:105A500007490720FFF7F8FD06490820FFF7F4FD86
:105A600000BF8837BD4680BDD0060020C406002098
:105A7000CB060020CC06002080B582B000AF0346E4
:105A8000FB71FB79002B05D0012202210648FCF7AF
:105A90006DF904E0002202210348FCF767F900BF1A
:105AA0000837BD4680BD00BF0000024080B500AF92
:105AB000012204210A48FCF759F96420FBF78AFA0D
:105AC000002204210648FCF751F96420FBF782FA12
:105AD000012204210248FCF749F900BF80BD00BF44
