:020000040800F2
:1000000000000220A9700008CD6A0008D16A00082B
:10001000D56A0008D96A0008DD6A000800000000FF
:10002000000000000000000000000000E16A00087D
:10003000E56A000800000000E96A0008ED6A0008AF
:10004000F9700008F9700008F9700008F9700008EC
:10005000F9700008F9700008F9700008F9700008DC
:10006000F9700008F9700008F9700008F9700008CC
:10007000F9700008F9700008F9700008F9700008BC
:10008000F9700008F9700008F9700008F9700008AC
:10009000F9700008F9700008F9700008F97000089C
:1000A000F9700008F9700008F9700008F16A00089A
:1000B000FD6A0008F9700008F9700008F97000087E
:1000C000F9700008F9700008F9700008F97000086C
:1000D000F9700008096B0008F9700008F970000851
:1000E000F9700008F970000800000000F9700008BD
:1000F000F9700008F9700008F9700008F97000083C
:10010000F9700008F9700008F9700008F97000082B
:10011000156B0008F9700008F9700008F970000804
:10012000F9700008F9700008F9700008F97000080B
:10013000F9700008F9700008F9700008F9700008FB
:1001400000000000000000000000000000000000AF
:10015000F9700008F9700008F9700008F9700008DB
:10016000F9700008F9700008F9700008F9700008CB
:10017000F9700008F9700008F9700008000000002C
:10018000F9700008F9700008F9700008F9700008AB
:10019000F9700008F9700008F9700008F97000089B
:1001A000F9700008F9700008F9700008F97000088B
:1001B000F9700008F9700008F9700008F97000087B
:1001C000F9700008F9700008F9700008F97000086B
:1001D000F9700008F9700008F9700008F97000085B
:1001E000F9700008F9700008F9700008F97000084B
:1001F000F9700008F9700008F9700008F97000083B
:10020000F9700008F9700008F9700008F97000082A
:10021000F9700008F9700008F9700008F97000081A
:10022000F9700008F9700008F9700008000000007B
:10023000F9700008F970000800000000F97000086B
:10024000F9700008F9700008F9700008F9700008EA
:10025000F9700008F9700008F9700008F9700008DA
:10026000F9700008F9700008F9700008F9700008CA
:10027000F9700008F9700008F9700008000000002B
:10028000F970000800000000F9700008000000008C
:0802900000000000F9700008F5
:1002A00010B5054C237833B9044B13B10448AFF3B0
:1002B00000800123237010BD682101200000000090
:1002C00008B2000808B5034B1BB103490348AFF35C
:1002D000008008BD000000006C21012008B2000869
:1002E000034613F8012B002AFBD1181A0138704776
:1002F00001F0FF01102A2BDB10F0070F08D010F8D7
:10030000013B013A8B422DD010F0070F42B3F6D1DA
:10031000F0B441EA012141EA014122F007047FF0F3
:1003200000070023F0E80256083C85EA010586EA4A
:10033000010685FA47F5A3FA87F586FA47F6A5FA86
:1003400087F68EB9EED1F0BC01F0FF0102F0070292
:1003500032B110F8013B013A83EA010313B1F8D13D
:100360000020704701387047002D06BF354603381E
:10037000073815F0010F07D1013015F4807F02BF57
:10038000013015F4C03F0130F0BC0138704700BFA8
:1003900053B94AB9002908BF00281CBF4FF0FF31EC
:1003A0004FF0FF3000F06EB9ADF1080C6DE904CEEE
:1003B00000F006F8DDF804E0DDE9022304B0704740
:1003C0002DE9F047089D04468C46002B40F08380C1
:1003D0008A42174647D9B2FA82F242B1C2F12000EE
:1003E00024FA00F09140974040EA010C94404FEA13
:1003F0001748230CBCFBF8F61FFA87FE08FB16C152
:1004000043EA014306FB0EF1994209D9FB1806F1B4
:10041000FF3080F01981994240F21681023E3B4440
:100420005B1AA4B2B3FBF8F008FB103344EA0344B0
:1004300000FB0EFEA64509D93C1900F1FF3380F000
:100440000581A64540F2028102383C4440EA06405C
:10045000A4EB0E0400261DB1D4400023C5E90043DF
:100460003146BDE8F08702B9FFDEB2FA82F2002A17
:1004700050D1CB1B4FEA174E1FFA87F80126B3FB6A
:10048000FEFC210C0EFB1C3341EA034108FB0CF37C
:100490008B4207D979180CF1FF3002D28B4200F25F
:1004A000E9808446C91AA3B2B1FBFEF00EFB10111D
:1004B00043EA014408FB00F8A04507D93C1900F1C4
:1004C000FF3302D2A04500F2D9801846A4EB0804FD
:1004D00040EA0C40BFE78B4209D9002D00F0B18003
:1004E0000026C5E9000130463146BDE8F087B3FA81
:1004F00083F6002E4AD18B4202D3824200F2B880AA
:10050000841A61EB030101208C46002DA8D0C5E9B7
:10051000004CA5E7C2F1200320FA03F6974001FA48
:1005200002F04FEA174ED9403043030CB1FBFEF600
:100530001FFA87F80EFB161143EA014306FB08F188
:10054000994204FA02F409D9FB1806F1FF3C80F045
:100550008D80994240F28A80023E3B445B1A81B210
:10056000B3FBFEF00EFB103341EA034100FB08F33E
:100570008B4207D9791800F1FF3C73D28B4271D9B5
:1005800002383944CB1A40EA064678E7C6F1200C17
:1005900003FA06F422FA0CF31C4320FA0CF701FAD2
:1005A00006F34FEA144E21FA0CF11F433B0CB1FB4A
:1005B000FEF91FFA84F80EFB191143EA014109FB09
:1005C00008FA8A4502FA06F200FA06F308D9611819
:1005D00009F1FF3048D28A4546D9A9F102092144E0
:1005E000A1EB0A01BFB2B1FBFEF00EFB101147EA0E
:1005F000014700FB08F8B84507D9E71900F1FF31BA
:100600002ED2B8452CD90238274440EA0940A7EB3E
:100610000807A0FB02894F45C64649461AD317D0A2
:100620005DB1B3EB0E0267EB010707FA0CFCF24079
:100630004CEA0202F740C5E9002700263146BDE832
:10064000F0872E4628460BE70646E9E61846FDE603
:100650004345E5D2B8EB020E69EB04010138DFE750
:100660000846D2E760468DE78146B9E7664675E7FA
:1006700030464AE7ACF1020C394413E702383C44F7
:1006800024E700BF704700BF38B50D4D4FF47A73B3
:100690000C4A044629781268B3FBF1F3B2FBF3F07D
:1006A00000F094FE08B90F2C01D9012038BD0022BA
:1006B00021464FF0FF3000F041FE00206C6038BD55
:1006C000000000208C1F0120032010B500F022FE46
:1006D0000020FFF7D9FF10B10124204610BD0446C9
:1006E00006F0E2F9204610BD034A044B11681B785E
:1006F0000B441360704700BF8421012000000020DC
:10070000014B1868704700BF8421012038B50446AA
:10071000FFF7F6FF0546631C02D0044B1B781C4410
:10072000FFF7EEFF431BA342FAD338BD00000020C1
:10073000F0B5002383B00193002800F0F780456DE9
:100740000446002D00F0D680226893689E0003D5F1
:10075000936823F0005393609368DD0015D4A24B97
:10076000A2481B689168A0FB030341F08051DB0C99
:10077000916003EB83035B000193019B2BB1019B11
:10078000013B0193019B002BF9D19368D80040F104
:100790009E80636D0020D90600F1A58093685B07F9
:1007A00000F1A180636D924943F002038A426365C0
:1007B00000F0A6808F4B9A4200F0A280936803F06D
:1007C0000303012B00F0DA8089498B6803F00303EF
:1007D000012B00F0E8808849864DAB6803F00303E5
:1007E000012B00F0AE808B68656823F47C132B43EB
:1007F0008B604FF4005595FAA5F54FF48033B5FAA8
:1008000085F5277F93FAA3F3B3FA83F394F815C021
:10081000216B012FA6680CFA05FC07FA03F541EAE3
:10082000060343EA0C0343EA050309D14FF46025AC
:1008300095FAA5F5216AB5FA85F50139A9400B436A
:10084000616A012903D0A56A0DB129430B43D5681C
:100850006A4929400B43D360936813F00C0F27D1EA
:100860004FF4804191FAA1F1654BB1FA81F1D6685C
:10087000257D3340E66A05FA01F133430B43D3602B
:1008800094F83930012B7ED0136923F001031361F2
:100890001369616B23F070430B43136194F8383094
:1008A000012B93680CBF43F4807323F4807393602F
:1008B000E368012B3DD0136B23F00F031363636DCB
:1008C00023F0030343F00103636503B0F0BD636DE0
:1008D000012043F010036365A36D0343A365636DBB
:1008E000D9067FF55BAF636D012043F010036365AC
:1008F00003B0F0BD04F002FFA56584F8505023E773
:10090000936803F00303012B33D0394B9A4222D171
:1009100038498B6803F00303012B17D039498B68E2
:1009200003F00303012B47D037495CE7012003B0F4
:10093000F0BD116BA36921F00F01013B0B43136361
:10094000BDE72B68DD073FF554AF4CE70B68DE07CA
:100950003FF54FAFE2E726498B6803F00303012B15
:1009600033D028498B6803F00303012B32D026498A
:1009700032E71368DF073FF53CAFC6E71368DB07D4
:100980003FF537AF20E71569204ED4E910312E40EE
:10099000A56C0B43E16B33432B4343EA014343F024
:1009A0000103136174E70B68DE073FF522AF01F125
:1009B000C05101F586410FE70B68DD073FF519AF20
:1009C00001F16841A1F574510DE70B68DB073FF5B4
:1009D00010AFC6E70B68DF073FF50BAF01F16841C9
:1009E000A1F57451F8E600BF8C1F012083DE1B4384
:1009F00000200240002102400063025803C0F0FFC3
:100A0000FCBFFFFF00600258002302401EF800FCFC
:100A10000368186C704700BF2DE9F041002384B0D3
:100A2000CF68039390F85030012B00F04A810246C2
:100A30000120136882F850009C68650759D40E683D
:100A4000DD694C68B040042C45EA0005DD6100F228
:100A5000CB80D3F830C04FF4F86595FAA5FEBEFA06
:100A60008EFE95FAA5F54FF01F08B5FA85F504FB43
:100A70000EFE04FB05F408FA0EF506FA04F42CEA5F
:100A800005052C431C639C6814F00C0F58D1092EEB
:100A900000F2D080D3F814C0382494FAA4FEBEFA31
:100AA0008EFE94FAA4F44FF00708B4FA84F406FB1F
:100AB0000EFE8D6806FB04F408FA0EFEA5402CEA33
:100AC0000E042C435C614D69DC680195C4F382041B
:100AD0000D69640005F1FF3C019DA5402C46BCF169
:100AE000030F00F2E681DFE81CF00E008C016E01BE
:100AF0004F01536D43F020035365002382F85030BB
:100B000004B0BDE8F0811D6E4FF0F84C9CFAACFCCF
:100B100005F00045BCFA8CFC2C4306FA0CFC44EAB8
:100B20000C041C661C690D7E24F400642C431C61BB
:100B30004C7E002C00F003821C6E44F000441C66C6
:100B40009C6804F00304012C00F0B680B7F1804FDC
:100B500000F0BB80D3F8C01021EA0000C3F8C00049
:100B6000C049C148591AC14CC14DB1FA81F1490976
:100B7000834214BF084641F0010000280CBF002149
:100B80002546122E51D0112E40F0C280AC68E401EF
:100B90004ED49C6804F00304012C00F083800029EB
:100BA00040F06A81002840F04A81AE48816801F037
:100BB0000301012900F05181AB48816801F0030174
:100BC000012900F06781122EAA4900F0BD81112E83
:100BD00000F0D6818B422BD1132E29D1AB68002097
:100BE00043F48003AB6088E7092C3FD90E2C00F258
:100BF000AF80D3F838C04FF4F86595FAA5FEBEFA79
:100C00008EFE0A3C95FAA5F54FF01F08B5FA85F55A
:100C100004FB0EFE04FB05F408FA0EF506FA04F4D4
:100C20002CEA05052C439C632DE7AC682702B0D560
:100C3000002062E7D3F818C0382595FAA5FEBEFA61
:100C40008EFEA6F10A0495FAA5F54FF00708B5FA4D
:100C500085F504FB0EFE04FB05F48D6808FA0EFE14
:100C6000A5402CEA0E042C439C612CE7D3F834C039
:100C70004FF4F86595FAA5FEBEFA8EFE053C95FA8E
:100C8000A5F54FF01F08B5FA85F504FB0EFE04FB31
:100C900005F408FA0EF506FA04F42CEA05052C43CF
:100CA0005C63F0E61C68E4077FF579AF536D0120C3
:100CB00043F02003536520E71C68E4077FF546AF47
:100CC000B6E7022004B0BDE8F081D3F8C040082E9A
:100CD00040EA0400C3F8C00020D99D69382494FA82
:100CE000A4F7B7FA87F7A6F1090094FAA4F44FF035
:100CF000070C00FB07F7B4FA84F489680CFA07F7CD
:100D000000FB04F0814025EA07000843986127E7CB
:100D1000132E8DD1AC6867028AD43AE75C6938201B
:100D200090FAA0F5B5FA85F5013690FAA0F00727FC
:100D300006FB05F5B0FA80F0896807FA05F506FBB1
:100D400000F601FA06F624EA0501314359616FE71E
:100D5000D3F83CC04FF4F86595FAA5FEBEFA8EFEB6
:100D60000F3C95FAA5F54FF01F08B5FA85F504FB81
:100D70000EFE04FB05F408FA0EF506FA04F42CEA5C
:100D800005052C43DC637EE6DD6E4FF0F84C9CFAE3
:100D9000ACFC05F00045BCFA8CFC2C4306FA0CFCBC
:100DA00044EA0C04DC661C690D7E24F4804444EAA9
:100DB000C5041C614C7E002C00F0BC80DC6E44F04D
:100DC0000044DC66BCE69D6E4FF0F84C9CFAACFC2F
:100DD00005F00045BCFA8CFC2C4306FA0CFC44EAF6
:100DE0000C049C661C690D7E24F4005444EA8504BE
:100DF0001C614C7E002C52D09C6E44F000449C66DA
:100E00009EE65D6E4FF0F84C9CFAACFC05F0004598
:100E1000BCFA8CFC2C4306FA0CFC44EA0C045C661D
:100E20001C690D7E24F4805444EA45041C614C7E08
:100E3000002C39D05C6E44F000445C6680E60948C2
:100E4000816801F00301012900F0A8800948816848
:100E500001F0030101297FF4AFAE0168C8073FF537
:100E600025AFA9E6002002400021024000230240F5
:100E700000630258006002584B48816801F003018A
:100E8000012900F086804948816801F003010129A9
:100E90007FF499AE0168C9073FF508AF93E69C6EF1
:100EA00024F000449C664BE65C6E24F000445C66D3
:100EB00046E61D6E4FF0F84494FAA4F4B4FA84F4B4
:100EC00005F0F84506FA04F4A54203D11C6E24F09F
:100ED00000441C665D6E4FF0F84494FAA4F4B4FA32
:100EE00084F405F0F84506FA04F4A54203D15C6EDB
:100EF00024F000445C669D6E4FF0F84494FAA4F42C
:100F0000B4FA84F405F0F84506FA04F4A54203D1D6
:100F10009C6E24F000449C66DD6E4FF0F84494FA19
:100F2000A4F4B4FA84F405F0F84506FA04F4A542F2
:100F30007FF406AEDC6E24F00044DC6600E61C6E36
:100F400024F000441C66FBE58B427FF471AE184B25
:100F500018481B68A968A0FB030341F40001DB0CDF
:100F6000A960C3EB0313DB000393039B002B3FF447
:100F70005FAE039B013B0393039B002BF9D157E624
:100F80008B427FF455AEAB68002043F08073AB60BA
:100F9000B3E50168CF073FF589AE74E70168CC0778
:100FA0003FF584AE52E700BF0021024000600258C6
:100FB0008C1F012083DE1B43026838B5936804460A
:100FC00003F00303012B23D09168144B194208D07E
:100FD000636D012043F010036365A36D0343A365B4
:100FE00038BD936843F001039360FFF789FB054622
:100FF00008E09A6842F001029A60FFF781FB431B08
:10100000022BE5D823681A68D207F2D5002038BD34
:101010001368D907D8D50020F9E700BF3F0000804A
:1010200038B503689D6815F0040554D190F8503028
:101030000446012B4FD0012380F85030FFF7BCFF4E
:10104000002845D1636DDB0447D4A065616D2E4A4D
:1010500023680A402D492E4D591A42F48072AB4242
:10106000B1FA81F162654FEA511104D019B9294AE8
:101070009268D50603D1626D22F480126265264A19
:101080001C2593421D602DD061BB02F16842A2F580
:1010900074529168C90625D0916801F01F01052995
:1010A00020D0926802F01F02092A1BD0636D174AF4
:1010B00043F480136365D3689B0105D5636D23F406
:1010C000405343F480536365002384F8503038BDA7
:1010D00084F8505038BD022038BDA36D23F00603BC
:1010E000A365B3E7DA68920105D5626D22F4405238
:1010F00042F480526265002284F850209A6842F0DF
:1011000004029A6038BD00BFFEF0FFFF00200240DD
:10111000002102400023024000600258026838B5F6
:10112000936803F00303012B01D0002038BD116840
:10113000C907FAD59168044601F00D01012909D0CB
:10114000426D184642F010026265A36D43F0010340
:10115000A36538BD9368032143F0020393601160D7
:10116000FFF7CEFA054623689B68DB07DDD5FFF75E
:10117000C7FA401B0228F6D9636D012043F0100323
:101180006365A36D0343A36538BD00BFF8B590F850
:101190005030012B37D0012305460E46174680F804
:1011A0005030FFF7BBFF30BB696D4FF47A431C4AE8
:1011B0002C680A4042F002026A65A26822F080426E
:1011C0001743A760A16821F480310E43A660A2688E
:1011D00042F00042A26001E0013B16D0A268002A62
:1011E000FADB6B6D23F0030343F001036B6500230F
:1011F00085F85030F8BD6B6D43F010036B6500232C
:1012000085F85030F8BD0220F8BD6A6D012085F8E0
:10121000503022F0120343F010036B65F8BD00BF9D
:10122000FDEEFFFF70B490F850200D68012A3ED00B
:101230000346344C01201A6883F85000A24208D0BB
:101240005A6D002142F0200283F850105A6570BC9C
:1012500070479068400709D55A6D012042F020027E
:101260005A65002283F8502070BC70472648806879
:101270004007F1D4F5B1254C4E68A06820F44040F9
:101280003043A060906800F00300012836D01E486B
:10129000826802F00302012A28D08A6800201B4CD1
:1012A00015431B4AA1680A401543A560D9E70220EF
:1012B00070BC70471548816821F440418160916895
:1012C00001F00301012915D00F498A6802F00302D9
:1012D000012A06D00D4900200D4A8C6822408A6000
:1012E000BFE70A68D407F5D50020BAE70268D60739
:1012F000FAD4D2E71268D507F6D4E5E71268D20728
:10130000C5D5F1E700200240002102400023024041
:10131000E0F0FFFF07490002074BCA6800F4E060F5
:1013200010B44FF6FF0422405DF8044B1043034312
:10133000CB60704700ED00E00000FA05194BDB6858
:10134000C3F3022330B4C3F107051C1D042D28BFCD
:101350000425062C19D9033B4FF0FF349C4022EAA8
:1013600004024FF0FF34002804FA05F421EA0401D6
:1013700001FA03F141EA02010ADB09010A4BC9B291
:10138000034483F8001330BC704700221346E8E79B
:1013900000F00F000901054BC9B20344197630BCB7
:1013A000704700BF00ED00E000E100E0FCEC00E071
:1013B000002807DB00F01F0101234009024A8B408F
:1013C00042F82030704700BF00E100E00138B0F182
:1013D000807F0DD2074B0022072130B4F025064C48
:1013E0005860104684F823509A60196030BC7047EA
:1013F0000120704710E000E000ED00E088B110B57A
:101400000379044603F0FF023BB1002302210122CD
:10141000217118462361227110BD427104F0C4FA93
:10142000F3E70120704700BF4279012A25D0034627
:10143000012200688A4010B402241C71046822430F
:101440000260026879B902F03E02022A03D14268C2
:1014500042F001024260002201215A7110461971C6
:101460005DF8044B704702F47812B2F5003FF2D1F8
:10147000426842F002024260EDE70220704700BF7E
:1014800010B4006883B000240194019051B901990F
:1014900008310A440192019A0020136003B05DF8FC
:1014A000044B7047019914310A440192F3E700BFDD
:1014B0002DE9F04143790F68012B7ED015460223B8
:1014C0000122042F04460E46427103713ED0036888
:1014D0003269012A30D0D6F80CC00722B1684FF02B
:1014E000000E02FA05F0DA6B41EA0C01766822EA96
:1014F00000024FF48040394340F6FE77A840AE40EA
:10150000A940AF404FF0010C1143C022D963AA405B
:10151000196821EA000170461960196821EA07017B
:10152000314319601D6825EA02051D6084F804C076
:1015300084F805E0BDE8F0811F20996B7269A8402E
:10154000AA4021EA00010A439A63C4E7D5B9FFF72C
:10155000D7F8DFF86C80074604E0FFF7D1F8C01B2E
:10156000012821D823685B6B13EA080FF5D101200D
:10157000FFF7CCF82368B2691A640DE0FFF7C0F8F2
:10158000012811D823685B6B002BF7DB0120FFF7E4
:10159000BDF82368B2695A643768D6E90712A940D2
:1015A000AA409964DA6493E72369032243F00803AD
:1015B000104623612271BDE8F0810220BDE8F08170
:1015C00000800020002844D090F835200346022AED
:1015D0000ED1026820491144B1F5956F0CD8042151
:1015E000002083F83510136823F00103136070475F
:1015F000802201205A6570471068012120F00E00FA
:1016000070B5DD6D1C6E1060A94010685D6E20F035
:101610000100124E10602268D86E22F4807222609F
:1016200071609A6E6A6030B10268196F5C6F22F463
:10163000807202604C60002401211A6D83F83440EE
:1016400083F835101AB118469047204670BD1046F1
:1016500070BD0120704700BFF0FFFDBF005402586D
:101660002DE9F04F002383B0DFF83C820D68DFF8EE
:101670003CE203E00133102B00F0C08001229A40CD
:1016800032EA050402EA050CF4D14C6824F0100794
:10169000022F40F0B680DF0803F0070A4FF00F0B6F
:1016A0000E6900EB87074FEA8A0AD7F820900BFAF9
:1016B0000AFB06FA0AF64FEA430A29EA0B094FF039
:1016C000030B46EA09090BFA0AF604EA0B0BC7F802
:1016D00020906FEA060907680BFA0AFB27EA06065C
:1016E0004BEA060606608768C4F3001607EA090B92
:1016F000CF689E4007FA0AF747EA0B0787604768FA
:1017000027EA020216434660C668E7008A6806EACE
:10171000090902FA0AF242EA0902C260AAD5D8F817
:10172000F47023F0030903F003020F2647F00207C9
:1017300009F1B0499200C8F8F47009F58069D8F849
:10174000F47006FA02FA07F0020701974D4F019E66
:10175000B842D9F8086026EA0A0620D007F5806763
:10176000B84266D0484FB84268D0484FB8426AD0B5
:10177000474FB8426CD0474FB84273D0464FB8423B
:1017800075D0464FB84268D0454FB84274D0454FE7
:10179000B8420CBF09270A2707FA02F21643C9F814
:1017A00008606FEA0C07DEF80020E60303F101038E
:1017B00054BF3A404CEA0202CEF80020A203DEF801
:1017C00004604FF0B04254BF3E404CEA0606CEF8EB
:1017D00004601668E2024FF0B04254BF3E404CEA4B
:1017E0000606A4024FF0B0441660526854BF3A4057
:1017F0004CEA0202102B62607FF440AF03B0BDE8F8
:10180000F08F4FEA430A4FF00309D0F800B0013FD0
:1018100004EA090609FA0AF9012F2BEA090B06FA6C
:101820000AF66FEA090946EA0B0606603FF66CAF56
:1018300059E7012707FA02F21643B0E7022707FA31
:1018400002F21643ABE7032707FA02F21643A6E7B4
:10185000042707FA02F21643A1E7072707FA02F264
:1018600016439CE7052707FA02F2164397E7062777
:1018700007FA02F2164392E7082707FA02F2164324
:101880008DE700BF0000025800080258000C025803
:10189000001002580014025800180258001C025888
:1018A00000200258002402580044025880000058CA
:1018B0000AB1018370474183704700BFF8B50368E0
:1018C0000446D90730D5AE490A6902F03802102A19
:1018D00000F0ED800A6902F03802182A00F0E18079
:1018E0006368B3F5803F00F03A81002B00F0798106
:1018F000B3F5A02FA24B1A6800F0C58122F4803204
:101900001A601A6822F480221A60FEF7F9FE9C4ED3
:10191000054605E0FEF7F4FE401B642800F25F81F7
:1019200033689B03F6D52368980731D5944B1A6921
:1019300012F0380F00F0CA801A6902F03802182A33
:1019400000F0C080E268002A00F089818C490B68B1
:101950000E4623F0190313430B60FEF7D1FE054634
:1019600005E0FEF7CDFE401B022800F23881336807
:101970005F07F6D571684FF47C3393FAA3F3B3FA9B
:1019800083F2236921F47C3193400B437360236815
:10199000D90655D41D0717D56369002B00F0B18017
:1019A000774B5A6F1E4642F001025A67FEF7A8FEB7
:1019B000054605E0FEF7A4FE401B022800F20F8159
:1019C000736F9807F6D523689A0617D5A369002B7D
:1019D00000F01E816A4B1A681E4642F480521A605B
:1019E000FEF78EFE054605E0FEF78AFE401B022844
:1019F00000F2F58033689F04F6D52368590700F19B
:101A0000B480636AD3B15E4A116901F038011829C4
:101A100056D0022B1368154623F08073136000F034
:101A20003A81FEF76DFE044605E0FEF769FE001BF5
:101A3000022800F2D4802B689B01F6D40020F8BD68
:101A40004F490A6902F03802082A72D00A6902F086
:101A50003802182A68D0E369002B00F0EC80484B6C
:101A60001A681E4642F080021A60FEF749FE0546DB
:101A700005E0FEF745FE401B022800F2B080336807
:101A8000DB05F6D571684FF0F84393FAA3F3B3FA88
:101A900083F2236A21F0F84193400B43736023687B
:101AA00078E78A6A02F00302022A7FF419AF344A07
:101AB000126892037FF538AF6268002A7FF434AF72
:101AC0000120F8BD9B6A99077FF43CAF2C4BE1687D
:101AD0001B685A0701D50029F2D0294A1368164617
:101AE00023F019030B431360FEF70AFE054604E0DA
:101AF000FEF706FE401B022871D833685B07F7D556
:101B000038E71F4B5A6F1E4622F001025A67FEF754
:101B1000F7FD054604E0FEF7F3FD401B02285ED802
:101B2000736F9907F7D44EE78A6A02F00302012A1D
:101B300091D1134A1268D20502D5E269802ABFD139
:101B40000F4D4FF0F842686892FAA2F2B2FA82F1B1
:101B5000226A20F0F8408A4002436A601AE7084A85
:101B6000136843F480331360CFE6064B1A681E46B1
:101B700042F480721A60FEF7C3FD054609E000BF1B
:101B80000044025800480258FEF7BAFD401B642882
:101B900025D83368DA05F7D5A368012B00F0FC805F
:101BA000002B00F0DF80052B824B1A6F00F0FA80CB
:101BB00022F001021A671A6F22F004021A67FEF778
:101BC0009FFD7C4E41F28837054604E0FEF798FD04
:101BD000401BB84203D8336F9B07F7D511E70320AA
:101BE000F8BD744B1A681E4622F480321A601A68D7
:101BF00022F480221A60FEF783FD054604E0FEF71A
:101C00007FFD401B6428EAD833689F03F7D48AE637
:101C1000684B1A681E4622F480521A60FEF770FD67
:101C2000054604E0FEF76CFD401B0228D7D8336858
:101C30009804F7D4E1E65F4B1A681E4622F0800252
:101C40001A60FEF75DFD054604E0FEF759FD401BF6
:101C50000228C4D83368DF05F7D423689AE6554BC9
:101C60001A681E4622F001021A60FEF749FD054679
:101C700004E0FEF745FD401B0228B0D83368580742
:101C8000F7D4236884E642F480221A601A6842F48A
:101C900080321A6039E6FEF733FD064604E0FEF7AF
:101CA0002FFD801B02289AD82B689901F7D4AA6AC5
:101CB0004FF6F871404BA06A1340E26A034343EACF
:101CC0000213AB62266BD4E90D32013E501E013B7C
:101CD000E26BC6F308065B020004013A9BB200F413
:101CE000FE001206034302F0FE42334313432B630C
:101CF000686B91FAA1F33149B3FA83F2A36C014006
:101D00002C4E93400B436B63EB6A226C23F00C0365
:101D10001343EB62EB6A626C23F002031343EB6242
:101D2000EB6A43F48033EB62EB6A43F40033EB621B
:101D3000EB6A43F48023EB62EB6A43F00103EB624E
:101D40002B6843F080732B60FEF7DAFC044605E055
:101D5000FEF7D6FC001B02283FF641AF33689A011C
:101D6000F6D56BE6134B41F288371A6F1E4622F008
:101D700001021A671A6F22F004021A67FEF7C0FC0C
:101D8000054605E0FEF7BCFC401BB8423FF627AF16
:101D9000336F9807F6D434E6064A136F43F0010315
:101DA00013670CE742F004021A671A6F42F001024F
:101DB0001A6704E7004402580CFCFFFF0700FFFF0E
:101DC0004E4A136903F03803102B04D0182B0DD0A2
:101DD0001BB14B4870474B4870471368990647D56D
:101DE00013684948C3F3C103D8407047F0B4956AFB
:101DF000976AD46A05F00305566BC7F3051704F01C
:101E00000104012DC6F3CC0604FB06F407EE904A4C
:101E1000F8EEE77A53D0022D2CD0002D39D0136B79
:101E2000B7EE006ADFED395AC3F3080306EE903AC5
:101E3000334BB3FBF7F3F8EEE66AE7EEA56A07EE7D
:101E4000103A2E4BB8EEC77A1B6BC3F3462376EEDF
:101E5000867A013327EE277A07EE903AF8EEE76AA2
:101E6000F0BCC7EE267AFCEEE77A17EE900A7047D0
:101E700025487047136BB7EE006A224AC3F3080384
:101E8000DFED225A07EE103AB2FBF7F3F8EEC76A1D
:101E9000D3E713689B0621D51068B7EE006A136B71
:101EA000C0F3C1021848C3F30803DFED185AD0404D
:101EB00007EE103AB0FBF7F3F8EEC76ABDE7136B15
:101EC000B7EE006A0E49C3F30803DFED105A07EEC0
:101ED000103AB1FBF7F3F8EEC76AAEE7136BB7EE53
:101EE000006A0948C3F30803DFED085A07EE103A09
:101EF000B0FBF7F3F8EEC76A9FE700BF0044025853
:101F000000093D00001BB7000090D003000000391D
:101F1000684A136803F007038B422DE9F0410D4630
:101F200004460CD2136823F007030B4313601368B5
:101F300003F007038B4202D00120BDE8F081236843
:101F4000980706D55C49E0688A6922F00F020243CF
:101F50008A61D9072FD5584AA168936923F4706321
:101F60000B43936161681368022900F0978003298D
:101F700000F09080012900F098805E07DCD54E4E7D
:101F800041F28838336923F007030B433361FEF7CE
:101F9000B7FB63680746022B60D0032B69D0012B87
:101FA00005D171E0FEF7ACFBC01B40457AD8336920
:101FB00013F0380FF6D13F4A136803F00703AB4222
:101FC00009D9136823F007032B431360136803F048
:101FD0000703AB42B0D12368580706D536492069BC
:101FE0008A6922F0700202438A61190706D53249D4
:101FF0006069CA6922F070020243CA61DA0606D536
:102000002D49A069CA6922F4E0620243CA619B06B5
:1020100006D5294AE169136A23F070030B43136262
:10202000FFF7CEFE244A4FF480710346926991FA7D
:10203000A1F1B1FA81F102F47062204C0020CA4093
:102040001F49A25CD3400B60FEF71EFB0020BDE8D9
:10205000F081FEF755FBC01B404523D8336903F0E0
:102060003803102BF5D1A6E7FEF74AFBC01B40450D
:1020700018D8336903F03803182BF5D19BE7FEF726
:102080003FFBC01B40450DD8336903F03803082BD4
:10209000F5D190E79B013FF572AF4DE79A033FF50D
:1020A0006EAF49E70320BDE8F081DF053FF567AF7C
:1020B00042E700BF0020005200440258A8BC0008BC
:1020C0008C1F012008B500F0F7FF084B01229B6927
:1020D00092FAA2F2B2FA82F203F00F030449D3405B
:1020E000044ACB5CD840106008BD00BF00440258D1
:1020F000A8BC0008901F012008B5FFF7E3FF074BBD
:102100001022DB6992FAA2F2B2FA82F203F07003B3
:102110000349D340CB5CD84008BD00BF00440258FF
:10212000A8BC000808B5FFF7CDFF074B4FF480723D
:10213000DB6992FAA2F2B2FA82F203F4E063034995
:10214000D340CB5CD84008BD00440258A8BC00086E
:10215000334AF8B5936A03F00303032B5AD013688C
:1021600006460F46144623F080631360FEF7C8FA54
:10217000054604E0FEF7C4FA431B022B48D8236847
:102180001A01F7D4A36A326823F47C3343EA02339A
:10219000A3627068D6E902320138511E013B3269F0
:1021A000C0F308005B020904013A9BB201F4FE018E
:1021B00012060B4302F0FE4203431343A363E36A98
:1021C000726923F0C0031343E362E36AB26923F048
:1021D00020031343E362E36AF7B1012F0CBF43F41A
:1021E000801343F40013E3620D4B1A681D4642F05E
:1021F00080621A60FEF784FA044604E0FEF780FA73
:10220000001B022804D82B681B01F7D50020F8BD5D
:102210000320F8BD0120F8BD43F40023E362E3E7A7
:1022200000440258334AF8B5936A03F00303032BC2
:102230005AD0136806460F46144623F080531360A5
:10224000FEF75EFA054604E0FEF75AFA431B022B3E
:1022500048D823689A00F7D4A36A326823F07C73C5
:1022600043EA0253A3627068D6E902320138511E74
:10227000013B3269C0F308005B020904013A9BB2DA
:1022800001F4FE0112060B4302F0FE420343134326
:102290002364E36A726923F440631343E362E36AED
:1022A000B26923F400731343E362E36AF7B1012FC9
:1022B0000CBF43F4000343F08073E3620D4B1A68D4
:1022C0001D4642F080521A60FEF71AFA044604E0F6
:1022D000FEF716FA001B022804D82B689B00F7D5DE
:1022E0000020F8BD0320F8BD0120F8BD43F48003B1
:1022F000E362E3E7004402582DE9F843036804462B
:1023000013F0006000F01381626EB2F5001F00F060
:10231000F98400F20681002A00F00184B2F5801FE2
:1023200040F003810221201DFFF712FF0546002D1A
:1023300040F0C784626E2368AB48DE054FF00005AD
:10234000016D21F4401142EA0102026500F1F380BF
:102350002E46980517D5A26D802A00F0C48400F29D
:10236000F580002A00F0E783402A40F0F680002143
:10237000201DFFF7EDFE0646002E00F09583236832
:1023800046EA0500C5B259051AD5D4F8A420B2F51D
:10239000800F00F0A08400F2E280002A00F0C583E4
:1023A000B2F5001F40F0E3800021201DFFF7D0FEB2
:1023B0000646002E00F08183236846EA0500C5B278
:1023C0001A051AD5D4F8A820B2F1007F00F07B845A
:1023D00000F2CF80002A00F09683B2F1807F40F0B7
:1023E000D0800021201DFFF7B3FE0646002E00F02E
:1023F0006E83236846EA0500C5B29F0119D5A26C19
:10240000202A00F00A8400F2BE803AB1102A40F07F
:10241000BD80754AD36A43F40033D362002E40F086
:102420009083714AA16CD36C23F030030B43D364C7
:102430002368D80419D5E26DB2F5005F00F06C8412
:1024400000F2A980002A00F06483B2F5805F40F0BA
:10245000AA800021201DFFF77BFE0646002E00F01B
:102460004083236846EA0500C5B299041BD5226E55
:10247000B2F5003F00F0F88300F2978042B1B2F568
:10248000803F40F09C800121201DFFF761FE064641
:10249000002E40F05883544A216E136D23F4E0233C
:1024A0000B43136523685A041DD5D4F8AC20B2F150
:1024B000005F00F0CF8300F2878042B1B2F1805F0D
:1024C00040F08C800121201DFFF742FE0646002EC1
:1024D00040F05883444AD4F8AC10936D23F0E043A5
:1024E0000B43936523681F040FD5E26EB2F1805F42
:1024F00000F08A83B2F1005F00F04C82002A00F005
:102500004E82012646EA0500C5B2D8017AD5626C32
:10251000032A00F25D84DFE812F06E006F036900A9
:102520006E00B2F5401F3FF407AF012500E00546FD
:10253000DE057FF50DAF626D042A00F24384DFE80B
:1025400012F0B303BA03DA03FA01FA01C02A3FF426
:1025500013AFB2F5807F3FF40FAF012610E7B2F55D
:10256000C00F3FF426AFB2F5000F3FF422AF0126B3
:1025700023E7B2F1407F3FF439AFB2F1806F3FF40F
:1025800035AF012636E7302A3FF448AF012645EA49
:102590000600C5B24DE7B2F5405F3FF45FAFB2F55C
:1025A000804F3FF45BAF01265CE722F48031B1F548
:1025B000802F3FF46DAFB2F5403F3FF469AF012685
:1025C00046EA0500C5B26EE722F08051B1F1804FB6
:1025D0003FF47DAFB2F1405F3FF479AF012646EAA8
:1025E0000500C5B27FE700BF004402580221201D4C
:1025F000FFF7AEFD0646002E00F0C682236846EACD
:102600000500C5B2590200F1FB81DF0731D5A26F89
:10261000282A2AD8DFE812F0D5012900290029004C
:1026200029002900290029009A03290029002900EE
:102630002900290029002900CF01290029002900AB
:102640002900290029002900D50129002900290095
:102650002900290029002900D50129002900290085
:102660002900290029002900D501012645EA060094
:10267000C5B2980718D5626F052A00F2A583DFE876
:1026800012F00C005C0306000C000C000C00012191
:1026900004F12400FFF7C6FD0646002E00F0598223
:1026A000236846EA0500C5B2590719D5D4F8902029
:1026B000052A00F28B83DFE812F00C0037030600D6
:1026C0000C000C000C00012104F12400FFF7AAFD0E
:1026D0000646002E00F04682236846EA0500C5B291
:1026E0009A061DD5D4F88C20B2F1005F00F09E82CE
:1026F00000F2E98042B1B2F1805F40F0EE8000214B
:10270000201DFFF725FD0646002E40F01E82BB4A25
:10271000D4F88C10536D23F0E0430B4353652368CA
:102720005F061DD5D4F89820B2F5006F00F08882BE
:1027300000F2D88042B1B2F5806F40F0DD80002118
:10274000201DFFF705FD0646002E40F00082AB4A33
:10275000D4F89810936D23F4E0530B4393652368EA
:1027600018061DD5D4F89C20B2F5804F00F03A82AF
:1027700000F2C78042B1B2F5005F40F0CC8000218A
:10278000201DFFF7E5FC0646002E40F0F9819B4A2C
:10279000D4F89C10936D23F460430B439365236836
:1027A00019070BD5D4F88010B1F5805F00F06F8267
:1027B0009248426D22F440520A434265DA060BD534
:1027C000D4F89410B1F5807F00F058828B48826D68
:1027D00022F440720A4382651F0310D5D4F8A0107A
:1027E000B1F5803F00F0B080B1F5003F00F0B2805D
:1027F000002900F0EF81012646EA0500C5B2580322
:1028000011D5D4F88420B2F5001F00F0B080B2F5E5
:10281000401F00F0B280B2F5801F00F0D281012687
:1028200046EA0500C5B2D9030BD5E26C002A00F0D8
:10283000B881B2F5803F00F05D81012646EA0500CF
:10284000C5B29A0000F11E819F0310D5E26FB2F568
:10285000807F00F0848240F2C08022F48071B1F564
:10286000007F00F0BD80012645EA0600C5B2DE0209
:1028700006D56249206F0A6D22F0004202430A65C4
:10288000D80007D55D49D4F8B4000A6922F4804223
:1028900002430A61990206D55849A06E0A6D22F0DA
:1028A000807202430A655A003AD4002B06DA534A72
:1028B000216DD36C23F040530B43D364281E18BF03
:1028C0000120BDE8F88322F08051B1F1804F3FF440
:1028D0001BAFB2F1405F3FF417AF012646EA050097
:1028E000C5B21DE722F48061B1F5805F3FF42CAFE3
:1028F000B2F5406F3FF428AF012646EA0500C5B2A5
:102900002EE722F40051B1F5004F3FF43DAFB2F590
:10291000C04F3FF439AF012646EA0500C5B23FE794
:10292000364A116921F4004111611169D4F8B800E7
:1029300001431161B9E72E46002E00F0AC802368F8
:1029400046EA0500C5B204E5022104F12400FFF7C0
:1029500069FC0646002E40F01181284AD4F8A010E8
:10296000936D23F440330B439365236847E70121BC
:1029700004F12400FFF756FC0646002E40F0FC80D0
:102980001E4AD4F88410536D23F440130B4353654F
:10299000236848E70121201DFFF7DAFB0646002ED9
:1029A00040F0FD80154AE16E136D23F040530B4358
:1029B00013652368A9E5012104F12400FFF732FC27
:1029C0000646002E40F0E9800C4AA16F536D23F0BB
:1029D00038030B43536523684BE6002A7FF443AF6B
:1029E000002E7FF441AF0548DE02416D21F44071B5
:1029F00042EA010242657FF543AF3AE700440258DC
:102A0000A74B1A68984642F480721A60FDF778FE68
:102A1000074605E0FDF774FEC01B642800F2A8819C
:102A2000D8F80030DA05F5D5002E40F0A2819D4A95
:102A3000D4F8B030116F594011F4407F0BD0116FB2
:102A4000106F21F4407140F480301067106F20F453
:102A5000803010671167B3F5807F00F08F8103F439
:102A60004072B2F5407F00F0A3818E490A6922F4DA
:102A70007C520A618B4AC3F30B03116F0B4313673C
:102A80002368C2E5022104F12400FFF7CBFB2843B1
:102A90002368C5B2D8E6834A616D136D23F007033E
:102AA0000B431365236854E47E4AA16D136D23F430
:102AB000E0730B431365236865E47A4AD4F8A410E5
:102AC000936D23F460030B439365236878E4754AA0
:102AD000D4F8A810936D23F0E0630B43936523684B
:102AE0008BE4704AE16D136D23F4E0430B431365EF
:102AF0002368BAE40221201DFFF72AFB0646002EB8
:102B000056D023689AE6674AD36A43F40033D36207
:102B10006CE4644AD36A43F40033D3629EE46148B0
:102B2000C16A41F40031C16206E45E4AD36A43F4EB
:102B30000033D3623DE45B4AD36A43F40033D3628B
:102B40001AE4236823E523683AE52368C6E6236888
:102B5000D3E6544A616F536D23F007030B4353656B
:102B60002368A1E54F4AD4F89010936D23F0070332
:102B70000B4393652368B3E5236851E623683BE67E
:102B80002368C9E623682AE5464A616CD36C23F0C2
:102B900003030B43D364236834E5236866E52368A5
:102BA000B0E4404AD36A43F40033D362002EA8D184
:102BB0003C4AE16CD36C23F480330B43D364236829
:102BC0003FE6384AD36A43F40033D362002E3FF421
:102BD000D7AED1E7201DFFF7BBFA0646002E3FF423
:102BE000BCAECBE7022104F12400FFF71BFB064635
:102BF000002E3FF4CCADC3E72A4AD36A43F4003336
:102C0000D362002EC0D0F9E4264AD36A43F40033DD
:102C1000D362002E3FF4C6AEC1E70221201DFFF7AC
:102C200097FA0646002E3FF4FCAB8AE7022104F136
:102C30002400FFF7F7FA0646002E3FF468AD84E75C
:102C4000022104F12400FFF7EDFA0646002E3FF4BE
:102C50007EAD7CE7012104F12400FFF7E3FA06468C
:102C6000002E3FF437AC8DE7012104F12400FFF77B
:102C7000D9FA0646002E3FF40EAC64E7022104F1B7
:102C80002400FFF7CFFA28432368C5B2A4E5022148
:102C900004F12400FFF7C6FA28432368C5B28DE586
:102CA00000480258004402584A4A2E46D36A43F468
:102CB0000033D36240E60021201DFFF749FA0646A3
:102CC0003AE6236834E4002104F12400FFF7AAFA6D
:102CD0000646FFF78BBB002104F12400FFF7A2FAA0
:102CE0000646FFF766BB002104F12400FFF79AFABD
:102CF0000646FFF741BB002104F12400FFF792FADA
:102D0000064619E6022104F12400FFF78BFA054676
:102D1000002D3FF40FABD4E7002104F12400FFF7AE
:102D200081FA0646FFF79ABB0121201DFFF710FA32
:102D30000646002E3FF416AFCEE40121201DFFF71A
:102D400007FA0646002E3FF404AFA9E40121201D36
:102D5000FFF7FEF90646002E3FF436AE1DE71D488C
:102D6000C16A41F40031C162002E7FF47DAD3AE6C4
:102D7000032645EA06002368C5B246E4FDF7C0FC19
:102D8000DFF8508041F28839074604E0FDF7B8FCCF
:102D9000C01B484506D8D8F870309B07F6D5D4F844
:102DA000B0305CE645F0030523680326EDB22CE461
:102DB0000848094A016902EA131221F47C510A43C6
:102DC000026157E60126BBE501266AE4012684E498
:102DD000012614E400440258CFFFFF0008B5FFF7B6
:102DE00071F9074B10221B6A92FAA2F2B2FA82F230
:102DF00003F070030349D340CB5CD84008BD00BF4B
:102E000000440258A8BC0008F0B4504FBC6AB96A2C
:102E1000FE6A04F00304FB6BC1F3053C06F01006E8
:102E2000012CC3F3CC0306FB03F607EE906AB8EE61
:102E3000E77A48D0022C6BD0002C53D0BB6BB7EE96
:102E4000006ADFED435AC3F3080306EE903A414BA4
:102E5000B3FBFCF3F8EEE66AE7EE256A3B4A07EEC1
:102E6000903A936BF8EEE77AC3F3462336EE867A10
:102E70000133F0BC67EE877A07EE103AB8EEC77AF6
:102E8000C7EE876AFCEEE66AC0ED006A936BC3F397
:102E90000643013307EE103AB8EEC77AC7EE876AE9
:102EA000FCEEE66AC0ED016A936BC3F3066301337F
:102EB00007EE103AB8EEC77AC7EE876AFCEEE66A0C
:102EC000C0ED026A7047BB6BB7EE006A2149C3F3DD
:102ED0000803DFED1F5A07EE903AB1FBFCF3F8EE62
:102EE000E76AB9E73B689B0621D53A68B7EE006A06
:102EF000BB6BC2F3C102184DC3F30803DFED145AD4
:102F0000D54007EE903AB5FBFCF3F8EEE76AA3E78D
:102F1000BB6BB7EE006A114AC3F30803DFED0C5A2E
:102F200007EE903AB2FBFCF3F8EEE76A94E7BB6B6E
:102F3000B7EE006A084CC3F30803DFED055A07EE4D
:102F4000903AB4FBFCF3F8EEE76A85E700440258D8
:102F50000000003900093D000090D003001BB700BD
:102F6000F0B4504FBC6AB96AFE6A04F003047B6C8B
:102F7000C1F3055C06F48076012CC3F3CC0306FB99
:102F800003F607EE906AB8EEE77A48D0022C6BD0D1
:102F9000002C53D03B6CB7EE006ADFED435AC3F30D
:102FA000080306EE903A414BB3FBFCF3F8EEE66AF9
:102FB000E7EE256A3B4A07EE903A136CF8EEE77AA3
:102FC000C3F3462336EE867A0133F0BC67EE877A88
:102FD00007EE103AB8EEC77AC7EE876AFCEEE66AEB
:102FE000C0ED006A136CC3F30643013307EE103AD9
:102FF000B8EEC77AC7EE876AFCEEE66AC0ED016AF2
:10300000136CC3F30663013307EE103AB8EEC77AC8
:10301000C7EE876AFCEEE66AC0ED026A70473B6C59
:10302000B7EE006A2149C3F30803DFED1F5A07EE2C
:10303000903AB1FBFCF3F8EEE76AB9E73B689B0610
:1030400021D53A68B7EE006A3B6CC2F3C102184D55
:10305000C3F30803DFED145AD54007EE903AB5FBF1
:10306000FCF3F8EEE76AA3E73B6CB7EE006A114A9F
:10307000C3F30803DFED0C5A07EE903AB2FBFCF302
:10308000F8EEE76A94E73B6CB7EE006A084CC3F3CE
:103090000803DFED055A07EE903AB4FBFCF3F8EEB7
:1030A000E76A85E7004402580000003900093D0046
:1030B0000090D003001BB70008B5FEF781FE084B57
:1030C0004FF480729B6992FAA2F2B2FA82F203F490
:1030D00070630449D340044ACB5CD840106008BDFB
:1030E00000440258A8BC00088C1F012003682C492A
:1030F0005A6910B49C6944F008049C619C6944F0CE
:1031000010049C611C6824F001041C601C692140AF
:103110001961996821F44041996090F8811004295F
:1031200001D0910630D490F88110032901D05406C3
:103130001FD4910509D5D0F8841041F00101C0F8E1
:103140008410996941F400719961D20509D5D0F8CC
:10315000842042F00802C0F884209A6942F4807208
:103160009A6100235DF8044BA0F86230A0F86A3041
:103170007047D0F8841041F00401C0F884109969B8
:1031800041F040019961D4E7D0F8841041F080010A
:10319000C0F88410996941F020019961C3E700BF2C
:1031A00094FCFFFF002800F0AB80564A0021F8B5E0
:1031B000036804468162934216D0A2F57842934296
:1031C00012D002F580629342C26800F091800F2A0B
:1031D00008D8C16B02F108004D09C00805FB0000CA
:1031E000082815D90120F8BDE268E16B02F108005A
:1031F000444E454D4F09C008AB4218BFB34207FBD0
:10320000000003D005F58065AB4201D11028E9D854
:1032100094F8810000F0FF0500285ED04FF0000C0C
:103220000220A769A56B84F88100B7F1806F186848
:1032300020F001001860606845D0666B47EA060E12
:10324000676A26694EEA070E67694EEA060E266A25
:103250004EEA070EE76C4EEA060EA6684EEA07072E
:103260003E43A76C3E43A76D3E43E769394306439F
:103270000A43354342EA0C029A60DD60B0B99A68AD
:1032800022F4C05242F400629A609A6822F4C0624A
:1032900042F480629A601A6D22F001021A650020E1
:1032A0000123C4F8840084F88130F8BD1A6D22F03F
:1032B00001021A654202F2D5DA68616D22F000421D
:1032C0000A43DA60EBE7B0F5800FB6D1002DB4D138
:1032D0001E6846F480561E60AFE7204684F8805092
:1032E00003F0A6FB2368D4F828C0E268E16B97E7F7
:1032F000C16B02F108004D09C00805FB000085E71D
:103300000120704700300140003800402DE9F843AB
:103310001D4690F88030012B00F0BC80012304464C
:103320008946904680F88030FDF7EAF994F88130BC
:103330000646012BDFB240F0A680B9F1000F00F085
:10334000C980B8FA88F35B09B8F1000F00F0C280B9
:10335000A2680321C4F85C90B2F5C02F84F88110F4
:10336000A4F86080C4F884302168A4F862806366A1
:10337000A4F86830A4F86A30C4E91C3303D10B68A0
:1033800043F400630B604B68824A60681A40B0F5F2
:10339000800F42EA08024A600B6843F001030B60A9
:1033A00003D10B6843F400730B60E3680F2B3CD828
:1033B000072BB4F862309BB270D9D3B94FE0B4F8A0
:1033C00062309BB2012B40F2A980E36B002B00F02E
:1033D000A580E26D52F8043B0B62B4F86230E265FE
:1033E000023B9BB2A4F86230B4F862309BB2002B6F
:1033F00035D04B699807E2D4002D00F0B2806A1CEA
:10340000F2D0FDF77DF9801BA84280F0AA802168E8
:10341000EAE7002D00F0A5806B1C06D0FDF770F9DF
:10342000801BA84280F09D802168B4F862309BB276
:10343000ABB14B699A07ECD5E26D52F8043B0B62D5
:10344000B4F86230E265013B9BB2A4F86230B4F894
:1034500062309BB2002BECD101E06A1C79D14B6940
:103460001B07FAD52046FFF741FE0122002384F80E
:103470008120D4F8847084F88030FF1A18BF0127A7
:103480003846BDE8F8830023022784F880303846A8
:10349000BDE8F88302273846BDE8F883002BDED06C
:1034A0004B699B071CD5B4F862309BB2032B22D921
:1034B000E36B402B1FD9E26D52F8043B0B62B4F86A
:1034C0006230E265043B9BB2A4F86230B4F862302B
:1034D0009BB2E3E70023384684F88030BDE8F883E8
:1034E000002D3ED0681CF1D0FDF70AF9801BA842E0
:1034F00037D22168EAE7B4F862309BB2012B19D9C0
:10350000E36BBBB1E26D32F8023B0B84B4F862307E
:10351000E265023B9BB2A4F86230D7E7E26D32F875
:10352000023B0B84B4F86230E265013B9BB2A4F825
:10353000623059E7E36D1B7881F82030B4F86230CF
:10354000E26D013B216801329BB2E265A4F8623072
:10355000BCE7C5B1FDF7D4F8801B854213D32168C1
:103560007DE72046FFF7C2FDD4F884300021012218
:1035700043F48073384684F88010C4F8843084F8AB
:103580008120BDE8F883D4F8843043F02003C4F8E8
:10359000843067E70000FFFF2DE9F8431F4690F8ED
:1035A0008030089D012B00F0A4800123044688464A
:1035B000914680F88030FDF7A3F894F881300646F4
:1035C000012B0CD06368B3F5800F40F08680A368B0
:1035D000002B40F0828094F88130042B7DD1002FA5
:1035E00018BFB9F1000F7ED0B8F1000F7BD094F86E
:1035F0008130042B02D0052384F881302268002119
:10360000A54BC4F88410A4F86A70A4F862705068DE
:10361000C4F864900340A4F86870C4F85C803B432D
:10362000A4F86070C4E91C11616853601368B1F5B7
:10363000800F43F00103136003D1136843F4007358
:103640001360E3680F2B7BD948F20807B4F86230A7
:103650009BB223B9B4F86A309BB2002B52D0B4F8B5
:1036600062309BB273B123685A6992070AD5E26D42
:1036700052F8041B1962B4F86230E265013B9BB258
:10368000A4F86230B4F86A309BB273B123685A6907
:103690003A420AD0196BB4F86A30626E013B42F8C4
:1036A000041B9BB26266A4F86A306B1CCED0FDF797
:1036B00027F8801BA842C9D32046FFF717FDD4F88E
:1036C00084300122002143F48073104684F8801076
:1036D000C4F8843084F8812003E00023022084F8B9
:1036E0008030BDE8F8830023012084F88030BDE8F5
:1036F000F8830220BDE8F883DDB1FDF701F8801BF7
:10370000854216D3226801E0691CF5D153691B0775
:10371000FAD52046FFF7EAFC0122002384F8812035
:10372000D4F8840084F88030C01A18BF0120BDE8A6
:10373000F883D4F8843043F02003C4F88430E8E7F9
:10374000072B0ED871E0196BB4F86A30626E023B39
:1037500042F8041B9BB26266A4F86A30691C40F010
:10376000CB80B4F862309BB223B9B4F86A309BB214
:10377000002BC7D0B4F862309BB2B3B123685A694A
:10378000970712D5B4F8622092B2012A78D9E26B79
:10379000002A75D0E26D52F8041B1962B4F8623049
:1037A000E265023B9BB2A4F86230B4F86A309BB287
:1037B000002BD3D023685A6912F4604FCED05A69D7
:1037C0001004C0D41B8E626E22F8023BB4F86A303B
:1037D0006266013B9BB2A4F86A30BFE7E26B402A05
:1037E0003BD9E26D52F8041B1962B4F86230E2650D
:1037F000043B9BB2A4F86230B4F86A309BB293B138
:1038000023685A6912F4604F0DD05A69170453D5D2
:10381000196BB4F86A30626E043B42F8041B9BB229
:103820006266A4F86A30681C6DD1B4F862309BB24D
:103830002BB9B4F86A309BB2002B3FF463AFB4F8F5
:1038400062309BB2002BD7D023685A699207D3D538
:10385000B4F8622092B2032AC0D8B4F8622092B2BF
:10386000012A1BD9E26BCAB1E26D32F8021B19843E
:10387000B4F86230E265023B9BB2A4F86230BBE769
:10388000E26D32F8021B1984B4F86230E265013B44
:103890009BB2A4F8623088E70000FFFFE26D127867
:1038A00083F82020B4F86230E26D013B01329BB214
:1038B000E265A4F862309FE75A6902F4C042B2F5AB
:1038C000005F0BD91B8E626E22F8023BB4F86A309F
:1038D0006266023B9BB2A4F86A30A4E793F83020FA
:1038E000636E1A70B4F86A30626E013B01329BB2AB
:1038F0006266A4F86A3096E7FCF702FF801BA842D4
:10390000FFF42FAFD8E6FCF7FBFE801BA8428CD358
:10391000D2E600BF2DE9F0431D46436883B004465C
:10392000B3F5800F9046894600F08E8094F8803081
:10393000012B00F09780012384F88030FCF7E0FE33
:1039400094F881300646012BDFB275D1B9F1000F32
:1039500000F0D780B8FA88F35B09B8F1000F00F0E7
:10396000D080A2680421C4F86490B2F5C02F84F816
:103970008110A4F86880C4F884302168A4F86A80B3
:10398000E365A4F86030A4F86230C4E91C3303D1C5
:103990000B6823F400630B6048687D4B626803404A
:1039A000B2F5800F43EA08034B600B6843F0010354
:1039B0000B6003D10B6843F400730B60E3680F2BBB
:1039C00055D8072BB4F86A309BB200F2AF80A3B988
:1039D00085E04B691A0470D5096BB4F86A30626EE1
:1039E000043B42F8041B9BB26266A4F86A30B4F848
:1039F0006A309BB2002B72D021684B6913F4604F80
:103A0000E7D135B16B1CF2D0FCF77AFE801BA842DF
:103A1000EDD32046FFF76AFBD4F884300021012261
:103A200043F48073384684F88010C4F8843084F8F6
:103A3000812003B0BDE8F0830023022784F88030A2
:103A4000384603B0BDE8F0838368002B7FF46EAF87
:103A50000426134600950A4680F88160FFF79CFD16
:103A60000746EDE70227384603B0BDE8F083B4F817
:103A70006A309BB2002B32D048F208080FE0096B85
:103A8000B4F86A30626E013B42F8041B9BB2626676
:103A9000A4F86A30B4F86A2092B202B321684B6984
:103AA00013EA080FEBD1002DB3D06B1CF2D0FCF75A
:103AB00027FE801BA842EDD3ABE74B6903F4C0435C
:103AC000B3F5005F24D90B8E626E22F8023BB4F886
:103AD0006A306266023B9BB2A4F86A3087E72046F0
:103AE000FFF704FB0122002384F88120D4F88470BE
:103AF00084F88030FF1A18BF0127384603B0BDE8AC
:103B0000F0830023384684F8803003B0BDE8F083AA
:103B100091F83020636E1A70B4F86A30626E013B1F
:103B200001329BB26266A4F86A3060E7A3B9D6E7B7
:103B30004B6918041FD5096BB4F86A30626E023BFA
:103B400042F8041B9BB26266A4F86A30B4F86A308B
:103B50009BB2002BC3D021684B6913F4604FE7D1AF
:103B6000002D3FF456AF691CF0D0FCF7C9FD801B57
:103B7000A842EBD34DE70B8E626E22F8023BB4F8FD
:103B80006A306266013B9BB2A4F86A30DEE700BF90
:103B90000000FFFFF0B4046A8F6824F480340E68DC
:103BA000144D0462036AA8424468426D23F4003352
:103BB00022F0700243EA074342EA06020ED005F5FE
:103BC0008065A8420AD00C4E05F58045A84218BF72
:103BD000B04203D005F58065A84204D124F48034B6
:103BE0004D6944EA05244968446042658165036281
:103BF000F0BC70470000014000400140F0B4046A8E
:103C00008F6824F480140E68144D0462036AA8427D
:103C10004468426D23F4001322F4E04243EA075360
:103C200042EA06220ED005F58065A8420AD00C4E65
:103C300005F58045A84218BFB04203D005F5806560
:103C4000A84204D124F400344D6944EA852449682B
:103C500044604265C1650362F0BC704700000140EA
:103C60000040014003684A682C48602A70B49D688F
:103C70002B4C04EA05040D6844EA020400EA04003F
:103C800040EA0500986026D016D8402A37D0502A3E
:103C900010D11D6A1C6A886825F00A0524F0010409
:103CA0000E6928431C629A6922F0F00242EA061269
:103CB0009A61186270BC7047702AFBD10869D1E91B
:103CC00002429968224321F47F4142EA00220A43DA
:103CD00070BC9A607047186A8C6820F010000D69FB
:103CE000186299691A6A21F4704122F0A00241EA2F
:103CF000053142EA041299611A6270BC70471C6A6D
:103D0000186A0D6920F0010018629A6922F0F00229
:103D100042EA05129A611C6270BC7047F8FFFEFF10
:103D20008FFFCFFF034600201A68D36843F00103DA
:103D3000D36013889BB243F001031380704700BF28
:103D400030B401240368164A04FA01F1154C186ACC
:103D5000A34218BF9342144D20EA010004F58044A9
:103D60000CBF012200221862AB4208BF42F00102E0
:103D7000186AA34208BF42F001020143196212B956
:103D80000A4A934203D15A6C42F400425A641A8898
:103D9000002092B242F0010230BC1A80704700BF8E
:103DA0000000014000040140004001400048014083
:103DB00070B40C2908D8DFE801F03A07070740077C
:103DC00007074607070734000368224A0120224EEE
:103DD0001C6A00FA01F1B34218BF93421F4D24EA56
:103DE00001001F4C0CBF012200221862AB4208BF29
:103DF00042F00102186AA34208BF42F001020143E7
:103E0000196212B9174A934203D15A6C42F4004224
:103E10005A641A88002092B242F0010270BC1A80E3
:103E200070470368DA6842F01002DA60CDE7036891
:103E3000DA6842F00202DA60C7E70368DA6842F043
:103E40000402DA60C1E70368DA6842F00802DA6067
:103E5000BBE700BF000001400004014000400140FA
:103E6000004401400048014010B40C2908D8DFE8A4
:103E700001F05B070707550707074F0707074900CA
:103E800003682C4A01202C4C8840196AA34218BFB1
:103E9000934204F5705421EA000128480CBF012226
:103EA00000221962A34208BF42F00102196A83424C
:103EB00008BF42F00102196212B9214A93420DD1A2
:103EC000196A41F21112114208D1196A40F24442B2
:103ED000114203D15A6C22F400425A64196A41F229
:103EE000111211420AD1196A40F24442114205D11D
:103EF0001A8822F001021204120C1A8000205DF8C8
:103F0000044B70470368DA6822F01002DA60B8E701
:103F10000368DA6822F00802DA60B2E70368DA6858
:103F200022F00402DA60ACE70368DA6822F00202E9
:103F3000DA60A6E7000001400004014000440140AF
:103F400000480140704700BFFFF7FABEFFF730BFDF
:103F5000FFF78ABF90F83C30012B00F099800246B1
:103F600002230068F0B4012482F83D3082F83C401E
:103F70005A4C85680B682C40502B846000F08A8076
:103F800027D8202B00F09E803AD9302B72D0402BBE
:103F900016D1036A056A4C6823F00A0325F001056F
:103FA000CE681C434E4B0562816921F0F00141EA65
:103FB00006118161046281680B4043F0470383600E
:103FC00000230121184682F83D1082F83C30F0BCF5
:103FD0007047B3F5805F7CD01DD9B3F5005FEFD19A
:103FE000CC68D1E9015381682B4321F47F4143EA36
:103FF00004230B438360836843F480438360DFE7DB
:10400000002B3ED0102BDBD18168354B0B4043F0A9
:1040100017038360D4E7602B13D0702BD0D1CD6809
:10402000D1E901432F492343846843EA052324F45B
:104030007F44234383608368194041F077018160A6
:10404000BEE7056A4E6825F01005CF68244B05626F
:104050008469016A24F4704421F0A00144EA073421
:1040600041EA06118461016281680B4043F06703F5
:104070008360A5E781681A4B0B4043F037038360E8
:104080009EE78168164B0B4043F00703836097E778
:1040900002207047036A056A4C6823F00A0325F082
:1040A0000105CE681C430E4B0562816921F0F001C9
:1040B00041EA06118161046281680B4043F05703B5
:1040C00083607DE78168064B0B4043F027038360E4
:1040D00076E78168044B0B40836071E78800CEFF70
:1040E0008FFFCFFF88FFCEFFF8FFFEFF38B590F8B7
:1040F0003C30012B18D001250223044680F83C50A7
:1041000080F83D30FFF7AEFD23680021DA680846ED
:1041100022F04002DA60DA6822F48042DA6084F841
:104120003D5084F83C1038BD022038BD704700BFB8
:10413000704700BF704700BF03681A69910710B548
:10414000044602D5DA68920768D41A69520702D584
:10415000DA6850074FD41A69110702D5DA681207D6
:1041600037D41A69D00602D5DA68D1061ED41A6986
:10417000D20702D5DA68D00769D41A69110602D5C8
:10418000DA6812066BD41A69D00502D5DA6811060E
:104190006DD41A69520602D5DA6850066FD41A69CE
:1041A000910602D5DA68920649D410BD6FF010016D
:1041B0000822204619612277DB6913F4407F6FD112
:1041C00001F0BAFF2046FFF7B3FF002223682277F1
:1041D000CDE76FF008010422204619612277DB69E0
:1041E0009B075AD101F0A8FF2046FFF7A1FF00224C
:1041F00023682277B5E76FF0040102222046196197
:1042000022779B6913F4407F44D101F095FF20464B
:10421000FFF78EFF0022236822779CE76FF00201F0
:104220000122196102779B69990730D101F084FF5F
:104230002046FFF77DFF00222368227785E76FF095
:10424000200220461A61BDE8104000F0E3BA6FF08A
:10425000010220461A6101F02DFF23688DE76FF0FF
:10426000800220461A6100F0D7FA23688BE76FF0CE
:10427000800220461A6100F0CFFA236889E76FF0C8
:10428000400220461A61FFF755FF236887E7FFF7D2
:104290004DFFD0E7FFF74AFFBCE7FFF747FFA6E770
:1042A000FFF744FF91E700BF364AB0F1804F038823
:1042B000A0EB02029BB2B2FA82F2F0B44FEA5212C1
:1042C00006D02AB9304D314CA04218BFA84228D19F
:1042D0002F4F23F070034D68C71B2B43B7FA87F7A6
:1042E0007F09CC6823F440734D6923438E680C88A2
:1042F00023F080032B439BB20380C662048552B92E
:104300004FB9244A244B984218BF904203D003F57A
:104310008063984201D10B8A03860123F0BC43617C
:10432000704704F58064A04218D004F57844A04298
:1043300014D0184D184CA04218BFA8421FD004F545
:104340008064A0421BD04A6923F080038C68134329
:104350000A889BB20380C4620285D2E70C4F23F027
:1043600070030E4DC71B4E68A842B7FA87F743EAA1
:1043700006034FEA5717B4D0002FB2D1D9E7002770
:10438000AFE700BF0000014000040040000800400B
:10439000000401400040014000440140000C004086
:1043A000C0B110B590F83D30044603F0FF0263B190
:1043B0000223214684F83D3051F8040BFFF774FFC7
:1043C0000123002084F83D3010BD80F83C2002F02D
:1043D0001FFCEDE701207047C0B110B590F83D30EB
:1043E000044603F0FF0263B10223214684F83D3006
:1043F00051F8040BFFF758FF0123002084F83D30EB
:1044000010BD80F83C20FFF79DFDEDE701207047CF
:10441000026AD1F808C022F00102F0B40D68194F09
:104420000262194E036A4468B042826923F00203B3
:1044300007EA020743EA0C0345EA07050ED0134AD0
:1044400090420BD006F5804602F58042904218BF9C
:10445000B04203D002F5806290420BD1CA6823F0CB
:1044600008038E6924F4407413434A69324323F0ED
:10447000040314434A684460856142630362F0BCEC
:10448000704700BF8CFFFEFF0000014000040140A8
:10449000F0B4046AD1F808C024F010040A68194F77
:1044A0000462194E036A4568B042846923F0200310
:1044B00007EA040743EA0C1347EA02220DD0134C23
:1044C000A0420AD0124E134CA04218BFB0420BD0EB
:1044D00004F58064A0420ED106E023F08003CC688E
:1044E00043EA041323F040034C6925F440658E69C8
:1044F000344345EA8405496845608261816303620B
:10450000F0BC7047FF8CFFFE00000140000401403A
:104510000040014000440140F0B4046AD1F808C0F2
:1045200024F480740F68194E0462036AB04245682F
:10453000C26923F4007322F0730243EA0C2342EAB7
:1045400007020DD0124CA0420AD0124E124CA042CB
:1045500018BFB0420BD004F58064A0420ED106E033
:1045600023F40063CC6843EA042323F480634C699A
:1045700025F440558E69344345EA04154968456081
:10458000C261C1630362F0BC704700BF000001401C
:10459000000401400040014000440140F0B4046ABE
:1045A0008F6824F480540E68144D0462036AA84294
:1045B0004468C26923F4005322F4E64243EA073315
:1045C00042EA06220ED005F58065A8420AD00C4EBC
:1045D00005F58045A84218BFB04203D005F58065B7
:1045E000A84204D124F480444D6944EA8514496802
:1045F0004460C26101640362F0BC70470000014086
:104600000040014038B590F83C30012B00F08D801F
:104610000D4602230121044680F83D3080F83C100D
:10462000142A1DD8DFE802F00B1C1C1C371C1C1CB4
:104630004A1C1C1C5C1C1C1C6F1C1C1C24002946D6
:104640000068FFF7E5FE23682869996941F00801D1
:104650009961996921F0040199619A6902439A610B
:1046600000230122184684F83D2084F83C3038BDF0
:1046700029460068FFF7C2FA23682869596D41F49A
:1046800000615965596D21F4806159655A6D42EA9E
:1046900000225A65E4E729460068FFF7F9FE23681F
:1046A0002869996941F400619961996921F48061EF
:1046B00099619A6942EA00229A61D1E72946006825
:1046C000FFF72AFF23682869D96941F00801D961F9
:1046D000D96921F00401D961DA690243DA61BFE7DF
:1046E00029460068FFF75AFF23682869D96941F411
:1046F0000061D961D96921F48061D961DA6942EA3E
:104700000022DA61ACE729460068FFF743FA236824
:104710002869596D41F008015965596D21F004016E
:1047200059655A6D02435A659AE7022038BD00BFA9
:1047300090F83C30012B20D0026870B40446104839
:1047400053688242956813D000F5806082420FD092
:10475000086825F08005896823F07003002603436C
:10476000294330465360916084F83C6070BC7047C8
:1047700023F4700348680343EAE70220704700BF50
:104780000000014090F83C30012B3CD070B405464D
:104790000E69D1E90203D1E9002423F440730343F5
:1047A000486923F4806323438C6A23F40063134332
:1047B0008A6923F4805333432E6823F40053034360
:1047C000124823F48043864243EA040323F470230F
:1047D00043EA024309D00E4A964206D0002273648F
:1047E000104685F83C2070BC70474A6A23F4700379
:1047F000C86943EA02530A6A23F08073034323F033
:1048000000731343EAE70220704700BF0000014035
:1048100000040140704700BF704700BF90F87A3035
:10482000202B2ED159B352B390F87830012B28D0D9
:1048300083684166B3F5805FA0F86820A0F86A201D
:104840002BD003B3B3F1805F32D002680021222362
:10485000C16780F8781080F87A30936843F00103DC
:1048600093601068136810F0005012D043F4807306
:1048700008461360936843F08053936070470120AB
:10488000704702207047036973B17F23A0F86C3032
:10489000DBE743F4907313607047036923B940F278
:1048A000FF13A0F86C30D0E7FF23A0F86C30CCE702
:1048B0000369002BE9D03F23A0F86C30C5E700BFA7
:1048C000704700BF90F87A30222B30D1036882689D
:1048D0009B8CB2F5805FB0F86C109BB210B50DD018
:1048E000426E0B40511C41661370B0F86A40013CA7
:1048F000A4B2A0F86A4054B1002010BD0269002A99
:10490000EED1426E0B4022F8023B4266EDE70368AF
:1049100020211A6822F490721A609A6822F001022B
:104920009A6080F87A1001F021FC204610BD0268E0
:104930000220138B9BB243F008031383704700BF20
:10494000704700BF0368DA692DE9F04117071D6859
:104950000446996800F08D80754805F4907608400B
:10496000064332D1D70202D54E0200F19B801006D9
:104970000ED4560602D5680600F1A580110205D5B1
:104980006A0003D51A6822F080421A60BDE8F081FF
:1049900001F4000105F080000143EAD094F8792089
:1049A000212AF3D1B4F8622092B2002A40F0968016
:1049B0001A68970040F1AC809A6822F400029A606D
:1049C0001A6842F040021A60E0E7D70707D5EE0503
:1049D00005D501261E62E66F46F00106E6679707D9
:1049E00055D5CE0707D5022657071E62E66F46F05B
:1049F0000406E6674FD4160709D505F020063043B4
:104A000005D008201862E06F40F00800E067E06F12
:104A10000028BBD0900606D505F0200501F0805196
:104A200055EA01026AD1E26F110703D49D6815F0BF
:104A3000400568D01A68202122F490721A609A68A2
:104A400022F001029A6084F87A109A68520636D5EC
:104A50009A68606F22F040029A6080B3354B03651C
:104A6000FCF7B0FD002891D0606FBDE8F041036D08
:104A7000184796067FF576AF05F0200601F08057BF
:104A80003E433FF46FAFBDE8F041FFF71BBF560751
:104A9000B1D5CF07AFD504261E62E66F46F00206F9
:104AA000E667A8E720224FF480112046196284F8B7
:104AB000792084F87A20BDE8F04100F095BD2046C9
:104AC000FFF73EFF62E71A682021204622F04002ED
:104AD0001A6084F87910FFF7F3FE57E7A268B2F581
:104AE000805F1AD0E26D511CE16512781A85B4F826
:104AF0006230013B9BB2A4F8623047E72046FFF7E3
:104B0000E1FE23688FE72046FFF71AFFE5673DE7E0
:104B10001A6822F080021A6052E72269002AE1D165
:104B2000E26D32F8021BC1F308011985E265DEE788
:104B300001000010394B000808B5806B0023A0F875
:104B40006A30A0F86230FFF7FBFE08BD704700BF77
:104B500038B503680446194A196821F49071196040
:104B600099680A409A609A6812F040021BD09A68CD
:104B7000416F22F040029A6051B1114B08460B651B
:104B8000FCF720FD10B1606F036D9847002038BD21
:104B900020220F25A0F86A101D6280F87A20FFF706
:104BA000D5FF002038BD20210F25A0F86A201D6206
:104BB00080F87A10FFF7CAFF002038BDFEFFFFEF34
:104BC000C54B0008806B0F212023026810B500241C
:104BD000A0F86A40116280F87A30FFF7B7FF10BD85
:104BE0002DE9F04F0446806AAD4F87B0A368216974
:104BF00040EA0302666923680A43E169D4F80CC0FD
:104C000032431E68A74D37400A43A669AB4242EAC9
:104C100007021A605A6822F4405242EA0C025A60B3
:104C20007BD0226AB0F1005F46EA020679D09D6827
:104C30009D4A606A2A409D4D3243AB429A60DA6ACF
:104C400022F00F0242EA0002DA626FD0984A9342E1
:104C50004DD0984A934200F0A881974A934200F0C1
:104C6000CB81964A934200F08B81954A934200F0A3
:104C7000CD81944A934200F01783934A934200F007
:104C8000EB82884A934239D1904B9B6D03F0070326
:104C9000052B36D88E4E334493F83450202D00F235
:104CA000F182012D2DD9AB1E1E2B2AD8DFE813F07F
:104CB0005102290049022900290029003E02290049
:104CC0002900290029002900290029003C02290087
:104CD000290029002900290029002900290029008C
:104CE0002900290029002900290029000C02774AFF
:104CF000526D02F00702052A40F2F080B1F5004F34
:104D000004D00125284607B0BDE8F08F0022012518
:104D10002846DA6007B0BDE8F08FB0F1005F40F0E0
:104D2000A582D4E90B200243164380E7674A526DFF
:104D300002F03802282AE1D8654DAD5CB1F5004F8C
:104D400000F0D480202D00F22581202DD9D801A299
:104D500052F825F0974E00086B4E0008034D0008EE
:104D6000034D00083B4E0008034D0008034D0008AA
:104D7000034D0008074E0008034D0008034D0008CE
:104D8000034D0008034D0008034D0008034D0008C3
:104D9000034D0008F94D0008034D0008034D0008BD
:104DA000034D0008034D0008034D0008034D0008A3
:104DB000034D0008034D0008034D0008034D000893
:104DC000034D0008034D0008034D0008034D000883
:104DD000034D0008D94D00083D494FF40042646876
:104DE000002501EB4000818FB2FBF1F202EB54028F
:104DF000B2FBF4F292B28BE735490025646801EB0F
:104E00004000344AEFE7314A156815F0200500F0FC
:104E10001D82166800252E49C6F3C1062E4A01EBF5
:104E200040006168F240808FB2FBF0F202EB510269
:104E3000B2FBF1F292B2DA6064E768460025FDF752
:104E4000E3FF234A616A019B02EB4102928FB3FBAD
:104E5000F2F3D4E9000103EB5103B3FBF1F39BB28E
:104E6000C360284607B0BDE8F08FFDF75BF9002569
:104E7000174A636A616802EB43022468938FB0FBB0
:104E8000F3F303EB51032846B3FBF1F39BB2E3606A
:104E900007B0BDE8F08FFDF72FF90D4AE9E700BF35
:104EA000F369FFCF000C0058FFF4FF110010014020
:104EB0000044004000480040004C004000500040CA
:104EC0000014014000780040007C0040004402587B
:104ED00020B2000800093D000090D003B44DB1F5A8
:104EE000004F2A4492F82C507FF42CAF202D66D826
:104EF000202D3FF60BAF01A252F825F0C15000085B
:104F0000915000080D4D00080D4D0008815000081B
:104F10000D4D00080D4D00080D4D00085B500008B8
:104F20000D4D00080D4D00080D4D00080D4D0008F9
:104F30000D4D00080D4D00080D4D00084D500008A6
:104F40000D4D00080D4D00080D4D00080D4D0008D9
:104F50000D4D00080D4D00080D4D00080D4D0008C9
:104F60000D4D00080D4D00080D4D00080D4D0008B9
:104F70000D4D00080D4D00080D4D00082150000892
:104F80008C4A526D02F00702052A3FF6B7AE8A4DF1
:104F9000AD5CD3E6402D7FF4B4AE03A80025FDF749
:104FA000DFFF834A616A049B4EE7824A526D02F03A
:104FB0000702052A3FF6A2AE804DAD5CBEE6402D4D
:104FC0007FF4A4AE03A80025FDF7CAFF7848636A02
:104FD000049A00EB4300808FD4E90036B2FBF0F274
:104FE000710801EB4201B1FBF6F1C1F3420221F07D
:104FF0000F010A4392B28BE66E4A526D02F007022D
:10500000052A3FF67BAE6E4DAD5C97E6694A526D60
:1050100002F03802282A3FF671AE6A4DAD5C8DE68B
:10502000634E4FF400426468002506EB40006108BF
:10503000808FB2FBF0F201EB4201B1FBF4F1C1F35E
:10504000420221F00F010A4392B261E6584A00255C
:10505000646802EB40005C4AE9E7564A156815F0BF
:10506000200500F02D81166800255149C6F3C106C0
:10507000564A01EB40006468F240808F6108D8E72F
:1050800068460025FDF7C0FE4948636A019AA0E71B
:10509000474E0025FDF746F8636A616806EB430654
:1050A00023684A08B48FB0FBF4F002EB4002B2FB75
:1050B000F1F1C1F3420221F00F010A4392B227E657
:1050C0003B4EFDF719F8E7E74FF40040676807EB40
:1050D000470383423FF615AEB0EB073F3FF611AEF4
:1050E000202D00F2D780012D14D9AB1E1E2B11D814
:1050F000DFE803F08E10701010104C10101010101C
:10510000101032101010101010101010101010107D
:10511000101098000125A0F540722D4B9A423FF6E1
:10512000F0AD2368D860EDE52748CFE7214B1A683A
:10513000920640F1C3801B682448C3F3C103D840E2
:10514000C4E76846FDF760FE01980028BED1054619
:10515000D8E5FDF743FEF8E7636A00211A48002509
:1051600006EB43039A8F0023FBF712F93A464FEA06
:1051700001292B467F084FEA002849EA106918EBFD
:10518000070049F10001FBF703F9C4E7094A136876
:1051900013F0200800F09A8012680021636AC2F3BD
:1051A000C1020A4806EB43030D46D040DAE700BFD0
:1051B00020B20008004402584CB200084CB200086B
:1051C0004CB2000820B2000800093D000090D00356
:1051D000FFFC0F0068460025FDF716FE636A019884
:1051E000294606EB4303D4F804809A8F0023FBF78B
:1051F000CFF842460F022B464FEA5808060247EA0C
:10520000106716EB080047F10001FBF7C1F882E7D1
:10521000FDF7E4FD636A0021D4F8048006EB430344
:105220000D46E2E7636A4FF4004578083A4606EB1C
:1052300043064FF4807700210023B68FB5FBF6F5C7
:10524000E5FB07011D46FBF7A3F864E72C496468FA
:1052500001EB40002B4AC6E52B4A526D02F00702D3
:10526000052A3FF64BAD294DAD5C67E59968284AA4
:105270000A4032439A60DA6A616A22F00F020A43F6
:10528000DA6201E5402D7FF43CAD03A8FDF768FE2E
:1052900004985AE7402D7FF43DAF03A80025FDF7A1
:1052A0005FFE636A04989BE7174A526D02F007029B
:1052B000052A3FF623AD174DAD5C3FE5114805E7E4
:1052C0000F4A646802EB40000E4AB0E6636A0021B0
:1052D0000C48454606EB43039A8F0023FBF758F82A
:1052E0003A464FEA012B43467F084FEA002A4BEA31
:1052F000106B1AEB07004BF10001FBF749F80AE7C6
:1053000020B200080090D003004402584CB20008BC
:10531000FFF4FF114CB20008436BDA0710B406D556
:105320000168846B4A6822F4003222434A609C0779
:1053300006D50168C46B4A6822F4803222434A6071
:10534000590706D50168046C4A6822F4802222437A
:105350004A601A0706D50168446C4A6822F4004284
:1053600022434A60DC0606D50168846C8A6822F410
:10537000805222438A60990606D50168C46C8A6807
:1053800022F4005222438A605A060AD50168046D4D
:105390004A68B4F5801F22F4801242EA04024A608F
:1053A0000BD01B0606D50268816D536823F40023D9
:1053B0000B4353605DF8044B70474A68446D22F418
:1053C000C00222434A60ECE72DE9F843089F80467B
:1053D0000E4615469946D8F8002001E07B1C0AD1FC
:1053E000D46936EA04030CBF01240024AC42F5D092
:1053F0000020BDE8F8833FB1FBF782F9A0EB09007C
:10540000B842E8D9D8F800201368202100240320EE
:1054100023F4D0731360936823F00103936088F83A
:10542000791088F8784088F87A10E2E72DE9F041A1
:105430001F4690F8793082B0202B5ED10E460029AD
:1054400057D0B2FA82F315465B09002A51D090F882
:1054500078200446012A50D00122C367212380F816
:10546000782080F87930FBF74BF9A4F86250B4F853
:1054700062208046A4F8605092B24AB929E013F83D
:10548000011B22681E461185B4F8622092B202B355
:10549000B4F86250434600970022013D8021204627
:1054A000ADB2A4F86250FFF78FFF334648BBA26845
:1054B000B2F5805FE3D12269002AE0D136F8023BE1
:1054C0002268C3F308031385B4F8622092B2002A5D
:1054D000DED143460022402120460097FFF774FFAB
:1054E00078B9202384F8780084F8793002B0BDE8D8
:1054F000F081012002B0BDE8F081022002B0BDE8D9
:10550000F081032002B0BDE8F08100BF70B5002635
:10551000044682B0C667FBF7F3F8236805461A68AD
:1055200012070DD41B685B0719D4002320221846EC
:1055300084F8792084F8783084F87A2002B070BD3D
:105540006FF07E4032462B464FF40011009020460B
:10555000FFF73AFF78B923681B685B07E5D56FF062
:105560007E402B4600224FF4800100902046FFF73A
:105570002BFF0028D9D0032002B070BD90B310B526
:1055800090F87930044603F0FF0233B322682423F5
:10559000204684F87930136823F001031360FFF785
:1055A0001FFB012817D0636B8BB9236820465A680C
:1055B00022F490425A609A6822F02A029A601A688D
:1055C00042F00102BDE810401A60FFF79FBF20467D
:1055D000FFF7A2FEE9E7012010BD80F8782001F076
:1055E000DBFCD3E701207047704700BF30B522488D
:1055F0004FF4C012214C00238BB004218382038717
:105600000161836000930393C3600377C0E90042A4
:105610000122C0E90A33C0E90C33CDE90133CDE9F9
:105620000433CDE90633CDE9083382614262FBF7EA
:105630007FF8B8B9002369460F480093FBF7F2FDE5
:10564000B8B9002305250124062203A90A48CDE99B
:105650000354CDE90523CDE90733FBF7DDF920B984
:105660000BB030BD01F0B2F9E4E701F0AFF90BB0D7
:1056700030BD01F0ABF9E4E71C220120002002401C
:105680001C4800231C4A042130B54FF4C01489B0D3
:105690000260012283820387446001618360019379
:1056A000C360037782614262C0E90A33C0E90C3308
:1056B000CDE90233CDE90433CDE90633FBF738F801
:1056C00080B900230B250124022201A90948CDE954
:1056D0000154CDE90323CDE90533FBF79DF920B94A
:1056E00009B030BD01F072F9EBE701F06FF909B0D4
:1056F00030BD00BFB8210120002102403449002301
:10570000026870B58A428AB0CDE90533CDE9073326
:10571000099323D02F4B9A4201D00AB070BD2E4A74
:1057200013680133012B136043D02C4B0226032551
:1057300005A9D3F8E0200024294842F00402C3F868
:10574000E020D3F8E030059603F004030493049BB3
:10575000CDE90654FBF784FF0AB070BD1E4A1368FA
:105760000133012B136016D01C4B0226032505A91B
:10577000D3F8E02000241B483243C3F8E020D3F8DC
:10578000E030059633400293029BCDE90654FBF7C7
:1057900067FF0AB070BD114BD3F8D82042F0200249
:1057A000C3F8D820D3F8D83003F020030193019B2D
:1057B000DAE70A4BD3F8D82042F02002C3F8D82009
:1057C000D3F8D83003F020030393039BADE700BF69
:1057D000002002400021024088210120004402589C
:1057E000000802580004025840F6726399424AD8F1
:1057F0002DE9F04340F6746543F6D017814640F634
:1058000073666D1A00F104080744ADB22DED028BEA
:1058100083B0B54235D8A6EB050C09EB850400230F
:1058200015FA8CFC224608EB8C0C52F8040B9445BC
:105830000344FAD14FF0000EB3FBF1F254F8043BED
:105840009B1AA44503FB03EEF8D107EE90EAB8EEED
:10585000670BB5EE400BB1EEC08BF1EE10FA13D42E
:10586000FCEEC87B17EE903A013E013D47F8043D3F
:10587000B6B2ADB2B142CCD103B0BDEC028BBDE843
:10588000F0830023F0E77047019104F01DFDFCEE6A
:10589000C87B019917EE903AE6E700BFF8B50E46CF
:1058A0001546002143F6D0120446304601F058FC5C
:1058B0006B1E9AB2B2F5646F1BD2DBB2043C06EBEE
:1058C00082069F0004EB82040437A4EB83048DB1AD
:1058D0003B19002153F80409A3420144FAD1B1FB5A
:1058E000F5F10132043446F8041B93B2B3F5646F4A
:1058F000EDD3F8BD2946F4E7F8B50E46154600216C
:1059000041F6E8420446304601F02AFC6B1E9AB28A
:10591000B2F5646F1CD2DBB2023C06EB42065F00BC
:1059200004EB42040237A4EB430495B13B19002178
:1059300033F80209A3420144FAD1B1FBF5F189B26F
:105940000132023426F8021B93B2B3F5646FECD334
:10595000F8BD2946F4E700BF00B58BB02422002132
:1059600001A801F0FDFB0E480E4B0360FBF746FD5E
:1059700070B90022022301A90948019205920293FD
:10598000CDE90322FBF794FD28B90BB05DF804FBC9
:1059900001F01CF8EDE701F019F80BB05DF804FB1D
:1059A0008022012000740040184A0023016870B56D
:1059B000914288B0CDE90333CDE90533079301D097
:1059C00008B070BD124A102603A90325D2F8E8409A
:1059D000104844F00054C2F8E840D2F8E84004F01F
:1059E00000540194019CD2F8E04044F00104C2F854
:1059F000E040D2F8E020059302F001020292029BFF
:105A0000CDE90365FBF72CFE08B070BD00740040C3
:105A10000044025800000258F0B5002785B04FF04E
:105A2000010C3A46BE4604AB9E1800EBC2020023AE
:105A300006F80CEC12F8014BFF2C06D116F80C5CA2
:105A40000CFA03F42C4306F80C4C0133082BF1D16B
:105A50000137FAB29142E6D24C1E002C18DD002329
:105A60000C4D1A46194604A801330144DBB211F863
:105A70000C0CA342194682EA0002AA5CF3DB04ABD9
:105A80001C4414F80C0C801A18BF012005B0F0BD9E
:105A90000022F4E774B2000810B50A4C82B04FF44B
:105AA0001652F023204662608DF80730FFF766FD3E
:105AB00001230DF1070120461A46FFF7B7FC02B09B
:105AC00010BD00BF48B7012030B583B000240DF1F0
:105AD000FF3240FA04F3013443F30003082C02F8C8
