:020000040800F2
:1000000000000520897F0008A97D0008AB7D00085D
:10001000AD7D0008AF7D0008B17D00080000000044
:10002000000000000000000000000000B37D000898
:10003000B57D000800000000B77D0008B97D00080C
:10004000D97F0008D97F0008D97F0008D97F000830
:10005000D97F0008D97F0008D97F0008D97F000820
:10006000D97F0008D97F0008D97F0008D97F000810
:10007000D97F0008D97F0008D97F0008D97F000800
:10008000C17D0008D17D0008D97F0008D97F000814
:10009000D97F0008D97F0008D97F0008D97F0008E0
:1000A000D97F0008D97F0008D97F0008D97F0008D0
:1000B000D97F0008D97F0008D97F0008D97F0008C0
:1000C000D97F0008D97F0008D97F0008D97F0008B0
:1000D000D97F0008D97F00088D7E0008D97F0008ED
:1000E000D97F0008E17D0008D97F0008D97F00088A
:1000F000D97F0008D97F0008D97F0008D97F000880
:10010000D97F0008D97F0008D97F0008D97F00086F
:10011000D97F0008D97F0008F17D0008D97F000849
:10012000D97F0008017E0008D97F0008D97F000828
:10013000D97F0008D97F0008D97F0008D97F00083F
:10014000D97F0008D97F0008D97F0008D97F00082F
:10015000D97F0008117E0008D97F0008A57E00081D
:10016000D97F0008D97F0008D97F0008D97F00080F
:10017000D97F0008D97F00080000000000000000BF
:10018000D97F0008D97F0008D97F0008D97F0008EF
:10019000D97F0008D97F000800000000D97F00083F
:1001A000D97F0008D97F000800000000000000008F
:1001B000D97F00080000000000000000D97F00087F
:1001C000D97F0008D97F0008D97F0008D97F0008AF
:0801D000D97F0008D97F000867
:1001E00010B5054C237833B9044B13B10448AFF371
:1001F00000800123237010BD600600200000000075
:100200006CAD000808B5034B1BB103490348AFF3BD
:10021000008008BD00000000640600206CAD0008EE
:10022000034613F8012B002AFBD1181A0138704736
:1002300001F0FF01102A2BDB10F0070F08D010F897
:10024000013B013A8B422DD010F0070F42B3F6D19B
:10025000F0B441EA012141EA014122F007047FF0B4
:1002600000070023F0E80256083C85EA010586EA0B
:10027000010685FA47F5A3FA87F586FA47F6A5FA47
:1002800087F68EB9EED1F0BC01F0FF0102F0070253
:1002900032B110F8013B013A83EA010313B1F8D1FE
:1002A0000020704701387047002D06BF35460338DF
:1002B000073815F0010F07D1013015F4807F02BF18
:1002C000013015F4C03F0130F0BC0138704700BF69
:1002D00081F0004102E000BF83F0004330B54FEAF7
:1002E00041044FEA430594EA050F08BF90EA020F64
:1002F0001FBF54EA000C55EA020C7FEA645C7FEAF7
:10030000655C00F0E2804FEA5454D4EB5555B8BF19
:100310006D420CDD2C4480EA020281EA030382EA8A
:10032000000083EA010180EA020281EA0303362D1C
:1003300088BF30BD11F0004F4FEA01314FF4801CEF
:100340004CEA113102D0404261EB410113F0004F01
:100350004FEA03334CEA133302D0524263EB4303B8
:1003600094EA050F00F0A780A4F10104D5F1200E56
:100370000DDB02FA0EFC22FA05F2801841F10001B1
:1003800003FA0EF2801843FA05F359410EE0A5F185
:1003900020050EF1200E012A03FA0EFC28BF4CF0B6
:1003A000020C43FA05F3C01851EBE37101F000456C
:1003B00007D54FF0000EDCF1000C7EEB00006EEB79
:1003C0000101B1F5801F1BD3B1F5001F0CD3490803
:1003D0005FEA30004FEA3C0C04F101044FEA44525A
:1003E00012F5800F80F09A80BCF1004F08BF5FEAE1
:1003F000500C50F1000041EB045141EA050130BDC1
:100400005FEA4C0C404141EB0101013C28BFB1F5D2
:10041000801FE9D291F0000F04BF01460020B1FA1D
:1004200081F308BF2033A3F10B03B3F120020CDAF0
:100430000C3208DD02F1140CC2F10C0201FA0CF0CE
:1004400021FA02F10CE002F11402D8BFC2F1200C33
:1004500001FA02F120FA0CFCDCBF41EA0C019040E9
:10046000E41AA2BF01EB0451294330BD6FEA040432
:100470001F3C1CDA0C340EDC04F11404C4F120021D
:1004800020FA04F001FA02F340EA030021FA04F32F
:1004900045EA030130BDC4F10C04C4F1200220FA86
:1004A00002F001FA04F340EA0300294630BD21FAC4
:1004B00004F0294630BD94F0000F83F4801306BF8A
:1004C00081F480110134013D4EE77FEA645C18BF7E
:1004D0007FEA655C29D094EA050F08BF90EA020F15
:1004E00005D054EA000C04BF1946104630BD91EA0D
:1004F000030F1EBF0021002030BD5FEA545C05D110
:100500004000494128BF41F0004130BD14F580044E
:100510003CBF01F5801130BD01F0004545F0FE41C2
:1005200041F470014FF0000030BD7FEA645C1ABFF7
:10053000194610467FEA655C1CBF0B46024650EA2E
:10054000013406BF52EA033591EA030F41F400215A
:1005500030BD00BF90F0000F04BF0021704730B5E0
:100560004FF4806404F132044FF000054FF00001B5
:1005700050E700BF90F0000F04BF0021704730B576
:100580004FF4806404F1320410F0004548BF40424B
:100590004FF000013EE700BF42004FEAE2014FEAA0
:1005A00031014FEA02701FBF12F07F4393F07F4F7B
:1005B00081F06051704732F07F4208BF704793F07E
:1005C0007F4F04BF41F40021704730B54FF4607491
:1005D00001F0004521F000411CE700BF50EA010294
:1005E00008BF704730B54FF000050AE050EA01023D
:1005F00008BF704730B511F0004502D5404261EBAD
:1006000041014FF4806404F132045FEA915C3FF4ED
:10061000D8AE4FF003025FEADC0C18BF03325FEA8A
:10062000DC0C18BF033202EBDC02C2F1200300FA3B
:1006300003FC20FA02F001FA03FE40EA0E0021FA60
:1006400002F11444BDE600BF70B54FF0FF0C4CF44E
:10065000E06C1CEA11541DBF1CEA135594EA0C0F00
:1006600095EA0C0F00F0DEF82C4481EA030621EA3B
:100670004C5123EA4C5350EA013518BF52EA033576
:1006800041F4801143F4801338D0A0FB02CE4FF028
:100690000005E1FB02E506F00042E0FB03E54FF058
:1006A0000006E1FB03569CF0000F18BF4EF0010E50
:1006B000A4F1FF04B6F5007F64F5407404D25FEA4C
:1006C0004E0E6D4146EB060642EAC62141EA5551FF
:1006D0004FEAC52040EA5E504FEACE2EB4F1FD0C41
:1006E00088BFBCF5E06F1ED8BEF1004F08BF5FEABF
:1006F000500E50F1000041EB045170BD06F0004671
:1007000046EA010140EA020081EA0301B4EB5C041D
:10071000C2BFD4EB0C0541EA045170BD41F4801115
:100720004FF0000E013C00F3AB8014F1360FDEBF3A
:10073000002001F0004170BDC4F10004203C35DA16
:100740000C341BDC04F11404C4F1200500FA05F399
:1007500020FA04F001FA05F240EA020001F000423A
:1007600021F0004110EBD37021FA04F642EB0601B0
:100770005EEA430E08BF20EAD37070BDC4F10C04DA
:10078000C4F1200500FA04F320FA05F001FA04F29E
:1007900040EA020001F0004110EBD37041F100018A
:1007A0005EEA430E08BF20EAD37070BDC4F1200595
:1007B00000FA05F24EEA020E20FA04F301FA05F2FD
:1007C00043EA020321FA04F001F0004121FA04F2A5
:1007D00020EA020000EBD3705EEA430E08BF20EA75
:1007E000D37070BD94F0000F0FD101F000464000AF
:1007F00041EB010111F4801F08BF013CF7D041EA31
:10080000060195F0000F18BF704703F00046520034
:1008100043EB030313F4801F08BF013DF7D043EA05
:100820000603704794EA0C0F0CEA135518BF95EABB
:100830000C0F0CD050EA410618BF52EA4306D1D142
:1008400081EA030101F000414FF0000070BD50EA61
:10085000410606BF1046194652EA430619D094EAEB
:100860000C0F02D150EA013613D195EA0C0F05D1D5
:1008700052EA03361CBF104619460AD181EA030129
:1008800001F0004141F0FE4141F470014FF00000E1
:1008900070BD41F0FE4141F4780170BD70B54FF07C
:1008A000FF0C4CF4E06C1CEA11541DBF1CEA1355FC
:1008B00094EA0C0F95EA0C0F00F0A7F8A4EB0504DE
:1008C00081EA030E52EA03354FEA013100F08880D5
:1008D0004FEA03334FF0805545EA131343EA12639E
:1008E0004FEA022245EA111545EA10654FEA002653
:1008F0000EF000419D4208BF964244F1FD0404F50C
:10090000407402D25B084FEA3202B61A65EB030567
:100910005B084FEA32024FF480104FF4002CB6EB24
:10092000020E75EB030E22BFB61A754640EA0C00A4
:100930005B084FEA3202B6EB020E75EB030E22BFE4
:10094000B61A754640EA5C005B084FEA3202B6EB25
:10095000020E75EB030E22BFB61A754640EA9C00E4
:100960005B084FEA3202B6EB020E75EB030E22BFB4
:10097000B61A754640EADC0055EA060E18D04FEA72
:10098000051545EA16754FEA06164FEAC30343EA12
:1009900052734FEAC2025FEA1C1CC0D111F4801FDF
:1009A0000BD141EA00014FF000004FF0004CB6E7D8
:1009B00011F4801F04BF01430020B4F1FD0C88BF77
:1009C000BCF5E06F3FF6AFAEB5EB030C04BFB6EB82
:1009D000020C5FEA500C50F1000041EB045170BD75
:1009E0000EF0004E4EEA113114EB5C04C2BFD4EBA2
:1009F0000C0541EA045170BD41F480114FF0000E26
:100A0000013C90E645EA060E8DE60CEA135594EAA1
:100A10000C0F08BF95EA0C0F3FF43BAF94EA0C0FA4
:100A20000AD150EA01347FF434AF95EA0C0F7FF419
:100A300025AF104619462CE795EA0C0F06D152EA6D
:100A400003353FF4FDAE1046194622E750EA410651
:100A500018BF52EA43067FF4C5AE50EA41047FF462
:100A60000DAF52EA43057FF4EBAE12E74FF0FF3CC7
:100A700006E000BF4FF0010C02E000BF4FF0010C98
:100A80004DF804CD4FEA410C7FEA6C5C4FEA430C11
:100A900018BF7FEA6C5C1BD001B050EA410C0CBF60
:100AA00052EA430C91EA030F02BF90EA020F0020C2
:100AB000704710F1000F91EA030F58BF994208BF29
:100AC00090422CBFD8176FEAE37040F001007047E6
:100AD0004FEA410C7FEA6C5C02D150EA013C07D13D
:100AE0004FEA430C7FEA6C5CD6D152EA033CD3D088
:100AF0005DF8040B704700BF8446104662468C4682
:100B00001946634600E000BF01B5FFF7B7FF0028B4
:100B100048BF10F1000F01BD4DF808EDFFF7F4FFDD
:100B20000CBF012000205DF808FB00BF4DF808ED68
:100B3000FFF7EAFF34BF012000205DF808FB00BF8B
:100B40004DF808EDFFF7E0FF94BF012000205DF8AD
:100B500008FB00BF4DF808EDFFF7CEFF94BF012062
:100B600000205DF808FB00BF4DF808EDFFF7C4FF5B
:100B700034BF012000205DF808FB00BF4FEA410CA4
:100B80007FEA6C5C02D150EA013C0AD14FEA430C87
:100B90007FEA6C5C02D152EA033C02D14FF00000C4
:100BA00070474FF0010070474FEA410212F5001202
:100BB00015D211D56FF47873B3EB625212D94FEAA4
:100BC000C12343F0004343EA505311F0004F23FA8E
:100BD00002F018BF404270474FF00000704750EAE3
:100BE000013005D111F0004008BF6FF000407047A0
:100BF0004FF00000704700BF53B94AB9002908BF41
:100C000000281CBF4FF0FF314FF0FF3000F06EB9ED
:100C1000ADF1080C6DE904CE00F006F8DDF804E053
:100C2000DDE9022304B070472DE9F047089D044632
:100C30008C46002B40F083808A42174647D9B2FA8F
:100C400082F242B1C2F1200024FA00F091409740B4
:100C500040EA010C94404FEA1748230CBCFBF8F61D
:100C60001FFA87FE08FB16C143EA014306FB0EF19B
:100C7000994209D9FB1806F1FF3080F01981994299
:100C800040F21681023E3B445B1AA4B2B3FBF8F07B
:100C900008FB103344EA034400FB0EFEA64509D9C5
:100CA0003C1900F1FF3380F00581A64540F2028136
:100CB00002383C4440EA0640A4EB0E0400261DB175
:100CC000D4400023C5E900433146BDE8F08702B9AE
:100CD000FFDEB2FA82F2002A50D1CB1B4FEA174E48
:100CE0001FFA87F80126B3FBFEFC210C0EFB1C3318
:100CF00041EA034108FB0CF38B4207D979180CF148
:100D0000FF3002D28B4200F2E9808446C91AA3B2B6
:100D1000B1FBFEF00EFB101143EA014408FB00F8A2
:100D2000A04507D93C1900F1FF3302D2A04500F2DB
:100D3000D9801846A4EB080440EA0C40BFE78B4278
:100D400009D9002D00F0B1800026C5E90001304628
:100D50003146BDE8F087B3FA83F6002E4AD18B42C4
:100D600002D3824200F2B880841A61EB03010120B1
:100D70008C46002DA8D0C5E9004CA5E7C2F12003A0
:100D800020FA03F6974001FA02F04FEA174ED940D5
:100D90003043030CB1FBFEF61FFA87F80EFB161169
:100DA00043EA014306FB08F1994204FA02F409D927
:100DB000FB1806F1FF3C80F08D80994240F28A805A
:100DC000023E3B445B1A81B2B3FBFEF00EFB1033D4
:100DD00041EA034100FB08F38B4207D9791800F17F
:100DE000FF3C73D28B4271D902383944CB1A40EAA6
:100DF000064678E7C6F1200C03FA06F422FA0CF353
:100E00001C4320FA0CF701FA06F34FEA144E21FABC
:100E10000CF11F433B0CB1FBFEF91FFA84F80EFBEB
:100E2000191143EA014109FB08FA8A4502FA06F260
:100E300000FA06F308D9611809F1FF3048D28A4553
:100E400046D9A9F102092144A1EB0A01BFB2B1FBC5
:100E5000FEF00EFB101147EA014700FB08F8B84509
:100E600007D9E71900F1FF312ED2B8452CD9023845
:100E7000274440EA0940A7EB0807A0FB02894F4539
:100E8000C64649461AD317D05DB1B3EB0E0267EBE5
:100E9000010707FA0CFCF2404CEA0202F740C5E9F0
:100EA000002700263146BDE8F0872E4628460BE78E
:100EB0000646E9E61846FDE64345E5D2B8EB020EE4
:100EC00069EB04010138DFE70846D2E760468DE7A9
:100ED0008146B9E7664675E730464AE7ACF1020C51
:100EE000394413E702383C4424E700BF704700BF91
:100EF00010B504460E4B18784FF47A73B3FBF0F339
:100F00000C4A1068B0FBF3F000F0AAF868B90F2C97
:100F100001D901200AE0002221464FF0FF3000F005
:100F20005DF8034B5C60002000E0012010BD00BFB5
:100F3000000000208C04002008B50B4B1A6842F416
:100F400000721A601A6842F480621A601A6842F4E9
:100F500080721A60032000F02FF80020FFF7C8FF0E
:100F600006F07CFD002008BD003C0240034A1168E9
:100F7000034B1B780B441360704700BFC006002072
:100F800000000020014B1868704700BFC006002019
:100F900038B50446FFF7F6FF0546B4F1FF3F02D02F
:100FA000044B1B781C44FFF7EDFF401BA042FAD313
:100FB00038BD00BF00000020074AD36823F4E06377
:100FC0001B041B0C000200F4E060034343F0BF630A
:100FD00043F40033D360704700ED00E030B4174BAA
:100FE000DB68C3F30223C3F10704042C28BF0424E5
:100FF0001D1D062D18D9033B4FF0FF3505FA04F4EB
:1010000021EA0401994005FA03F322EA0303194394
:1010100000280BDB0901C9B200F1604000F5614016
:1010200080F8001330BC70470023E5E700F00F00A4
:101030000901C9B2024B1954F4E700BF00ED00E00A
:1010400014ED00E0002807DB00F01F024009012337
:101050009340024A42F82030704700BF00E100E0B0
:101060000138B0F1807F0AD2064B5860064AF02161
:1010700082F823100020986007221A607047012030
:10108000704700BF10E000E000ED00E030B40568FC
:101090002C6824F480242C60046863608368402BEF
:1010A00005D0036899600368DA6030BC7047036854
:1010B0009A600368D960F8E710B40368D9B21039B0
:1010C0000C4AA2FB014212090B4CA25CC2655F29CB
:1010D00009D923F47F7323F0030304338365806D00
:1010E0005DF8044B704723F47F7323F0030383659B
:1010F000F5E700BFABAAAAAA88AD0008836A826997
:1011000092B9012B0AD0022B02D00BB100207047FC
:10111000C36A13F0807F28D100207047C36AB3F1FF
:10112000C07F24D000207047B2F5005F09D0022BA9
:1011300025D9032B25D1C36A13F0807F23D100204A
:101140007047032B03D8DFE803F01404140A0020CF
:101150007047C36A13F0807F0DD100207047C36AC7
:10116000B3F1C07F09D000207047012070470120F3
:10117000704701207047012070470120704701200F
:1011800070470020704701207047000070B504468A
:10119000FFF7F8FE002C5BD00546002384F83430BE
:1011A000022384F835302268136823F001031360AA
:1011B00023681A6812F0010F0AD0FFF7E3FE431B01
:1011C000052BF5D920236365032084F8350070BD15
:1011D0001A68204810406168A2680A43E1680A431F
:1011E00021690A4361690A43A1690A43E1690A4323
:1011F000216A0A430243616A04291ED01A602668E4
:10120000756925F00705636A1D43042B07D1A36A9E
:101210001D43E36A1BB12046FFF770FF90B975616B
:101220002046FFF749FFE26D3F2393408360002093
:101230006065012384F83530C9E7E16A206B01431A
:101240000A43DBE740236365012084F83500BEE7ED
:101250000120BCE73F8010E038B50446856D90F86A
:10126000340001282BD0012084F8340094F8350094
:10127000C0B2012804D0002384F83430022038BDE5
:10128000022084F83500002060652046FFF7FEFE4E
:10129000E26D3F239340AB602268136843F016036E
:1012A0001360236C23B12268136843F008031360B2
:1012B0002268136843F0010313600020DFE7022077
:1012C000DDE770B50446866DFFF75CFE94F83530B7
:1012D000DBB2022B06D080236365002384F8343010
:1012E000012070BD05462268136823F016031360C1
:1012F0002268536923F080035361236CE3B12268B1
:10130000136823F0080313602268136823F00103B5
:10131000136023681B6813F0010F11D0FFF732FE32
:10132000431B052BF5D920236365002384F8343053
:10133000032084F83500D4E7A36C002BDFD1E3E76A
:10134000E26D3F239340B360002084F83400012312
:1013500084F83530C5E790F83530DBB2022B03D086
:101360008023436501207047052380F835300268EB
:10137000136823F00103136000207047F0B583B0B9
:10138000044600230193724B1D68724BA3FB053585
:10139000AD0A876D3E68C26D08239340334210D07A
:1013A00003681A6812F0040F0BD01A6822F00402C6
:1013B0001A60C26D08239340BB60436D43F0010384
:1013C0004365E26D01239340334209D0226852699C
:1013D00012F0800F04D0BB60636D43F002036365BD
:1013E000E26D04239340334209D02268126812F060
:1013F000020F04D0BB60636D43F004036365E26DCC
:1014000010239340334224D02268126812F0080F50
:101410001FD0BB6023681A6812F4802F0DD01B68A0
:1014200013F4002F04D1236C9BB12046984710E0A1
:10143000A36C73B1204698470BE01A6812F4807FC2
:1014400003D11A6822F008021A60236C0BB12046FF
:101450009847E26D20239340334255D022681268AA
:1014600012F0100F50D0BB6094F83530DBB2052B72
:101470000ED023681A6812F4802F33D01B6813F43F
:10148000002F2AD1636C002B3ED0204698473BE0CA
:101490002268136823F0160313602268536923F04F
:1014A00080035361236CA3B12268136823F00803FF
:1014B0001360E26D3F239340BB60002384F8343017
:1014C000012384F83530236D002B3FD02046984708
:1014D0003CE0A36C002BE7D1EBE7E36BA3B1204624
:1014E000984711E01A6812F4807F09D11A6822F037
:1014F00010021A60002384F83430012384F8353058
:10150000E36B0BB120469847636DFBB1636D13F03D
:10151000010F17D0052384F835302268136823F0B3
:1015200001031360019B01330193AB4204D823688C
:101530001B6813F0010FF5D1002384F83430012328
:1015400084F83530E36C0BB12046984703B0F0BD0A
:101550008C040020B5814E1B00230F2B00F2D3809A
:10156000F0B583B039E0062200E00022B2403A43F1
:101570000234654E46F82420644A1468EA4324EA9B
:1015800005064F6817F4803F01D045EA04065F4C1A
:101590002660646802EA04064F6817F4003F01D031
:1015A00045EA0406594C6660A46802EA04064F68DE
:1015B00017F4801F01D045EA0406544CA660E46885
:1015C00022404E6816F4001F01D045EA04024F4C39
:1015D000E26001330F2B00F2948001229A400C68E4
:1015E00004EA020532EA0404F3D14C68661E012EB7
:1015F00003D9112C01D0122C12D186685F0003246C
:10160000BC4026EA0406CC68BC403443846046688B
:1016100026EA02064C68C4F300129A403243426044
:10162000C7685E000324B440E24327EA04078C68DD
:10163000B4403C43C4604C68022C01D0122C13D13E
:10164000DF08083750F827E003F007044FEA840C5E
:101650000F2404FA0CF42EEA040E0C6904FA0CF4BC
:1016600044EA0E0440F82740046814404A6802F037
:101670000302B240224302604A6812F0805FA8D0A1
:1016800000220192224A546C44F480445464526C07
:1016900002F480420192019A9C08A61C1A4A52F850
:1016A000267003F0030296000F22B24027EA0207D9
:1016B000184A90423FF459AF02F58062904216D02A
:1016C00002F58062904214D002F58062904212D0FE
:1016D00002F58062904210D002F5806290420ED0F6
:1016E00002F5806290423FF43EAF07223EE70122BE
:1016F0003CE702223AE7032238E7042236E70522D4
:1017000034E703B0F0BD704700380140003C0140B1
:1017100000380240000002400AB1816170470904AC
:1017200081617047F8B5244B9B6803F00C03042BD0
:101730003DD0082B3DD1204B5A6802F03F025B6838
:1017400013F4800F12D01C4B5968C1F38811002389
:101750001A48A1FB0001FFF74FFA174B5B68C3F370
:10176000014301335B00B0FBF3F023E0124B5B68F5
:10177000C3F388135C010025E41A65F10005AE018E
:1017800046EA9466A701381B66EB0501CC0044EAE3
:101790005074C500E81844F100018B0243EA9053ED
:1017A0008402204619460023FFF726FAD5E70348AE
:1017B00000E00348F8BD00BF00380240001BB7003E
:1017C0000024F400002800F09B8070B50D4604460C
:1017D0004F4B1B6803F00F038B4208D2CBB24C4A2D
:1017E0001370136803F00F038B4240F08B80236863
:1017F00013F0020F17D013F0040F04D0454A93687A
:1018000043F4E0539360236813F0080F04D0414A77
:10181000936843F4604393603E4A936823F0F00377
:10182000A1680B439360236813F0010F32D0636803
:10183000012B21D09A1E012A25D9364A126812F0AE
:10184000020F61D033498A6822F0030213438B6090
:10185000FFF798FB06462F4B9B6803F00C0362686A
:10186000B3EB820F16D0FFF78DFB801B41F288335C
:101870009842F0D9032042E0264A126812F4003F51
:10188000E0D101203BE0234A126812F0007FD9D159
:10189000012034E01E4B1B6803F00F03AB4207D955
:1018A000EAB21B4B1A701B6803F00F03AB422DD139
:1018B000236813F0040F06D0164A936823F4E0530C
:1018C000E1680B439360236813F0080F07D0114AB7
:1018D000936823F46043216943EAC1039360FFF7EF
:1018E00021FF0C4B9B68C3F303130B4AD35CD84016
:1018F0000A4B18600A4B1868FFF7FAFA002070BD0F
:10190000012070470120FAE70120F8E70120F6E7FF
:10191000003C024000380240C4FF00088C04002054
:1019200004000020014B1868704700BF8C040020A1
:1019300008B5FFF7F7FF044B9B68C3F38223034A04
:10194000D35CD84008BD00BF00380240D4FF000877
:1019500008B5FFF7E7FF044B9B68C3F34233034A24
:10196000D35CD84008BD00BF00380240D4FF000857
:1019700070B582B00446056815F001050DD0B04A77
:10198000D2F88C3023F0C063C1690B43C2F88C30AD
:10199000C369002B00F0BE800025236813F0020FFE
:1019A0000BD0A74AD2F88C3023F0C053216A0B43E6
:1019B000C2F88C30236A03B90125236813F4005F51
:1019C0000FD09F4AD2F88C3023F44013A16C0B4304
:1019D000C2F88C30A36C03B90125B3F5001F00F0E9
:1019E0009B80236813F4804F0FD0954AD2F88C3037
:1019F00023F44003E16C0B43C2F88C30E36C03B971
:101A00000125B3F5000F00F09380236813F0080F51
:101A100040F09A80236813F0040F03D094F8542008
:101A2000884B1A60236813F0100F08D0844AD2F84C
:101A3000943023F44003E16A0B43C2F894302368E6
:101A400013F0200F0DD07E4AD2F8943023F00063BB
:101A5000216B0B43C2F89430236BB3F1006F00F09D
:101A6000DA80236813F0400F08D0754AD2F894301A
:101A700023F08053A16A0B43C2F89430002D40F04C
:101A8000CC802368802B00F0C880236813F4807F0B
:101A900008D06B4AD2F88C3023F00043616B0B43C3
:101AA000C2F88C30236813F4007F08D0644AD2F85F
:101AB0008C3023F40043A16B0B43C2F88C302368B5
:101AC00013F4806F08D05E4AD2F88C3023F00043C4
:101AD000E16B0B43C2F88C30236813F4006F08D01D
:101AE000574AD2F88C3023F48043216C0B43C2F860
:101AF0008C30236813F4805F00F01E81504AD2F8C6
:101B0000943023F04043616C0B43C2F894300020C2
:101B100002B070BD012540E74949D1F88C3023F46B
:101B2000F8536269013A43EA0223C1F88C3058E75E
:101B30004349D1F88C3023F4F8536269013A43EAFF
:101B40000223C1F88C3060E7002301933C4B1A6CF0
:101B500042F080521A641B6C03F080530193019B86
:101B6000394A136843F480731360FFF70BFA064693
:101B7000354B1B6813F4807F06D1FFF703FA801BF7
:101B80000228F5D90320C3E72D4B1B6F13F44073D4
:101B900012D0626A02F440729A420DD0284B1A6F3A
:101BA00022F44072294901200860002008601A6769
:101BB0001B6F13F0010F12D1636A03F44072B2F588
:101BC000407F1DD01E4A936823F4F81393601C498C
:101BD0000B6F626AC2F30B0213430B671AE7FFF73E
:101BE000D1F90646164B1B6F13F0020FE4D1FFF735
:101BF000C9F9801B41F288339842F3D9032087E763
:101C00000F498A6822F4F81223F0704323F44073DA
:101C100013438B60DBE7012523E70D4B00221A609D
:101C2000FFF7B0F90546064B1B6813F0006F11D0A3
:101C3000FFF7A8F9401B0228F5D9032068E700BF89
:101C400000380240E011474200700040400E474219
:101C500068004742226D394B1A60236813F0010F68
:101C600001D0E269A2B113F0020F01D0226A7AB169
:101C700013F0200F03D0226BB2F1006F08D013F0E5
:101C8000400F12D0A36A83B9236BB3F1006F0CD15C
:101C90006368A26843EA8213E26843EA0263226946
:101CA00043EA0273264AC2F88430236813F4005FC3
:101CB00001D0A26C22B113F4804F19D0E36CBBB9F0
:101CC0001F4AD2F884106368A06843EA801301F0C9
:101CD00070610B43216943EA0173C2F88430D2F882
:101CE0008C3023F01F03A16901390B43C2F88C30FB
:101CF000236813F0800F0CD06368A26843EA821354
:101D0000E26843EA0263226943EA02730C4AC2F8BA
:101D100084300C4B01221A60FFF734F90546084B5A
:101D20001B6813F0006F7FF4B0AEFFF72BF9401B78
:101D30000228F4D90320EBE60020E9E6D810474258
:101D4000003802406800474270B582B0044603681C
:101D500013F0010F3BD0A74B9B6803F00C03042B3F
:101D60002CD0A44B9B6803F00C03082B21D0636894
:101D7000B3F5803F4FD0B3F5A02F52D09D4B1A68DA
:101D800022F480321A601A6822F480221A60636892
:101D9000002B50D0FFF7F6F80546964B1B6813F45E
:101DA000003F14D1FFF7EEF8401B6428F5D903205B
:101DB0008CE1904B5B6813F4800FD8D08D4B1B687F
:101DC00013F4003F03D06368002B00F07A8123688E
:101DD00013F0020F54D0874B9B6813F00C0F3ED0CA
:101DE000844B9B6803F00C03082B33D0E368002B73
:101DF00067D0814B01221A60FFF7C4F805467D4B7E
:101E00001B6813F0020F53D1FFF7BCF8401B0228E8
:101E1000F5D903205AE1774A136843F480331360FD
:101E2000B5E7744B1A6842F480221A601A6842F4CB
:101E300080321A60ABE7FFF7A5F805466D4B1B68CB
:101E400013F4003FC3D0FFF79DF8401B6428F5D979
:101E500003203BE1674B5B6813F4800FC6D1654BF1
:101E60001B6813F0020F03D0E368012B40F02B81B5
:101E7000604A136823F0F803216943EAC103136041
:101E8000236813F0080F40D0636963B35B4B0122F2
:101E90001A60FFF777F80546564B5B6F13F0020F99
:101EA00033D1FFF76FF8401B0228F5D903200DE16D
:101EB000504A136823F0F803216943EAC103136011
:101EC000DEE74D4B00221A60FFF75CF80546494BF0
:101ED0001B6813F0020FD3D0FFF754F8401B022801
:101EE000F5D90320F2E0454B00221A60FFF74AF8CB
:101EF0000546404B5B6F13F0020F06D0FFF742F828
:101F0000401B0228F5D90320E0E0236813F0040FFA
:101F100079D0384B1B6C13F0805F0DD100230193F7
:101F2000344B1A6C42F080521A641B6C03F08053DD
:101F30000193019B012500E00025314B1B6813F440
:101F4000807F21D0A368012B32D0052B36D0294BBE
:101F50001A6F22F001021A671A6F22F004021A6740
:101F6000A368002B34D0FFF70DF80646214B1B6FFA
:101F700013F0020F46D1FFF705F8801B41F28833BA
:101F80009842F3D90320A1E01D4A136843F48073FB
:101F90001360FEF7F7FF0646194B1B6813F4807FAA
:101FA000D0D1FEF7EFFF801B0228F5D903208DE08A
:101FB000104A136F43F001031367D1E70D4B1A6FFB
:101FC00042F004021A671A6F42F001021A67C7E76B
:101FD000FEF7D8FF0646074B1B6F13F0020F11D018
:101FE000FEF7D0FF801B41F288339842F3D90320DB
:101FF0006CE000BF0038024000004742800E4742BC
:1020000000700040E5B9A369002B5ED0314A9268A8
:1020100002F00C02082A5BD0022B17D02E4B0022B4
:102020001A60FEF7AFFF04462A4B1B6813F0007FCF
:1020300045D0FEF7A7FF001B0228F5D9032045E095
:10204000244A136C23F080531364DCE7224B0022F4
:102050001A60FEF797FF05461E4B1B6813F0007FC2
:1020600006D0FEF78FFF401B0228F5D903202DE094
:10207000E369226A1343626A43EA8213A26A52083E
:10208000013A43EA0243E26A43EA0263226B43EA0B
:102090000273104A5360104B01221A60FEF772FF60
:1020A00004460C4B1B6813F0007F06D1FEF76AFF55
:1020B000001B0228F5D9032008E0002006E00020DC
:1020C00004E0012002E0012000E0002002B070BD29
:1020D0000120FBE7003802406000474210B504468B
:1020E00003689A6812F4805F03D0DB6813F4807F82
:1020F0000FD123689A6812F4005F03D0DB6813F4F1
:10210000007F0FD10C4B4FF400325A6101236377EB
:1021100010BD05F017FC2268D368DBB263F4C0730E
:10212000D360E6E7204600F0B8FA2268D368DBB255
:1021300063F42073D360E5E7003C014038B5044602
:102140000268D36823F0A003D360FEF71BFF0546A7
:102150002368DB6813F0200F07D1FEF713FF401B45
:10216000B0F57A7FF4D9032000E0002038BD38B5FF
:102170000368DA6812F0400F01D0002038BD044631
:102180004FF0FF32DA60FEF7FDFE05462368DB689C
:1021900013F0400F07D1FEF7F5FE431BB3F57A7F2E
:1021A000F4D90320EAE70020E8E738B500285CD03E
:1021B0000446437F002B41D0022363772368CA2261
:1021C0005A62236853225A622046FFF7D0FF054621
:1021D000002837D12268936823F4E00323F04003FA
:1021E000936021688A6863682069034360690343D8
:1021F00013438B602368E2681A6122681369A1683F
:1022000043EA014313612268D36823F08003D3605B
:1022100023689B6813F0200F1BD02268136C23F4F3
:10222000802313642268136CA1690B431364236831
:10223000FF225A6201236377284638BD037705F0F1
:1022400029FCB9E72368FF225A620423637701253A
:10225000F2E72046FFF772FF0028DED02368FF2256
:102260005A62042363770125E6E70125E4E70023AA
:10227000092803D901330A38C0B2F9E71B01DBB2E0
:1022800018437047F8B5037F012B78D004460E46FB
:102290000123037702234377002A47D103689B6811
:1022A00013F0400F01D10023CB703078FFF7DFFF30
:1022B00005047078FFF7DBFF45EA0025B078FFF7EB
:1022C000D6FF0543F07845EA00452368CA225A62E2
:1022D000236853225A622046FFF749FF0746002829
:1022E00036D1236805F07F3525F0FE451D60226854
:1022F000936823F48023936021688B68F2683069C7
:10230000024313438B602268D36823F08003D360B9
:1023100023689B6813F0200F23D02368FF225A62A2
:1023200001236377002323773846F8BD03689B6851
:1023300013F0400F01D10023CB7035787078000284
:1023400040EA0540B5782843F57840EA0545BCE702
:102350002368FF225A62042363770023237701272F
:10236000E2E72046FFF7EAFE0028D6D02368FF22E6
:102370005A6204236377002323770127D4E70227D7
:10238000D2E770B5037F012B66D004460E460123C9
:102390000377022343773AB94B7813F0100F03D039
:1023A00003F0EF030A334B70002A33D1F078FFF7C4
:1023B0005EFF05047078FFF75AFF45EA0025B07804
:1023C000FFF755FF0543307845EA40352368CA22B8
:1023D0005A62236853225A622046FFF7C8FE064617
:1023E00018BB236825F07F4525F0C0055D60226895
:1023F000D36823F08003D36023689B6813F0200F19
:102400001CD02368FF225A620123637700232377BD
:10241000304670BDF5787078000240EA0540B57826
:102420002843357840EA4535D0E72368FF225A62D1
:1024300004236377002323770126E9E72046FFF78B
:102440007DFE0028DDD02368FF225A6204236377D3
:10245000002323770126DBE70226D9E7F0B583B016
:102460000D46634B1B686349A1FB0313DB0A4FF462
:102470007A7101FB03F30193037F012B00F0B58018
:1024800004460123037702234377002A61D10368BE
:102490009B6813F0400F01D10023EB70EF6928789F
:1024A000FFF7E5FE06046878FFF7E1FE46EA00263E
:1024B000A878FFF7DCFE0643E87846EA004695F880
:1024C0002000FFF7D4FE46EA00663E436B691E43D8
:1024D0006868AB6918432368CA225A62236853228A
:1024E0005A626B6AB3F5807F4DD02268936823F4FB
:1024F000007393602268D368DBB263F42073D36007
:10250000019B5A1E0192002B67D02368DA6812F0F3
:10251000020FF5D01E62236898642268936843F422
:10252000007393602268936843F400539360324BC6
:102530001A6842F400321A609A6842F400329A60D3
:102540002368FF225A62012363770020207703B0BB
:10255000F0BD03689B6813F0400F01D10023EB70BE
:10256000EA6929786B781B0243EA0143A9780B4397
:10257000E97843EA014395F8201043EA01631343E5
:102580006E691E43A4E72268936823F48073936006
:102590002268D368DBB263F4C073D360019B5A1E18
:1025A000019293B12368D96811F0010FF6D0DE6172
:1025B000236858642268936843F4807393602268A8
:1025C000936843F480539360B1E72368FF225A6213
:1025D0000320607700232377B9E72368FF225A623C
:1025E0000320607700232377B1E70220AFE700BF25
:1025F0008C040020D34D6210003C0140030903EB22
:10260000830300F00F0000EB4300C0B2704770B5C9
:102610000C4603689B6A4B6003681B69C3F30E0397
:102620008B6003681D68C5F30641C5F30540207043
:10263000C5F30626667005F07F05A57001F040031E
:10264000E37052B9FFF7DAFF20703046FFF7D6FF8C
:1026500060702846FFF7D2FFA070002070BD70B5F3
:1026600003685B68C3F30740C870C3F304264E7069
:1026700003F03F058D70C3F342330B705AB90C461B
:10268000FFF7BCFFE0703046FFF7B8FF60702846E8
:10269000FFF7B4FFA070002070BD70472DE9F04136
:1026A0000646884617461D463468A46838EA04037F
:1026B0000CBF01240024BC4237D0B5F1FF3FF3D05A
:1026C000FEF760FC069BC01AA84201D2002DEBD198
:1026D0003268536823F0E00353607368B3F5827F78
:1026E0000BD0B36AB3F5005F14D0012386F85130E4
:1026F000002386F85030032018E0B368B3F5004F8C
:1027000002D0B3F5806FECD13268136823F0400338
:102710001360E6E73268136823F4005313603268ED
:10272000136843F400531360DFE70020BDE8F08135
:1027300030B585B00446164B1868164BA3FB003025
:10274000400D4FF47A7505FB00F003906368B3F514
:10275000827F0BD0039BBBB1039B013B0393236898
:102760009B6813F0800FF5D100200EE000920B461D
:10277000002280212046FFF791FF30B1636D43F0C6
:1027800020036365032000E0002005B030BD00BFDA
:102790008C040020819F5E1610B582B004460B4663
:1027A0004168B1F5827F14D06168B1F5827F2AD18A
:1027B000A168B1F5806F19D00092002280212046D7
:1027C000FFF76CFF30B3636D43F0200363650320B4
:1027D00020E08168B1F5004F02D0B1F5806FE3D100
:1027E0002068016821F040010160DDE700920022CD
:1027F00001212046FFF752FF60B1636D43F02003D3
:102800006365032006E00092002201212046FFF7C5
:1028100045FF08B902B010BD636D43F02003636546
:102820000320F7E700283BD010B50446002383625D
:1028300090F85130002B2ED0022384F851302268BA
:10284000136823F0400313606368A2681343E268CF
:1028500013432269134362691343A26902F40072AD
:102860001343E2691343226A1343A16A22680B43AC
:102870001360638B03F00403616A22680B435360A7
:102880002268D36923F40063D361002060650123CB
:1028900084F8513010BD80F8503005F011F9CBE7C5
:1028A000012070472DE9F04383B01D4690F8503069
:1028B000012B00F0C780044688469146012380F82A
:1028C0005030FEF75FFB074694F85160F6B2012ED8
:1028D00040F0A580B8F1000F00F0A280B9F1000F20
:1028E00000F09E80032384F8513000236365C4F810
:1028F0003080A4F83490A4F83690A363A387E387CC
:1029000063642364A368B3F5004F1ED023681A687C
:1029100012F0400F03D11A6842F040021A60E368D7
:10292000B3F5006F17D0636813B1B9F1010F4DD142
:10293000226B236812781A73236B01332363E38EAF
:102940009BB2013B9BB2E38640E02268136843F4EC
:1029500080431360DAE7636813B1B9F1010F16D150
:10296000226B23681288DA60236B02332363E38EC1
:102970009BB2013B9BB2E38609E0FEF703FBC01B61
:10298000A84202D3B5F1FF3F54D1002D54D0E38EBD
:102990009BB2002B2ED023689A6812F0020FECD065
:1029A000226B1288DA60236B02332363E38E9BB2BF
:1029B000013B9BB2E386EAE7FEF7E4FAC01BA842BC
:1029C00002D3B5F1FF3F39D1002D39D0E38E9BB250
:1029D00083B123689A6812F0020FEDD0226B12784F
:1029E0001A73236B01332363E28E92B2013A92B2DF
:1029F000E286EBE73A4629462046FFF799FE08B102
:102A000020236365A36833B901932368DA680192D0
:102A10009B680193019B636D13B9002600E00226B9
:102A2000012384F85130002384F85030304603B03D
:102A3000BDE8F0830326F3E70326F1E70326EFE77B
:102A40000326EDE70226F1E72DE9F04383B01F46A8
:102A50000A9D90F85030012B00F010810446884602
:102A60009146012380F85030FEF78CFA064694F820
:102A70005130DBB26268012B0AD0B2F5827F40F0A0
:102A8000E380A268002A40F0E980042B40F0E8804F
:102A9000B8F1000F00F0E680B9F1000F00F0E4801B
:102AA000002F00F0E38094F85130DBB2042B02D009
:102AB000052384F8513000236365C4F83890E78714
:102AC000A787C4F83080E786A786236463642368F9
:102AD0001A6812F0400F03D11A6842F040021A60DF
:102AE000E368B3F5006F11D063680BB1012F0BD110
:102AF000226B236812781A73236B01332363E38EEE
:102B00009BB2013B9BB2E38601276BE063680BB18C
:102B1000012F0BD1226B23681288DA60236B0233FA
:102B20002363E38E9BB2013B9BB2E38601271CE04B
:102B300023689A6812F0010F0ED0E28F92B25AB158
:102B4000DA68A36B1A80A36B0233A363E38F9BB293
:102B5000013B9BB2E3870127FEF714FA801BA842D2
:102B600003D3B5F1FF3F40F08380E38E9BB21BB9E6
:102B7000E38F9BB2002B53D023689A6812F0020FA8
:102B8000D6D0E28E92B2002AD2D0002FD0D0226BC3
:102B90001288DA60236B02332363E38E9BB2013B1E
:102BA0009BB2E3860027C3E723689A6812F0010FFF
:102BB0000ED0E28F92B25AB1DA68A36B1A70A36B8F
:102BC0000133A363E38F9BB2013B9BB2E3870127F1
:102BD000FEF7D8F9831BAB4202D3B5F1FF3F49D1D1
:102BE000002D49D0E38E9BB213B9E38F9BB2BBB1EA
:102BF00023689A6812F0020FD6D0E28E92B2002AB1
:102C0000D2D0002FD0D0226B12781A73236B0133ED
:102C10002363E38E9BB2013B9BB2E3860027C3E7AD
:102C2000324629462046FFF783FD48B9A36863B9B9
:102C300001932368DA6801929B680193019B04E089
:102C400020236365012000E00220012384F8513035
:102C5000002384F8503003B0BDE8F0830220F4E78D
:102C60000220F2E70120F0E70120EEE70120ECE787
:102C70000320EAE70320E8E70320E6E70220EAE78B
:102C80002DE9F04383B00446884691461D464368CB
:102C9000B3F5827F36D094F85030012B00F0A1803C
:102CA000012384F85030FEF76DF9074694F851601F
:102CB000F6B2012E40F08280B8F1000F7FD0B9F15A
:102CC000000F7CD0042384F8513000236365C4F8DE
:102CD0003880A4F83C90A4F83E902363A386E38652
:102CE00023646364A368B3F5004F18D023681A689F
:102CF00012F0400F03D11A6842F040021A60E368F4
:102D0000EBB13BE08368002BC5D1042380F8513040
:102D1000009513460A46FFF797FE064655E02268DF
:102D2000136823F480431360E0E7FEF72BF9C01B20
:102D3000A84202D3B5F1FF3F4BD1002D4BD0E38F1A
:102D40009BB2002B2ED023689A6812F0010FECD0B2
:102D5000A26B1B7B1370A36B0133A363E38F9BB246
:102D6000013B9BB2E387EAE7FEF70CF9C01BA842E0
:102D700002D3B5F1FF3F30D1002D30D0E38F9BB2AD
:102D800083B123689A6812F0010FEDD0DA68A36B63
:102D90001A80A36B0233A363E28F92B2013A92B21C
:102DA000E287EBE73A4629462046FFF7F5FC08B1F3
:102DB00020236365636D13B9002600E0022601231A
:102DC00084F85130002384F85030304603B0BDE819
:102DD000F0830326F3E70326F1E70326EFE7032654
:102DE000EDE70226F1E70268D36843F00103D36000
:102DF0000268936803F00703062B03D0136843F0BF
:102E00000103136000207047704770477047704798
:102E100010B5044603681A6912F0020F11D0DA687F
:102E200012F0020F0DD06FF002021A610123037736
:102E300003689B6913F0030F70D0FFF7E6FF0023D0
:102E4000237723681A6912F0040F12D0DA6812F09F
:102E5000040F0ED06FF004021A6102232377236857
:102E60009B6913F4407F5FD02046FFF7CEFF00231D
:102E7000237723681A6912F0080F12D0DA6812F06B
:102E8000080F0ED06FF008021A610423237723681D
:102E9000DB6913F0030F4ED02046FFF7B6FF002387
:102EA000237723681A6912F0100F12D0DA6812F033
:102EB000100F0ED06FF010021A61082323772368D9
:102EC000DB6913F4407F3DD02046FFF79EFF0023CF
:102ED000237723681A6912F0010F03D0DA6812F021
:102EE000010F36D123681A6912F0800F03D0DA6817
:102EF00012F0800F34D123681A6912F0400F03D00A
:102F0000DA6812F0400F32D123681A6912F0200FEC
:102F100003D0DA6812F0200F30D110BDFFF774FF34
:102F20002046FFF773FF8AE72046FFF76DFF204634
:102F3000FFF76CFF9BE72046FFF766FF2046FFF791
:102F400065FFACE72046FFF75FFF2046FFF75EFF17
:102F5000BDE76FF001021A61204604F0BDFCC1E735
:102F60006FF080021A61204600F0D3F8C3E76FF0DB
:102F700040021A612046FFF74AFFC5E76FF02002C2
:102F80001A61204600F0C4F8C7E700000368304A21
:102F9000904212D0B0F1804F0FD0A2F57C42904207
:102FA0000BD002F58062904207D002F58062904219
:102FB00003D002F57842904203D123F070034A68AF
:102FC0001343234A90422AD0B0F1804F27D0A2F574
:102FD0007C42904223D002F5806290421FD002F5DD
:102FE000806290421BD002F57842904217D002F5E1
:102FF0007052904213D002F5806290420FD002F5D9
:10300000806290420BD0A2F59832904207D002F530
:103010008062904203D002F58062904203D123F493
:103020004073CA68134323F080034A691343036063
:103030008B68C3620B688362054B984203D003F52B
:103040008063984201D10B69036301234361704798
:1030500000000140B0B110B5044690F83D3063B1B6
:10306000022384F83D30214651F8040BFFF78EFF10
:10307000012384F83D30002010BD80F83C3004F07E
:1030800085FDEDE70120704790F83C30012B3BD0E7
:1030900030B4012380F83C30022380F83D300368CF
:1030A0005C689D6824F070040A6822435A600368D3
:1030B000164A93421AD0B3F1804F17D0A2F57C4242
:1030C000934213D002F5806293420FD002F58062E2
:1030D00093420BD002F57842934207D002F570522A
:1030E000934203D0A2F59432934204D125F0800597
:1030F0004A6815439D60012380F83D30002380F825
:103100003C30184630BC7047022070470000014038
:10311000704770470268D36823F0C003D360202350
:1031200080F8393070470268D36823F49073D36015
:103130000268536923F001035361202380F83A3079
:10314000704790F83930DBB2212B01D00220704754
:103150008368B3F5805F17D0036A5A1C02621A783D
:1031600003685A60C38C9BB2013B9BB2C3844BB9CA
:103170000268D36823F08003D3600268D36843F009
:103180004003D36000207047036A1B880268C3F3C2
:103190000803536003691BB9036A02330362E1E762
:1031A000036A01330362DDE770B504460268136900
:1031B00023F44053C1680B431361836802691343CE
:1031C00042691343C2691A430168CB6823F416436A
:1031D00023F00C031343CB600268536923F440735C
:1031E00081690B435361C369B3F5004F40D0036855
:1031F0006E4A934200F0AC8002F58062934200F088
:10320000A78002F58062934200F0A28002F58062FE
:10321000934200F09D80FEF78BFB0026051846EBDD
:1032200006012D1846EB0101CB0043EA5573EA0075
:103230001546194663689A009B0F281846EB010152
:10324000FDF7DAFC5A4DA5FB00325109642303FB5C
:1032500011031B013233A5FB03235B0903F0F002CA
:1032600002EB011203F00F03216813448B609BE013
:1032700003684E4A93423BD002F58062934237D0B6
:1032800002F58062934233D002F5806293422FD0E0
:10329000FEF74EFB0026051846EB06012D1846EBFF
:1032A0000101CB0043EA5573EA00154619466268EE
:1032B0003346921846EB0303281846EB0101FDF74D
:1032C0009BFC3B4DA5FB00325109642303FB11031A
:1032D000DB003233A5FB03235B095A0002F4F872CA
:1032E00002EB011203F00703216813448B605BE0DB
:1032F000FEF72EFB0026051846EB06012D1846EBBF
:103300000101CB0043EA5573EA001546194662688D
:103310003346921846EB0303281846EB0101FDF7EC
:103320006BFC234DA5FB00325109642303FB110301
:10333000DB003233A5FB03235B095A0002F4F87269
:1033400002EB011203F00703216813448B602BE0AA
:10335000FEF7FEFA0026051846EB06012D1846EB8F
:103360000101CB0043EA5573EA001546194663682C
:103370009A009B0F281846EB0101FDF73DFC0C4D10
:10338000A5FB00325109642303FB11031B013233F7
:10339000A5FB03235B0903F0F00202EB011203F02B
:1033A0000F03216813448B6070BD00BF0010014003
:1033B0001F85EB5158B310B5044690F839300BB364
:1033C000242384F839302268D36823F40053D3606F
:1033D0002046FFF7E9FE2268136923F49043136146
:1033E0002268536923F02A0353612268D36843F4A7
:1033F0000053D3600020E063202384F8393084F840
:103400003A3010BD80F8383004F0E0FBD8E70120F6
:103410007047000038B590F83930DBB2202B31D13D
:103420000446002930D0002A30D090F83830012BE3
:103430002ED0012380F8383001628284C2840025B6
:10344000C563212380F83930036B1248D863236B9E
:1034500011481864236B1148D864236B1D652068DC
:103460001346021D206BFDF7F7FE23686FF0400244
:103470001A6084F838502268536943F0800353611E
:10348000284600E0022038BD0120FCE70120FAE7D1
:103490000220F8E7AF350008FB350008F1360008D8
:1034A00030B583B0044690F83A00C0B220283CD131
:1034B00000293DD0002A3DD094F83830012B3BD074
:1034C000012384F83830A162A2850025E563222318
:1034D00084F83A30636B1948D863636B18481864F2
:1034E000636B1848D864636B1D65206813460A46F1
:1034F000011D606BFDF7B0FE019523681A6801920B
:103500005A680192019A84F83850DA6842F480725D
:10351000DA602268536943F00103536122685369FA
:1035200043F040035361284600E0022003B030BD61
:103530000120FBE70120F9E70220F7E70736000842
:10354000E5360008F136000810B5044601684A69FE
:1035500090F83930DBB2212B0AD021684A6902F099
:10356000400294F83A30DBB2222B11D0002010BD7B
:1035700002F08002002AF0D04B6923F080034B61F7
:10358000006B08B1FDF79DFE2046FFF7C3FDE4E7A1
:10359000002AEBD04B6923F040034B61606B08B10C
:1035A000FDF78FFE2046FFF7BEFDDFE7704708B549
:1035B0000346806B1B681B6813F4807F0CD10023CB
:1035C000C3840268536923F0800353610268D3689F
:1035D00043F04003D36008BDFFF7E8FFFBE708B501
:1035E0000168CA6822F04002CA60202280F83920AF
:1035F000FFF7DCFF002008BD704708B5806BFFF7C0
:10360000FBFF08BD704708B50346806B1B681B684D
:1036100013F4807F13D10023C3850268D36823F499
:103620008073D3600268536923F001035361026819
:10363000536923F040035361202380F83A30FFF7A9
:10364000E1FF08BD08B590F83A30DBB2222B46D135
:103650008368B3F5805F0FD003690BBB03685A68BA
:10366000836A591C81621A70C38D9BB2013B9BB265
:10367000C385F3B1002008BD826A036943B90368BA
:103680005B68C3F308031380836A02338362EBE74A
:1036900003685B68DBB21380836A01338362E3E70C
:1036A00003685B68826A511C816203F07F031370B8
:1036B000DAE70268D36823F02003D3600268D36896
:1036C00023F48073D3600268536923F001035361CC
:1036D000202380F83A30FFF795FF0020CBE7022047
:1036E000C9E7704708B5806BFFF7FBFF08BD70475F
:1036F00010B5846B23685A6994F83930DBB2212BFA
:1037000010D023685A6902F0400294F83A30DBB2D4
:10371000222B11D0E36B43F01003E3632046FFF745
:10372000E6FF10BD02F08002002AEAD00023E38405
:103730002046FFF7EFFCE4E7002AEBD00023E38507
:103740002046FFF7F0FCE5E710B504460268136871
:10375000D168526913F00F0005D113F0200F02D089
:1037600011F0200F13D128B112F0010213D111F47E
:10377000907F10D113F0800F02D011F0800F6CD128
:1037800013F0400F02D011F0400F6AD110BD204657
:10379000FFF758FFFAE713F0010F06D011F4807F0E
:1037A00003D0E06B40F00100E06313F0040F04D09D
:1037B0001AB1E06B40F00200E06313F0020F04D096
:1037C0001AB1E06B40F00400E06313F0080F07D07B
:1037D00011F0200F00D11AB1E26B42F00802E2634F
:1037E000E26B002AD2D013F0200F02D011F0200F8C
:1037F00021D123685B6903F04003E26B12F0080FEC
:1038000000D123B32046FFF78EFC23685A6912F0DB
:10381000400F18D05A6922F040025A61636B73B1AD
:10382000124A1A65606BFDF796FD0028AED0606BFA
:10383000036D9847AAE72046FFF704FFD9E7204623
:10384000FFF755FFA2E72046FFF751FF9EE720460E
:10385000FFF74DFF0023E36398E72046FFF771FC75
:1038600094E72046FFF7BBFE90E700BF71380008E1
:1038700008B5806B0023C385C384FFF738FF08BDFC
:1038800000B587B08DF80F0041F288330093012313
:103890000DF117020DF10F010348FFF7D5F89DF860
:1038A000170007B05DF804FBB007002038B50446E8
:1038B0000D4D00224FF480512846FDF72DFF0320C7
:1038C000FFF7DEFF200AFFF7DBFFE0B2FFF7D8FFCC
:1038D0000020FFF7D5FF044601224FF4805128460F
:1038E000FDF71AFF204638BD00040240F8B5044633
:1038F0000D4616460E4F00224FF480513846FDF714
:103900000BFF0320FFF7BCFF200AFFF7B9FFE0B26F
:10391000FFF7B6FF41F28833324629460548FFF7E4
:10392000AFF901224FF480513846FDF7F5FEF8BD9E
:1039300000040240B007002070B505460E46164C44
:1039400000224FF480512046FDF7E6FE0620FFF7E7
:1039500097FF01224FF480512046FDF7DDFE002243
:103960004FF480512046FDF7D7FE0220FFF788FF75
:10397000280AFFF785FFE8B2FFF782FF3078FFF7EC
:103980007FFF01224FF480512046FDF7C5FE06203F
:10399000FDF7FEFA70BD00BF00040240F8B5054611
:1039A0000E461746174C00224FF480512046FDF773
:1039B000B3FE0620FFF764FF01224FF4805120463A
:1039C000FDF7AAFE00224FF480512046FDF7A4FE29
:1039D0000220FFF755FF280AFFF752FFE8B2FFF772
:1039E0004FFF41F288333A4631460748FEF75AFF07
:1039F00001224FF480512046FDF78EFE0A20FDF78C
:103A0000C7FAF8BD00040240B00700202DE9F047D6
:103A100007460E460720FFF749FF424CE071082099
:103A2000FFF744FF2072FA280CD006FB00F5803522
:103A3000ADB2012303F10108B5EBC81F08DB5FFA43
:103A400088F3F7E7E57906FB05F58035ADB2F0E7D9
:103A50005C1CE401E4B25FFA85FAA4EB0A095FFAA0
:103A600089F9B9F11B0F3FD92F4C00224FF4805137
:103A70002046FDF751FE0620FFF702FF01224FF41A
:103A800080512046FDF748FE00224FF48051204629
:103A9000FDF742FE0220FFF7F3FE280AFFF7F0FED3
:103AA0005046FFF7EDFE41F28833324639461F4853
:103AB000FEF7F8FE01224FF480512046FDF72CFE60
:103AC0000A20FDF765FA174B1B7AF92B1DD9154B08
:103AD000DB79F82B21D80133124AD371144907201E
:103AE000FFF72AFFBDE8F0874A4639462846FFF728
:103AF00055FFAAEB040434444FEAC81080B2E2B286
:103B000007EB0901FFF74AFFDDE70133054901F83B
:103B1000083F0820FFF710FFE4E7024B0022DA71AC
:103B2000DCE700BFC406002000040240B00700200C
:103B3000CB060020F8B505460E4617460720FFF7CE
:103B4000B5FE1A4CE0710820FFF7B0FE2072A842C3
:103B500003D8FF2333707370F8BD144BDA79AB18B8
:103B6000F92B11DDA3F1FA0515FB07F5ADB2803590
:103B7000ADB20024BC42EFD2281980B2FFF796FE06
:103B800030550134E4B2F5E7F92A06D0154415FBA7
:103B900007F5ADB28035ADB2EBE7002DF6D0013DB3
:103BA00015FB07F5ADB28035ADB2E2E7C4060020E3
:103BB00010B5A0B0FF2300937C22002101A804F0DF
:103BC00037FA0024362C08D80134A4B2E00180B2C0
:103BD00080226946FFF7E2FEF4E70B4A00231360F8
:103BE00053609360D360136153619361074CE37139
:103BF0002372E11D0720FFF79FFE04F10801082052
:103C0000FFF79AFE20B010BDD0060020C4060020A9
:103C100008B528B1012202210448FDF77DFD08BD49
:103C2000002202210148FDF777FDF8E7000002407D
:103C300010B50B4C012204212046FDF76DFD6420D8
:103C4000FDF7A6F9002204212046FDF765FD64205A
:103C5000FDF79EF9012204212046FDF75DFD10BD10
:103C60000000024010B582B08DF807000A4CA3692D
:103C700043F01003A361A36943F48003A3616423A9
:103C800001220DF107010548FEF70CFEA36943F080
:103C90004003A36102B010BD00000240C416002022
:103CA00010B582B08DF807000A4CA36943F4801365
:103CB000A361A36943F48003A361642301220DF18E
:103CC00007010548FEF7EEFDA36943F04003A36139
:103CD00002B010BD00000240C416002010B5FFF76E
:103CE000A7FFC820FDF754F90120FFF791FFC82076
:103CF000FDF74EF91520FFF7D3FF0020FFF7D0FFA7
:103D00003F20FFF7CDFF7520FFF7CAFF0020FFF728
:103D1000C7FF3F20FFF7C4FF8120FFF7C1FF3F200F
:103D2000FFF7BEFF8620FFF7BBFFA020FFF7B8FF1D
:103D30005220FFF7B5FFA120FFF7B2FF0020FFF7E9
:103D4000AFFFA220FFF7ACFF4C20FFF7A9FFA42094
:103D5000FFF7A6FFA820FFF7A3FF3F20FFF7A0FF74
:103D6000B120FFF79DFF3520FFF79AFFB220FFF744
:103D700097FF4620FFF794FFB320FFF791FF012044
:103D8000FFF78EFFBF20FFF78BFF0020FFF788FFB4
:103D9000BE20FFF785FF0B20FFF782FFB820FFF75B
:103DA0007FFF0120FFF77CFF1120FFF779FF222022
:103DB000FFF776FF3220FFF773FF4320FFF770FF16
:103DC0005420FFF76DFF6520FFF76AFF7620FFF7AD
:103DD00067FFAD20FFF764FF0220FFF761FF1520AA
:103DE000FFF75EFF0020FFF75BFF3F20FFF758FF64
:103DF0007520FFF755FF0020FFF752FF3F20FFF728
:103E00004FFF0024B4F5805F05D20020FFF72AFFA2
:103E10000134A4B2F6E7AF20FFF742FF10BD10B5A2
:103E20001520FFF73DFF0020FFF73AFF3F20FFF787
:103E300037FF7520FFF734FF0020FFF731FF3F20E9
:103E4000FFF72EFF0024B4F5805F04DA0020FFF7AF
:103E500009FF0134F7E710BD2DE9F04105460C4696
:103E6000174603F07F081520FFF71AFF2846FFF7D3
:103E700017FFA81CC0B2FFF713FF7520FFF710FF54
:103E80002046FFF70DFF04F10800C0B2FFF708FF5E
:103E9000002616E03801C0B20BE0FFF7E3FEA400F5
:103EA000E4B20135EDB2022D09D814F0800FF1D142
:103EB000002014F0400FF0D03844C0B2EDE70136D6
:103EC000F6B2072E07D8094B53F828309C5DA400A2
:103ED000E4B20025E7E70020FFF7C4FE0020FFF76B
:103EE000C1FE0020FFF7BEFEBDE8F0810800002003
:103EF0002DE9F04105460C46174698461520FFF778
:103F0000CFFE2846FFF7CCFE681DC0B2FFF7C8FE03
:103F10007520FFF7C5FE2046FFF7C2FE04F1100032
:103F2000C0B2FFF7BDFE002616E03801C0B20BE0BC
:103F3000FFF798FEA400A4B20135EDB2052D09D813
:103F400014F4004FF1D1002014F4804FF0D0384425
:103F5000C0B2EDE70136F6B20F2E0AD80F4B03EBD5
:103F60008803D3F8003233F816402401A4B20025A8
:103F7000E4E70020FFF776FE0020FFF773FE002045
:103F8000FFF770FE0020FFF76DFE0020FFF76AFECE
:103F90000020FFF767FEBDE8F08100BF08000020A9
:103FA0002DE9F04105460C46164698460A3B2F2B54
:103FB0003DD8DFE803F01F3C3C3C3C3C3C3C3C3CF7
:103FC0003C3C3C3C3C3C3C3C3C3C3C3C3C3C3C3C31
:103FD0003C363C3C3C3C3C3C3C18393C1B1B1B1BD2
:103FE0001B1B1B1B1B1B4FF00B0803E0A8F1300829
:103FF0005FFA88F81520FFF753FE2846FFF750FEBA
:10400000E81DC0B2FFF74CFE7520FFF749FE2046C1
:10401000FFF746FE04F11800C0B2FFF741FE00278B
:104020001FE04FF00C08E5E74FF00F08E2E74FF014
:104030000E08DFE73001C0B20BE0FFF713FEA4006B
:10404000A4B20135EDB2072D09D814F4004FF1D117
:10405000002014F4804FF0D03044C0B2EDE70137B7
:10406000FFB2172F0AD8124B03EB8803D3F80034A2
:1040700033F817406400A4B20025E4E70020FFF7FE
:10408000F1FD0020FFF7EEFD0020FFF7EBFD002023
:10409000FFF7E8FD0020FFF7E5FD0020FFF7E2FD58
:1040A0000020FFF7DFFD0020FFF7DCFDBDE8F08119
:1040B000080000202DE9F04105460C4616469846BA
:1040C0000A3B2F2B3ED8DFE803F01F3D3D3D3D3D31
:1040D0003D3D3D3D3D3D3D3D3D3D3D3D3D3D3D3D10
:1040E0003D3D3D3D3D373D3D3D3D3D3D3D183A3D2E
:1040F0001B1B1B1B1B1B1B1B1B1B4FF00B0803E07D
:10410000A8F130085FFA88F81520FFF7C9FD2846A6
:10411000FFF7C6FD05F10C00C0B2FFF7C1FD752029
:10412000FFF7BEFD2046FFF7BBFD04F12000C0B243
:10413000FFF7B6FD00271DE04FF00C08E4E74FF055
:104140000F08E1E74FF00E08DEE7002015F4802F9E
:1041500001D03044C0B2FFF785FDAD000134E4B2B8
:104160000C2C05D815F4002FEFD03001C0B2EDE7CC
:104170000137FFB21F2F08D8054B03EB8803D3F894
:10418000403453F827500024EAE7BDE8F08100BF2F
:10419000080000202DE9F04106460F4615461C4652
:1041A0009DF81880032C13D8DFE804F00D26384D55
:1041B00004EB440030442B5D42463946C0B2FFF761
:1041C0004BFE0134E4B22846FCF72AF88442EFD3D0
:1041D000BDE8F08104EB440006EB40002B5D424655
:1041E0003946C0B2FFF784FE0134E4B22846FCF73A
:1041F00017F88442EED3EBE70024F7E706EBC400A0
:104200002B5D42463946C0B2FFF7CAFE0134E4B224
:104210002846FCF705F88442F0D3D9E70024F7E7F5
:1042200004EB840004EB400030442B5D42463946E9
:10423000C0B2FFF73FFF0134E4B22846FBF7F0FFBE
:104240008442EDD3C4E70024F7E70000F8B5044644
:104250000F4615461378567806FB03F676101520A0
:10426000FFF71EFD2046FFF71BFD287804EB5000EA
:10427000C0B20138C0B2FFF713FD7520FFF710FD83
:104280003846FFF70DFD68783844C0B2FFF708FDE7
:104290000224731CA34209DB285D054B5B7910FBEC
:1042A00003F0C0B2FFF7DEFC0134F2E7F8BD00BF57
:1042B000C4060020014B1860704700BF7C06002038
:1042C0001F4B1A69C2F30212062A2FD81D4B197907
:1042D0000A431A7159791A7942EAC102D2B21A71A3
:1042E000194401220A721A7942F040021A71154BE0
:1042F0001B7A3BB9134B5B7A23B9124A137903F04B
:10430000BF0313710F4A53790133DBB25371012B91
:1043100002D9134600225A710A4B5B7963B903F143
:10432000804303F50433084A9A617047054B5A7974
:10433000134400221A72DAE7014B044A9A6170476B
:10434000001002407C060020040008000800040061
:1043500008B5114A13799B0993725A1ED2B2012AE9
:1043600000D908BD012B07D00B4B9B7A022BF8D14B
:10437000094B10221A71F4E7074B1A7942F08002B8
:104380001A711B68002BEFD0034A1279014602F024
:104390000F009847E8E700BF7C0600202DE9F043B6
:1043A0008DB000240794089409940A940B94019406
:1043B000554B1A6B42F010021A631A6B02F010028E
:1043C0000192019A02941A6B42F004021A631A6B6A
:1043D00002F004020292029A03941A6B42F08002E5
:1043E0001A631A6B02F080020392039A04941A6B08
:1043F00042F001021A631A6B02F001020492049A5D
:1044000005941A6B42F002021A631A6B02F0020260
:104410000592059A06941A6B42F008021A631B6B08
:1044200003F008030693069BDFF8E88022460C2180
:104430004046FDF771F9354F224612213846FDF707
:104440006BF9012244213846FDF766F9304E01220E
:1044500041F203013046FDF75FF922460421304660
:10446000FDF75AF9DFF8B09022464FF480714846C4
:10447000FDF752F90C2307930125089509940A9436
:1044800007A94046FDF768F870230793089409943C
:1044900007A94046FDF760F80223079308950994A1
:1044A0000A9407A93846FDF757F85423079308954F
:1044B00009944FF00308CDF8288007A93846FDF786
:1044C0004BF807230793089509940A9407A93046E7
:1044D000FDF742F84FF48053079308950994CDF8FF
:1044E000288007A93046FDF737F84FF4807307930B
:1044F00008950994CDF8288007A94846FDF72CF8BF
:104500000DB0BDE8F08300BF00380240000002405B
:104510000004024000100240000C024010B582B0BE
:10452000002400941A4B1A6B42F480021A631A6B2F
:1045300002F480020092009A01941A6B42F4001275
:104540001A631B6B03F400130193019B224621465F
:104550001020FCF743FD1020FCF774FD2246214695
:104560001120FCF73BFD1120FCF76CFD2246214693
:104570003920FCF733FD3920FCF764FD2246214643
:104580004520FCF72BFD4520FCF75CFD02B010BD7B
:104590000038024008B50C480C4B03604FF482739E
:1045A000436000238360C360036143614FF4007282
:1045B00082610822C2610362436283620A23C3628A
:1045C000FEF730F908BD00BFC416002000300140DE
:1045D00008B50C480C4B03604FF482734360002312
:1045E0008360C360036143614FF4007282613022D3
:1045F000C2610362436283620A23C362FEF712F957
:1046000008BD00BFB00700200038004008B50848CA
:10461000084B03604FF4E133436000238360C360C1
:1046200003610C2242618361C361FEF7C3FE08BDD2
:10463000201700200044004008B50848084B0360DC
:104640004FF4E133436000238360C36003610C22B5
:1046500042618361C361FEF7ADFE08BD8416002090
:104660000014014030B583B00025009501950A4C37
:104670000A4B23604BF67F336360A5601323E3602E
:10468000A5612046FEF7E6FC0095019569462046A7
:10469000FEF7FAFC03B030BD0C1100200010004002
:1046A00030B58BB028220021684603F0C1FC184DBC
:1046B000184B2B6000246C607F23AB60FF23EB6002
:1046C0002C616C61AC612846FDF76FFD8DF80040F0
:1046D0008DF801408DF802400194039404940594F0
:1046E0000694079401238DF820304FF480730993CA
:1046F000224669462846FDF7B1FE4FF08033059308
:10470000224669462846FDF7A9FE0BB030BD00BF22
:10471000E81000200028004010B40446002318468A
:104720008B4205D2E25C1044C0B20133DBB2F7E742
:104730005DF8044B704700000E4BDB7813F0030F5D
:104740000CD1022812D001380B280DD8DFE800F078
:104750000A0C0A100A100A0A100A100A0228F2D1DA
:104760001C2070471F207047002070471D20704795
:104770001E20704788060020744BDB7813F0030F6F
:1047800076D1724B5B78013B0B2B00F2DD80DFE8CA
:1047900003F0060F18212A333C454E575F676B4BD9
:1047A0009B781F2B40F2D080684B1F229A70704775
:1047B000664B9B781D2B40F2C780644B1D229A707C
:1047C0007047624B9B781F2B40F2BE805F4B1F22CD
:1047D0009A7070475D4B9B781E2B40F2B5805B4B07
:1047E0001E229A707047594B9B781F2B40F2AC8069
:1047F000564B1F229A707047544B9B781E2B40F2E9
:10480000A380524B1E229A707047504B9B781F2BEF
:1048100040F29A804D4B1F229A7070474B4B9B7809
:104820001F2B40F29180494B1F229A707047474BD3
:104830009B781E2B40F28880444B1E229A70704752
:10484000424B9B781F2B7FD9404B1F229A70704799
:104850003E4B9B781E2B77D93C4B1E229A7070479B
:104860003A4B9B781F2B6FD9384B1F229A70704799
:10487000364B5B78013B0B2B66D8DFE803F0060E66
:10488000161E262E363E464E565E304B9B781F2B0C
:104890005AD92E4B1F229A7070472C4B9B781C2B99
:1048A00052D92A4B1C229A707047284B9B781F2B99
:1048B0004AD9264B1F229A707047244B9B781E2B97
:1048C00042D9224B1E229A707047204B9B781F2B97
:1048D0003AD91E4B1F229A7070471C4B9B781E2B97
:1048E00032D91A4B1E229A707047184B9B781F2B97
:1048F0002AD9164B1F229A707047144B9B781F2B96
:1049000022D9124B1F229A707047104B9B781E2B96
:104910001AD90E4B1E229A7070470C4B9B781F2B96
:1049200012D90A4B1F229A707047084B9B781E2B96
:104930000AD9064B1E229A707047044B9B781F2B96
:1049400002D9024B1F229A70704700BF88060020D0
:1049500038B50E4C0E4D0022211D2846FDF757FE9E
:10496000002221462846FDF77AFEE3780BB914228F
:10497000E270064B5B7813B9044B0122DA70034BEB
:104980009B7813B9014B01229A7038BD880600202C
:10499000E810002070B582B0524B1B79FF2B34D049
:1049A000504B1B79012B03D84E4B1B78012B78D928
:1049B0004C4B00241C711C705C7001229A700F21FA
:1049C000D97009255D719A71FFF7F2F8FFF727FAA0
:1049D00000952346444A18212046FFF7DBFB00954B
:1049E0002346424A21212046FFF7D4FB0095234667
:1049F0003F4A2A212046FFF7CDFB41F28830FCF7E1
:104A0000C7FAFFF70CFA02B070BD364B1A884FF6A2
:104A1000FF739A42C4D1334BDB78FF2BC0D1314BAB
:104A20009B79FF2BBCD12F4B1B7AFF2BB8D12D4B81
:104A3000DB79FF2BB4D12B4C0025257125706570D7
:104A40000123A3700F22E27009266671A3712572FB
:104A5000E5716581FFF7E3F900962B46254A182199
:104A60000220FFF797FB00962B46234A21210220C4
:104A7000FFF790FB0C2221462846FEF78FFF4FF4EC
:104A80007A60FCF785FA00962B461C4A2A21022000
:104A9000FFF780FB4FF47A70FCF77AFAFFF7BFF963
:104AA0007EE7104B5B78012B82D80E4B9B78012B55
:104AB0003FF67EAF0B4BDB780E2B7FF679AF282BC2
:104AC0003FF676AF074B9B79012B3FF671AF054B55
:104AD0001B7AFA2B3FF66CAF024BDB79F82B92D99D
:104AE00066E700BFC406002010000108200001088E
:104AF00030000108DCFF0008F4FF0008080001088E
:104B000008B5064B00221A80054B01221A700520B9
:104B1000FEF7CCFE034B587108BD00BF0E0C002001
:104B20001C170020C406002008B50A4B1B7813B1DF
:104B3000094B00221A76FFF772F9084B002283F81E
:104B4000622083F8632083F8642083F86120FF22C9
:104B50001A7008BDC4060020880600200416002034
:104B6000064B01221A7093F861209918002081F8F1
:104B70006200013A83F86120704700BF04160020EC
:104B80002DE9F04184B0FFF7E3FEFFF7F5FDA44BFC
:104B90001B78072B45D8DFE813F0C904350644001D
:104BA000E9056F04FD00520008009E4B9B78002B26
:104BB0003AD19C4B1B7903EBC3035B006C339A49DE
:104BC00019449A4803F0A6FE984C964D6B790093D1
:104BD0000023224601212820FFF7DCFA6B7900939D
:104BE000012304F1180218210320FFF7D3FA90499A
:104BF000CB780A7948798E794834039602900192ED
:104C000003F5FA6300934B788A788A49204603F0CB
:104C100081FE6B7900930023224638211846FFF766
:104C2000B9FA04B0BDE8F0817E4B197901EBC101FE
:104C30007D4B03EB41017D4803F06CFEC4E7794BEB
:104C40009B78002B57D1774B1B7903EBC3035B0099
:104C50006C3375491944754803F05CFE714B5B7900
:104C600000930023714A01212820FFF793FA724B29
:104C70001B781BB16B4B1A7A002A47D1694B5B79C1
:104C8000009300236D4A01210A20FFF783FA684B45
:104C90001B7EDBB2012B48D0694C624D6B790093CF
:104CA000012322460F210320FFF774FA6B7900934A
:104CB000012304F1180222210320FFF76BFA5C4A5A
:104CC000D3781179507995795E4C039502900191D2
:104CD00003F5FA630093537892785649204603F01F
:104CE00019FE504B5B790093002322463821184669
:104CF000FFF750FA95E74B4B197901EBC1014A4B8D
:104D000003EB4101494803F005FEA7E74E4C4F492C
:104D1000204603F0FFFD434B5B79009300232246BE
:104D200001210A20FFF736FAB1E73E4C6379009380
:104D30000123474A0F210C20FFF72CFA63790093D7
:104D40000123444A0F212120FFF724FA63790093BD
:104D50000123414A0F213020FFF71CFA63790093A9
:104D600001233E4A22211220FFF714FA2E4C04F1AF
:104D7000FC052A460F211E20FFF768FA2A460F215C
:104D80002D20FFF763FA04F58E720B212220FFF726
:104D90005DFA94E7224BB3F86810B3F86C209142A7
:104DA00003D9B3F86A10A3F868101D4BB3F8681064
:104DB000B3F86A30994202D2194BA3F86820194B14
:104DC000197A00296AD11A796AB1164B1B79012B1D
:104DD00048D04FF4FA60FCF7DBF8FFF720F8104BEF
:104DE00001221A701DE71E4CC2EBC202520054325F
:104DF0001D465B790093012322440F211420FFF705
:104E0000C9F92B79C3EBC3025200C4326B7900930A
:104E10000123224422210820FFF7BCF9D5E700BF77
:104E200004160020C406002090CC000805160020BF
:104E300088060020C0000108F40B0020E8000108EB
:104E40001D1600204D16002072160020E0000108FB
:104E5000F0000108F4000108F800010835160020F0
:104E6000C0CD0008B24CC3EBC3035A005432B14D5D
:104E70006B790093012322440F211920FFF78AF94F
:104E80002B79C3EBC3035A00C4326B79009301231F
:104E9000224422210B20FFF77DF99AE7A54B5B788E
:104EA000002B40F0B780A34B9B78002B40F05E8135
:104EB000A14BB3F86840092C4ED89E4B18799C4DF5
:104EC000C0EBC0035B0003F1C402C0EBC0035B0096
:104ED000FC33C0EBC000400000F58C702844029108
:104EE0000190013400942B442A449449944803F0DF
:104EF00011FD904B5B7900930023914A01211846E4
:104F0000FFF748F98F4BD3ED057AB2EE047AF4EE51
:104F1000C77AF1EE10FA3CDAF5EEC07AF1EE10FA4B
:104F200080F2F080BAEE047AF4EEC77AF1EE10FA6D
:104F300000F3F380BAEE047AF4EEC77AF1EE10FAD9
:104F400031D817EE900AFBF727FB02460B467E4945
:104F50007E4803F0DFFC26E0764B1879744DC0EBF9
:104F6000C0035B0003F1C402C0EBC0035B00FC3371
:104F7000C0EBC000400000F58C7028440291019005
:104F8000013400942B442A4471496D4803F0C2FC5B
:104F9000AFE717EE900AFBF7FFFA02460B466D49A2
:104FA0006A4803F0B7FC694E624F7B790093012396
:104FB00032460F210320FFF7EDF8624CA068FBF7A3
:104FC000EBFA02460B4606F118056349284603F042
:104FD000A1FC7B79009301232A4622210320FFF7BD
:104FE000D9F8A378E278217960793036039002917C
:104FF000019203F5FA6300936378227857493046AB
:1050000003F088FC7B790093002332463821184650
:10501000FFF7C0F8474B5B78012B7FF402AE454B9E
:105020009B78002B40F08381434BB3F8680009283C
:1050300000F25F813F4D29793D4CC1EBC1035B001C
:1050400003F1C402C1EBC1035B00FC33C1EBC1013E
:10505000490001F58C7121442D7A029501910130AE
:105060000090234422443549354803F053FC344D25
:10507000304F7B79009300232A4601211846FFF721
:1050800089F8304CE068FBF787FA02460B4605F1D9
:1050900018063349304603F03DFC7B790093012329
:1050A00032460F210320FFF775F8A068FBF774FA6A
:1050B00002460B4605F130062A49304603F02AFC29
:1050C0007B7900930123324622210320FFF762F807
:1050D000A378E278217960794835039002910192B2
:1050E00003F5FA630093637822781C49284603F09D
:1050F00011FC7B79009300232A4638211846FFF7DC
:1051000049F88EE517EE900AFBF746FA02460B4681
:1051100015490E4803F0FEFB45E717EE900AFBF732
:105120003BFA02460B460B49084803F0F3FB3AE70B
:10513000C0CD0008C406002004160020FC000108B1
:1051400005160020D00600203C0101081D16002095
:10515000100101082001010848010108C0000108F0
:10516000600101086C0101082C010108B34BB3F880
:105170006840092C4CD8B24B1879B24DC0EBC00333
:105180005B0003F1C402C0EBC0035B00FC33C0EB67
:10519000C000400000F58C70284402910190013459
:1051A00000942B442A44A849A84803F0B3FBA44B1D
:1051B0005B7900930023A54A01211846FEF7EAFF18
:1051C000A34BD3ED067AB2EE047AF4EEC77AF1EE91
:1051D00010FA3ADAF5EEC07AF1EE10FA73DABAEEB6
:1051E000047AF4EEC77AF1EE10FA77DCBAEE047ABC
:1051F000F4EEC77AF1EE10FA31D817EE900AFBF709
:10520000CBF902460B469349934803F083FB26E013
:105210008B4B18798B4DC0EBC0035B0003F1C402CC
:10522000C0EBC0035B00FC33C0EBC000400000F5E6
:105230008C70284402910190013400942B442A443C
:105240008649824803F066FBB1E717EE900AFBF748
:10525000A3F902460B4682497F4803F05BFB7E4D73
:10526000774E7379009301232A460F210320FEF71E
:1052700091FF05F1180414227A49204603F04AFBF5
:10528000737900930123224622210320FEF782FF37
:105290006F4A9378D178107954793035039402901D
:1052A000019103F5FA630093537812786E4928460A
:1052B00003F030FB7379009300232A463821184607
:1052C000FEF768FFA6E617EE900AFBF765F90246BF
:1052D0000B466649604803F01DFBC0E717EE900AD5
:1052E000FBF75AF902460B465D495B4803F012FB97
:1052F000B5E7534D2979534CC1EBC1035B0003F172
:10530000C402C1EBC1035B00FC33C1EBC101490026
:1053100001F58C7121442D7A0295019101300090A4
:10532000234422444D49494803F0F4FA9FE6434B95
:10533000B3F86800092863D8414D2979414CC1EB85
:10534000C1035B0003F1C402C1EBC1035B00FC338A
:10535000C1EBC101490001F58C7121442D7A029500
:10536000019101300090234422443749374803F02B
:10537000D1FA364C324E7379009300232246012134
:105380001846FEF707FF324D2869FBF705F902467C
:105390000B4604F118073649384603F0BBFA737917
:1053A000009301233A460F210320FEF7F3FE04F198
:1053B000300714222F49384603F0ACFA7379009372
:1053C00001233A4622210320FEF7E4FEAB78EA7877
:1053D00029796879483403900291019203F5FA63C0
:1053E00000936B782A782049204603F093FA73796A
:1053F00000930023224638211846FEF7CBFE10E426
:105400000F4D29790F4CC1EBC1035B0003F1C402BE
:10541000C1EBC1035B00FC33C1EBC101490001F5E5
:105420008C7121442D7A0295019101300090234422
:1054300022440A49054803F06DFA9AE70416002051
:10544000C4060020C0CD0008FC000108051600209D
:10545000D00600203C0101081D16002010010108A3
:105460002001010854010108C00001082C010108B5
:105470006001010878010108FEF7D1FCA84C2079F1
:10548000A84DC0EBC0025200A832C0EBC0000530EE
:105490006379009301232A440F21C0B2FEF77AFEFC
:1054A0002079C0EBC0025200C43202308000637920
:1054B000009301232A44222100F0FC00FEF76AFE3B
:1054C000FEF776FB984B00221A704FF4FA60FBF758
:1054D0005FFDFEF7A4FC2079C0EBC0025200C4328D
:1054E00000EB400009306379009301232A440F2127
:1054F000C0B2FEF74FFE2079C0EBC0025200E0328E
:1055000000EBC00006306379009301232A44222176
:10551000C0B2FEF73FFE4FF4FA60FBF739FDFEF72D
:105520007EFC824B01221A70FFF77BBB804A137806
:10553000013313707A4B9B78002B40F0C880784B76
:105540001B7903EBC3035B006C337A4919447A4837
:1055500003F0E0F9724E3379764C03EBC301490056
:105560002431764D2144284603F0D4F9337903EBF6
:10557000C30149004831214405F1180003F0CAF97C
:105580006B4B1B783C2B03D06D4B1B78002B78D0DA
:1055900000256B4B1D70624C207900EB4003694E77
:1055A000307800EB4300C0B2674F39780F311530C7
:1055B000637900930123654AC9B2C0B2FEF7EAFDE0
:1055C0003978223130780F30637900930123604AB3
:1055D000C9B2C0B2FEF7DEFD554B1D7097F9003021
:1055E000042B02DD5B4A0121117013F1040F02DA72
:1055F000584A00211170574A1278002A72D101339B
:10560000514A13704F4B93F900300C2B02DD524A74
:105610000121117013F10C0F02DA4F4A00211170B1
:105620004D4A1278002A61D10133464A13703C4C2E
:10563000207900EB4003434D287800EB4300C0B2D3
:105640003E4E414F39780F31153063790093012375
:105650003246C9B2C0B2FEF79DFD397822312878B2
:105660000F3063790093012306F11802C9B2C0B26A
:10567000FEF790FD2379002B3CD0294B1B79002BA2
:1056800042D02D4C264D6B790093002322460121F8
:105690002820FEF77FFD3149CB780A7948798E7949
:1056A000483403960290019203F5FA6300934B7815
:1056B0008A782B49204603F02DF96B79009300235B
:1056C000224638211846FEF765FDFFF7AABA144BAB
:1056D000197901EBC101174B03EB4101164803F0A7
:1056E00019F937E7013B184A13708BE7013B154A5C
:1056F00013709CE739781E3128781C30194AC9B2DA
:10570000C0B2FEF7A3FDB8E70F4B197822310D4B5D
:1057100018782D30144AC9B2C0B2FEF797FDB0E731
:10572000C4060020C0CD0008F40B002004160020A1
:105730000811002090CC0008051600201D1600203E
:105740001C170020001600204C110020E800010862
:1057500084010108E41000200C0C002088060020C1
:10576000C0000108ACCD00088CCD0008BE4BB3F8DA
:105770006810B3F86C20914203D9B3F86A10A3F80B
:105780006810B94BB3F86810B3F86A30994202D286
:10579000B54BA3F86820B54CB54D6B790093002349
:1057A000224619460A20FEF7F5FC6B790093002388
:1057B00004F118020A210520FEF7ECFC6B79009336
:1057C000002304F1300213210520FEF7E3FC04F16D
:1057D0006D06B4F86720A749304603F09BF86B7953
:1057E00000930123324621210A20FEF7D3FC6B7976
:1057F0000093002304F1480237210520FEF7CAFC7C
:10580000FFF70FBA984B93F86130002B5DD0964BA1
:1058100093F86130012B00F0C980934B93F861300D
:10582000022B00F0A582904B93F86130032B7FF49C
:10583000F8A98D4B93F86330012B00F051848A4B0B
:1058400093F86330022B7FF4ECA9874B93F8643014
:10585000012B00F0F484022B00F02685002B7FF44E
:10586000E0A9814CA4F86A301723A4F86C30804E6C
:105870003379814D03EB83039900F0312944601C97
:1058800003F048F8337903EB8303990001F5C871FD
:10589000294404F1190003F03DF8B4F86A2077496F
:1058A00004F1310003F036F8754B1B79A4F8683029
:1058B000B4F86C20734904F1490003F02BF8FEF7AB
:1058C000AEFA03232370FFF7ACB9674E062386F8C0
:1058D0006630674C22796C4D02EB8202637900934B
:1058E000002305EB820219460A20FEF753FC2379B8
:1058F00003EB8302920028326379009300232A4449
:105900000A210520FEF746FC237903EB830292006F
:1059100050326379009300232A4413210520FEF7B7
:1059200039FC237903EB8302920078326379009388
:1059300000232A441C210520FEF72CFC237903EBCD
:1059400083029200A0326379009300232A44252128
:105950000520FEF71FFC237903EB83029200C83277
:105960006379009300232A442E210520FEF712FCC0
:10597000237903EB83029200F032637900930023D2
:105980002A4437210520FEF705FC96F861301E44B5
:1059900096F8621001EBC1010A316379009300238C
:1059A0003A4AC9B20120FEF7F5FB30E72E4B93F8D7
:1059B0006230052B3FF631AFDFE813F006006C00D4
:1059C000B60006017001CD01274D032385F866302E
:1059D000274C23792E4F07F5197603EB83039A00A2
:1059E0002832637900930023324419460A20FEF7D7
:1059F000D1FB227907F5697702EB420263790093C4
:105A0000002307EB82020A210520FEF7C3FB23795E
:105A100003EB43039A0018326379009300233A445E
:105A200013210520FEF7B6FB237903EB83039A00CD
:105A300002F58C7263790093002332441C21052007
:105A4000FEF7A8FB95F861301D4495F8623003EB32
:105A5000C30303F10A016379009300230B4AC9B21F
:105A60000120FEF797FBD8E604160020051600205B
:105A7000C406002008010108F4D0000898010108BC
:105A800088060020A4010108F4CE00088C0101085A
:105A900090CC0008B14D032385F86630B04C2379D3
:105AA000B04F07F5197603EB83039A005032637900
:105AB00000930023324419460A20FEF76BFB6379FA
:105AC00000930023A84A0A210520FEF763FB2379EF
:105AD00007F5757703EB03126379009300233A44CB
